{
  "contractName": "QVVoting",
  "abi": [
    {
      "inputs": [],
      "stateMutability": "nonpayable",
      "type": "constructor"
    },
    {
      "anonymous": false,
      "inputs": [
        {
          "indexed": true,
          "internalType": "address",
          "name": "previousOwner",
          "type": "address"
        },
        {
          "indexed": true,
          "internalType": "address",
          "name": "newOwner",
          "type": "address"
        }
      ],
      "name": "OwnershipTransferred",
      "type": "event"
    },
    {
      "anonymous": false,
      "inputs": [
        {
          "indexed": false,
          "internalType": "address",
          "name": "creator",
          "type": "address"
        },
        {
          "indexed": false,
          "internalType": "string",
          "name": "description",
          "type": "string"
        },
        {
          "indexed": false,
          "internalType": "string[]",
          "name": "_options",
          "type": "string[]"
        },
        {
          "indexed": false,
          "internalType": "uint256",
          "name": "votingTimeInHours",
          "type": "uint256"
        }
      ],
      "name": "ProposalCreated",
      "type": "event"
    },
    {
      "anonymous": false,
      "inputs": [
        {
          "indexed": true,
          "internalType": "bytes32",
          "name": "role",
          "type": "bytes32"
        },
        {
          "indexed": true,
          "internalType": "bytes32",
          "name": "previousAdminRole",
          "type": "bytes32"
        },
        {
          "indexed": true,
          "internalType": "bytes32",
          "name": "newAdminRole",
          "type": "bytes32"
        }
      ],
      "name": "RoleAdminChanged",
      "type": "event"
    },
    {
      "anonymous": false,
      "inputs": [
        {
          "indexed": true,
          "internalType": "bytes32",
          "name": "role",
          "type": "bytes32"
        },
        {
          "indexed": true,
          "internalType": "address",
          "name": "account",
          "type": "address"
        },
        {
          "indexed": true,
          "internalType": "address",
          "name": "sender",
          "type": "address"
        }
      ],
      "name": "RoleGranted",
      "type": "event"
    },
    {
      "anonymous": false,
      "inputs": [
        {
          "indexed": true,
          "internalType": "bytes32",
          "name": "role",
          "type": "bytes32"
        },
        {
          "indexed": true,
          "internalType": "address",
          "name": "account",
          "type": "address"
        },
        {
          "indexed": true,
          "internalType": "address",
          "name": "sender",
          "type": "address"
        }
      ],
      "name": "RoleRevoked",
      "type": "event"
    },
    {
      "anonymous": false,
      "inputs": [
        {
          "indexed": false,
          "internalType": "address",
          "name": "voter",
          "type": "address"
        },
        {
          "indexed": false,
          "internalType": "uint256",
          "name": "ProposalID",
          "type": "uint256"
        },
        {
          "indexed": false,
          "internalType": "uint256",
          "name": "weight",
          "type": "uint256"
        },
        {
          "indexed": false,
          "internalType": "uint256",
          "name": "optionNum",
          "type": "uint256"
        }
      ],
      "name": "VoteCasted",
      "type": "event"
    },
    {
      "inputs": [],
      "name": "DEFAULT_ADMIN_ROLE",
      "outputs": [
        {
          "internalType": "bytes32",
          "name": "",
          "type": "bytes32"
        }
      ],
      "stateMutability": "view",
      "type": "function"
    },
    {
      "inputs": [],
      "name": "ProposalCount",
      "outputs": [
        {
          "internalType": "uint256",
          "name": "",
          "type": "uint256"
        }
      ],
      "stateMutability": "view",
      "type": "function"
    },
    {
      "inputs": [
        {
          "internalType": "uint256",
          "name": "",
          "type": "uint256"
        }
      ],
      "name": "Proposals",
      "outputs": [
        {
          "internalType": "address",
          "name": "creator",
          "type": "address"
        },
        {
          "internalType": "enum Voting.ProposalStatus",
          "name": "status",
          "type": "uint8"
        },
        {
          "internalType": "string",
          "name": "description",
          "type": "string"
        },
        {
          "internalType": "uint256",
          "name": "expirationTime",
          "type": "uint256"
        },
        {
          "internalType": "uint256",
          "name": "numOfOptions",
          "type": "uint256"
        }
      ],
      "stateMutability": "view",
      "type": "function"
    },
    {
      "inputs": [
        {
          "internalType": "address",
          "name": "account",
          "type": "address"
        }
      ],
      "name": "balanceOf",
      "outputs": [
        {
          "internalType": "uint256",
          "name": "",
          "type": "uint256"
        }
      ],
      "stateMutability": "view",
      "type": "function"
    },
    {
      "inputs": [
        {
          "internalType": "uint256",
          "name": "_ProposalID",
          "type": "uint256"
        },
        {
          "internalType": "uint256",
          "name": "numTokens",
          "type": "uint256"
        },
        {
          "internalType": "uint256",
          "name": "_optionNum",
          "type": "uint256"
        }
      ],
      "name": "castVote",
      "outputs": [],
      "stateMutability": "nonpayable",
      "type": "function"
    },
    {
      "inputs": [],
      "name": "checkAdmin",
      "outputs": [
        {
          "internalType": "bool",
          "name": "",
          "type": "bool"
        }
      ],
      "stateMutability": "view",
      "type": "function"
    },
    {
      "inputs": [
        {
          "internalType": "uint256",
          "name": "_ProposalID",
          "type": "uint256"
        }
      ],
      "name": "countVotes",
      "outputs": [
        {
          "internalType": "uint256",
          "name": "",
          "type": "uint256"
        },
        {
          "internalType": "uint256",
          "name": "",
          "type": "uint256"
        },
        {
          "internalType": "string",
          "name": "",
          "type": "string"
        }
      ],
      "stateMutability": "view",
      "type": "function"
    },
    {
      "inputs": [
        {
          "internalType": "string",
          "name": "_description",
          "type": "string"
        },
        {
          "internalType": "string[]",
          "name": "_options",
          "type": "string[]"
        },
        {
          "internalType": "uint256",
          "name": "_voteExpirationTime",
          "type": "uint256"
        }
      ],
      "name": "createProposal",
      "outputs": [
        {
          "internalType": "uint256",
          "name": "",
          "type": "uint256"
        }
      ],
      "stateMutability": "nonpayable",
      "type": "function"
    },
    {
      "inputs": [
        {
          "internalType": "uint256",
          "name": "_ProposalID",
          "type": "uint256"
        }
      ],
      "name": "getDetails",
      "outputs": [
        {
          "internalType": "string",
          "name": "",
          "type": "string"
        },
        {
          "internalType": "string[]",
          "name": "",
          "type": "string[]"
        }
      ],
      "stateMutability": "view",
      "type": "function"
    },
    {
      "inputs": [
        {
          "internalType": "uint256",
          "name": "_ProposalID",
          "type": "uint256"
        }
      ],
      "name": "getProposalExpirationTime",
      "outputs": [
        {
          "internalType": "uint256",
          "name": "",
          "type": "uint256"
        }
      ],
      "stateMutability": "view",
      "type": "function"
    },
    {
      "inputs": [
        {
          "internalType": "uint256",
          "name": "_ProposalID",
          "type": "uint256"
        }
      ],
      "name": "getProposalStatus",
      "outputs": [
        {
          "internalType": "enum Voting.ProposalStatus",
          "name": "",
          "type": "uint8"
        }
      ],
      "stateMutability": "view",
      "type": "function"
    },
    {
      "inputs": [
        {
          "internalType": "bytes32",
          "name": "role",
          "type": "bytes32"
        }
      ],
      "name": "getRoleAdmin",
      "outputs": [
        {
          "internalType": "bytes32",
          "name": "",
          "type": "bytes32"
        }
      ],
      "stateMutability": "view",
      "type": "function"
    },
    {
      "inputs": [
        {
          "internalType": "uint256",
          "name": "_ProposalID",
          "type": "uint256"
        },
        {
          "internalType": "uint256",
          "name": "optionNum",
          "type": "uint256"
        }
      ],
      "name": "getWeight",
      "outputs": [
        {
          "internalType": "uint256",
          "name": "",
          "type": "uint256"
        }
      ],
      "stateMutability": "view",
      "type": "function"
    },
    {
      "inputs": [
        {
          "internalType": "bytes32",
          "name": "role",
          "type": "bytes32"
        },
        {
          "internalType": "address",
          "name": "account",
          "type": "address"
        }
      ],
      "name": "grantRole",
      "outputs": [],
      "stateMutability": "nonpayable",
      "type": "function"
    },
    {
      "inputs": [
        {
          "internalType": "bytes32",
          "name": "role",
          "type": "bytes32"
        },
        {
          "internalType": "address",
          "name": "account",
          "type": "address"
        }
      ],
      "name": "hasRole",
      "outputs": [
        {
          "internalType": "bool",
          "name": "",
          "type": "bool"
        }
      ],
      "stateMutability": "view",
      "type": "function"
    },
    {
      "inputs": [
        {
          "internalType": "address",
          "name": "account",
          "type": "address"
        },
        {
          "internalType": "uint256",
          "name": "amount",
          "type": "uint256"
        }
      ],
      "name": "mint",
      "outputs": [],
      "stateMutability": "nonpayable",
      "type": "function"
    },
    {
      "inputs": [],
      "name": "name",
      "outputs": [
        {
          "internalType": "string",
          "name": "",
          "type": "string"
        }
      ],
      "stateMutability": "view",
      "type": "function"
    },
    {
      "inputs": [],
      "name": "owner",
      "outputs": [
        {
          "internalType": "address",
          "name": "",
          "type": "address"
        }
      ],
      "stateMutability": "view",
      "type": "function"
    },
    {
      "inputs": [],
      "name": "renounceOwnership",
      "outputs": [],
      "stateMutability": "nonpayable",
      "type": "function"
    },
    {
      "inputs": [
        {
          "internalType": "bytes32",
          "name": "role",
          "type": "bytes32"
        },
        {
          "internalType": "address",
          "name": "account",
          "type": "address"
        }
      ],
      "name": "renounceRole",
      "outputs": [],
      "stateMutability": "nonpayable",
      "type": "function"
    },
    {
      "inputs": [
        {
          "internalType": "bytes32",
          "name": "role",
          "type": "bytes32"
        },
        {
          "internalType": "address",
          "name": "account",
          "type": "address"
        }
      ],
      "name": "revokeRole",
      "outputs": [],
      "stateMutability": "nonpayable",
      "type": "function"
    },
    {
      "inputs": [
        {
          "internalType": "uint256",
          "name": "_ProposalID",
          "type": "uint256"
        }
      ],
      "name": "setProposalToEnded",
      "outputs": [],
      "stateMutability": "nonpayable",
      "type": "function"
    },
    {
      "inputs": [
        {
          "internalType": "uint256",
          "name": "_ProposalID",
          "type": "uint256"
        }
      ],
      "name": "setProposalToTally",
      "outputs": [],
      "stateMutability": "nonpayable",
      "type": "function"
    },
    {
      "inputs": [
        {
          "internalType": "bytes4",
          "name": "interfaceId",
          "type": "bytes4"
        }
      ],
      "name": "supportsInterface",
      "outputs": [
        {
          "internalType": "bool",
          "name": "",
          "type": "bool"
        }
      ],
      "stateMutability": "view",
      "type": "function"
    },
    {
      "inputs": [],
      "name": "symbol",
      "outputs": [
        {
          "internalType": "string",
          "name": "",
          "type": "string"
        }
      ],
      "stateMutability": "view",
      "type": "function"
    },
    {
      "inputs": [
        {
          "internalType": "address",
          "name": "newOwner",
          "type": "address"
        }
      ],
      "name": "transferOwnership",
      "outputs": [],
      "stateMutability": "nonpayable",
      "type": "function"
    }
  ],
  "bytecode": "0x60806040523480156200001157600080fd5b5062000032620000266200011560201b60201c565b6200011d60201b60201c565b6040518060400160405280600381526020017f5156560000000000000000000000000000000000000000000000000000000000815250600390805190602001906200007f929190620001e1565b506040518060400160405280600981526020017f515620566f74696e67000000000000000000000000000000000000000000000081525060049080519060200190620000cd929190620001e1565b5033600860006101000a81548173ffffffffffffffffffffffffffffffffffffffff021916908373ffffffffffffffffffffffffffffffffffffffff160217905550620002f5565b600033905090565b60008060009054906101000a900473ffffffffffffffffffffffffffffffffffffffff169050816000806101000a81548173ffffffffffffffffffffffffffffffffffffffff021916908373ffffffffffffffffffffffffffffffffffffffff1602179055508173ffffffffffffffffffffffffffffffffffffffff168173ffffffffffffffffffffffffffffffffffffffff167f8be0079c531659141344cd1fd0a4f28419497f9722a3daafe3b4186f6b6457e060405160405180910390a35050565b828054620001ef90620002c0565b90600052602060002090601f0160209004810192826200021357600085556200025f565b82601f106200022e57805160ff19168380011785556200025f565b828001600101855582156200025f579182015b828111156200025e57825182559160200191906001019062000241565b5b5090506200026e919062000272565b5090565b5b808211156200028d57600081600090555060010162000273565b5090565b7f4e487b7100000000000000000000000000000000000000000000000000000000600052602260045260246000fd5b60006002820490506001821680620002d957607f821691505b602082108103620002ef57620002ee62000291565b5b50919050565b61327f80620003056000396000f3fe608060405234801561001057600080fd5b506004361061018e5760003560e01c80634d5f9eba116100de578063a217fddf11610097578063d1dbe7d811610071578063d1dbe7d8146104ac578063d547741f146104e1578063f2fde38b146104fd578063f9000ba8146105195761018e565b8063a217fddf14610452578063ab15022614610470578063be747c1c1461048e5761018e565b80634d5f9eba1461037c57806370a08231146103ac578063715018a6146103dc5780638da5cb5b146103e657806391d148541461040457806395d89b41146104345761018e565b80632d5e9d291161014b57806336568abe1161012557806336568abe146102f8578063401853b71461031457806340c10f19146103445780634c3bd9d6146103605761018e565b80632d5e9d29146102905780632f2ff15d146102ac57806335facf78146102c85761018e565b806301ffc9a71461019357806306661abd146101c357806306fdde03146101e15780631840f0ca146101ff578063248a9ca3146102305780632cca4ba714610260575b600080fd5b6101ad60048036038101906101a891906121f0565b610535565b6040516101ba9190612238565b60405180910390f35b6101cb6105af565b6040516101d8919061226c565b60405180910390f35b6101e96105b9565b6040516101f69190612320565b60405180910390f35b6102196004803603810190610214919061236e565b610647565b60405161022792919061239b565b60405180910390f35b61024a600480360381019061024591906123fa565b61082d565b6040516102579190612436565b60405180910390f35b61027a6004803603810190610275919061236e565b61084d565b6040516102879190612320565b60405180910390f35b6102aa60048036038101906102a5919061236e565b6108f5565b005b6102c660048036038101906102c191906124af565b610adb565b005b6102e260048036038101906102dd9190612554565b610afc565b6040516102ef919061226c565b60405180910390f35b610312600480360381019061030d91906124af565b610cec565b005b61032e6004803603810190610329919061236e565b610d6f565b60405161033b919061262b565b60405180910390f35b61035e60048036038101906103599190612646565b610def565b005b61037a6004803603810190610375919061236e565b610f8e565b005b6103966004803603810190610391919061236e565b611174565b6040516103a3919061226c565b60405180910390f35b6103c660048036038101906103c19190612686565b6111e7565b6040516103d3919061226c565b60405180910390f35b6103e4611230565b005b6103ee6112b8565b6040516103fb91906126c2565b60405180910390f35b61041e600480360381019061041991906124af565b6112e1565b60405161042b9190612238565b60405180910390f35b61043c61134c565b6040516104499190612320565b60405180910390f35b61045a6113da565b6040516104679190612436565b60405180910390f35b6104786113e1565b6040516104859190612238565b60405180910390f35b610496611449565b6040516104a3919061226c565b60405180910390f35b6104c660048036038101906104c1919061236e565b61144f565b6040516104d8969594939291906126dd565b60405180910390f35b6104fb60048036038101906104f691906124af565b611540565b005b61051760048036038101906105129190612686565b611561565b005b610533600480360381019061052e9190612771565b611658565b005b60007f7965db0b000000000000000000000000000000000000000000000000000000007bffffffffffffffffffffffffffffffffffffffffffffffffffffffff1916827bffffffffffffffffffffffffffffffffffffffffffffffffffffffff191614806105a857506105a7826119bc565b5b9050919050565b6000600754905090565b600480546105c6906127f3565b80601f01602080910402602001604051908101604052809291908181526020018280546105f2906127f3565b801561063f5780601f106106145761010080835404028352916020019161063f565b820191906000526020600020905b81548152906001019060200180831161062257829003601f168201915b505050505081565b6000806000806000600660008781526020019081526020016000206004018054806020026020016040519081016040528092919081815260200182805480156106e557602002820191906000526020600020905b8160009054906101000a900473ffffffffffffffffffffffffffffffffffffffff1673ffffffffffffffffffffffffffffffffffffffff168152602001906001019080831161069b575b5050505050905060005b815181101561081e57600082828151811061070d5761070c612824565b5b602002602001015190506000600660008a815260200190815260200160002060060160008373ffffffffffffffffffffffffffffffffffffffff1673ffffffffffffffffffffffffffffffffffffffff16815260200190815260200160002060000160019054906101000a900460ff1690506000600660008b815260200190815260200160002060060160008473ffffffffffffffffffffffffffffffffffffffff1673ffffffffffffffffffffffffffffffffffffffff16815260200190815260200160002060010154905060011515821515036107f95780876107f29190612882565b9650610808565b80866108059190612882565b95505b5050508080610816906128d8565b9150506106ef565b50828294509450505050915091565b600060016000838152602001908152602001600020600101549050919050565b6060600660008381526020019081526020016000206003018054610870906127f3565b80601f016020809104026020016040519081016040528092919081815260200182805461089c906127f3565b80156108e95780601f106108be576101008083540402835291602001916108e9565b820191906000526020600020905b8154815290600101906020018083116108cc57829003601f168201915b50505050509050919050565b8060008111801561090857506007548111155b610947576040517f08c379a000000000000000000000000000000000000000000000000000000000815260040161093e9061296c565b60405180910390fd5b61094f611a26565b73ffffffffffffffffffffffffffffffffffffffff1661096d6112b8565b73ffffffffffffffffffffffffffffffffffffffff16146109c3576040517f08c379a00000000000000000000000000000000000000000000000000000000081526004016109ba906129d8565b60405180910390fd5b600060028111156109d7576109d66125b4565b5b6006600084815260200190815260200160002060000160149054906101000a900460ff166002811115610a0d57610a0c6125b4565b5b14610a4d576040517f08c379a0000000000000000000000000000000000000000000000000000000008152600401610a4490612a44565b60405180910390fd5b610a5682611174565b421015610a98576040517f08c379a0000000000000000000000000000000000000000000000000000000008152600401610a8f90612ab0565b60405180910390fd5b60016006600084815260200190815260200160002060000160146101000a81548160ff02191690836002811115610ad257610ad16125b4565b5b02179055505050565b610ae48261082d565b610aed81611a2e565b610af78383611a42565b505050565b6000610b06611a26565b73ffffffffffffffffffffffffffffffffffffffff16610b246112b8565b73ffffffffffffffffffffffffffffffffffffffff1614610b7a576040517f08c379a0000000000000000000000000000000000000000000000000000000008152600401610b71906129d8565b60405180910390fd5b60008211610bbd576040517f08c379a0000000000000000000000000000000000000000000000000000000008152600401610bb490612b1c565b60405180910390fd5b60076000815480929190610bd0906128d8565b919050555060006006600060075481526020019081526020016000209050338160000160006101000a81548173ffffffffffffffffffffffffffffffffffffffff021916908373ffffffffffffffffffffffffffffffffffffffff16021790555060008160000160146101000a81548160ff02191690836002811115610c5957610c586125b4565b5b0217905550600183603c610c6d9190612b3c565b610c779190612b3c565b42610c829190612882565b81600501819055508484826003019190610c9d9291906120eb565b507f781e930fda5896dda55b0c20f29c285b9bedfb112a3a6456d12c63b278537ae033600754878787604051610cd7959493929190612bd2565b60405180910390a16007549150509392505050565b610cf4611a26565b73ffffffffffffffffffffffffffffffffffffffff168173ffffffffffffffffffffffffffffffffffffffff1614610d61576040517f08c379a0000000000000000000000000000000000000000000000000000000008152600401610d5890612c92565b60405180910390fd5b610d6b8282611b22565b5050565b600081600081118015610d8457506007548111155b610dc3576040517f08c379a0000000000000000000000000000000000000000000000000000000008152600401610dba9061296c565b60405180910390fd5b6006600084815260200190815260200160002060000160149054906101000a900460ff16915050919050565b610df7611a26565b73ffffffffffffffffffffffffffffffffffffffff16610e156112b8565b73ffffffffffffffffffffffffffffffffffffffff1614610e6b576040517f08c379a0000000000000000000000000000000000000000000000000000000008152600401610e62906129d8565b60405180910390fd5b600073ffffffffffffffffffffffffffffffffffffffff168273ffffffffffffffffffffffffffffffffffffffff1603610eda576040517f08c379a0000000000000000000000000000000000000000000000000000000008152600401610ed190612cfe565b60405180910390fd5b610eef81600254611c0490919063ffffffff16565b600281905550610f4781600560008573ffffffffffffffffffffffffffffffffffffffff1673ffffffffffffffffffffffffffffffffffffffff16815260200190815260200160002054611c0490919063ffffffff16565b600560008473ffffffffffffffffffffffffffffffffffffffff1673ffffffffffffffffffffffffffffffffffffffff168152602001908152602001600020819055505050565b80600081118015610fa157506007548111155b610fe0576040517f08c379a0000000000000000000000000000000000000000000000000000000008152600401610fd79061296c565b60405180910390fd5b610fe8611a26565b73ffffffffffffffffffffffffffffffffffffffff166110066112b8565b73ffffffffffffffffffffffffffffffffffffffff161461105c576040517f08c379a0000000000000000000000000000000000000000000000000000000008152600401611053906129d8565b60405180910390fd5b600160028111156110705761106f6125b4565b5b6006600084815260200190815260200160002060000160149054906101000a900460ff1660028111156110a6576110a56125b4565b5b146110e6576040517f08c379a00000000000000000000000000000000000000000000000000000000081526004016110dd90612d6a565b60405180910390fd5b6110ef82611174565b421015611131576040517f08c379a000000000000000000000000000000000000000000000000000000000815260040161112890612ab0565b60405180910390fd5b60026006600084815260200190815260200160002060000160146101000a81548160ff0219169083600281111561116b5761116a6125b4565b5b02179055505050565b60008160008111801561118957506007548111155b6111c8576040517f08c379a00000000000000000000000000000000000000000000000000000000081526004016111bf9061296c565b60405180910390fd5b6006600084815260200190815260200160002060050154915050919050565b6000600560008373ffffffffffffffffffffffffffffffffffffffff1673ffffffffffffffffffffffffffffffffffffffff168152602001908152602001600020549050919050565b611238611a26565b73ffffffffffffffffffffffffffffffffffffffff166112566112b8565b73ffffffffffffffffffffffffffffffffffffffff16146112ac576040517f08c379a00000000000000000000000000000000000000000000000000000000081526004016112a3906129d8565b60405180910390fd5b6112b66000611c1a565b565b60008060009054906101000a900473ffffffffffffffffffffffffffffffffffffffff16905090565b60006001600084815260200190815260200160002060000160008373ffffffffffffffffffffffffffffffffffffffff1673ffffffffffffffffffffffffffffffffffffffff16815260200190815260200160002060009054906101000a900460ff16905092915050565b60038054611359906127f3565b80601f0160208091040260200160405190810160405280929190818152602001828054611385906127f3565b80156113d25780601f106113a7576101008083540402835291602001916113d2565b820191906000526020600020905b8154815290600101906020018083116113b557829003601f168201915b505050505081565b6000801b81565b6000600860009054906101000a900473ffffffffffffffffffffffffffffffffffffffff1673ffffffffffffffffffffffffffffffffffffffff163373ffffffffffffffffffffffffffffffffffffffff16036114415760019050611446565b600090505b90565b60075481565b60066020528060005260406000206000915090508060000160009054906101000a900473ffffffffffffffffffffffffffffffffffffffff16908060000160149054906101000a900460ff16908060010154908060020154908060030180546114b7906127f3565b80601f01602080910402602001604051908101604052809291908181526020018280546114e3906127f3565b80156115305780601f1061150557610100808354040283529160200191611530565b820191906000526020600020905b81548152906001019060200180831161151357829003601f168201915b5050505050908060050154905086565b6115498261082d565b61155281611a2e565b61155c8383611b22565b505050565b611569611a26565b73ffffffffffffffffffffffffffffffffffffffff166115876112b8565b73ffffffffffffffffffffffffffffffffffffffff16146115dd576040517f08c379a00000000000000000000000000000000000000000000000000000000081526004016115d4906129d8565b60405180910390fd5b600073ffffffffffffffffffffffffffffffffffffffff168173ffffffffffffffffffffffffffffffffffffffff160361164c576040517f08c379a000000000000000000000000000000000000000000000000000000000815260040161164390612dfc565b60405180910390fd5b61165581611c1a565b50565b8260008111801561166b57506007548111155b6116aa576040517f08c379a00000000000000000000000000000000000000000000000000000000081526004016116a19061296c565b60405180910390fd5b600060028111156116be576116bd6125b4565b5b6116c785610d6f565b60028111156116d9576116d86125b4565b5b14611719576040517f08c379a000000000000000000000000000000000000000000000000000000000815260040161171090612e68565b60405180910390fd5b6117238433611cde565b15611763576040517f08c379a000000000000000000000000000000000000000000000000000000000815260040161175a90612efa565b60405180910390fd5b4261176d85611174565b116117ad576040517f08c379a00000000000000000000000000000000000000000000000000000000081526004016117a490612f8c565b60405180910390fd5b6117ff83600560003373ffffffffffffffffffffffffffffffffffffffff1673ffffffffffffffffffffffffffffffffffffffff16815260200190815260200160002054611d9f90919063ffffffff16565b600560003373ffffffffffffffffffffffffffffffffffffffff1673ffffffffffffffffffffffffffffffffffffffff16815260200190815260200160002081905550600061184d84611db5565b9050600060066000878152602001908152602001600020905060405180606001604052806001151581526020018515158152602001838152508160060160003373ffffffffffffffffffffffffffffffffffffffff1673ffffffffffffffffffffffffffffffffffffffff16815260200190815260200160002060008201518160000160006101000a81548160ff02191690831515021790555060208201518160000160016101000a81548160ff0219169083151502179055506040820151816001015590505080600401339080600181540180825580915050600190039060005260206000200160009091909190916101000a81548173ffffffffffffffffffffffffffffffffffffffff021916908373ffffffffffffffffffffffffffffffffffffffff1602179055507fcb87df07b1c304492bd875a5c8b98672eca500939412809ea229afef1d7451883387846040516119ac93929190612fac565b60405180910390a1505050505050565b60007f01ffc9a7000000000000000000000000000000000000000000000000000000007bffffffffffffffffffffffffffffffffffffffffffffffffffffffff1916827bffffffffffffffffffffffffffffffffffffffffffffffffffffffff1916149050919050565b600033905090565b611a3f81611a3a611a26565b611e12565b50565b611a4c82826112e1565b611b1e57600180600084815260200190815260200160002060000160008373ffffffffffffffffffffffffffffffffffffffff1673ffffffffffffffffffffffffffffffffffffffff16815260200190815260200160002060006101000a81548160ff021916908315150217905550611ac3611a26565b73ffffffffffffffffffffffffffffffffffffffff168173ffffffffffffffffffffffffffffffffffffffff16837f2f8788117e7eff1d82e926ec794901d17c78024a50270940304540a733656f0d60405160405180910390a45b5050565b611b2c82826112e1565b15611c005760006001600084815260200190815260200160002060000160008373ffffffffffffffffffffffffffffffffffffffff1673ffffffffffffffffffffffffffffffffffffffff16815260200190815260200160002060006101000a81548160ff021916908315150217905550611ba5611a26565b73ffffffffffffffffffffffffffffffffffffffff168173ffffffffffffffffffffffffffffffffffffffff16837ff6391f5c32d9c69d2a47ea670b442974b53935d1edc7fd64eb21e047a839171b60405160405180910390a45b5050565b60008183611c129190612882565b905092915050565b60008060009054906101000a900473ffffffffffffffffffffffffffffffffffffffff169050816000806101000a81548173ffffffffffffffffffffffffffffffffffffffff021916908373ffffffffffffffffffffffffffffffffffffffff1602179055508173ffffffffffffffffffffffffffffffffffffffff168173ffffffffffffffffffffffffffffffffffffffff167f8be0079c531659141344cd1fd0a4f28419497f9722a3daafe3b4186f6b6457e060405160405180910390a35050565b600082600081118015611cf357506007548111155b611d32576040517f08c379a0000000000000000000000000000000000000000000000000000000008152600401611d299061296c565b60405180910390fd5b6006600085815260200190815260200160002060060160008473ffffffffffffffffffffffffffffffffffffffff1673ffffffffffffffffffffffffffffffffffffffff16815260200190815260200160002060000160009054906101000a900460ff1691505092915050565b60008183611dad9190612fe3565b905092915050565b6000806002600184611dc79190612882565b611dd19190613046565b90508291505b81811015611e0c578091506002818285611df19190613046565b611dfb9190612882565b611e059190613046565b9050611dd7565b50919050565b611e1c82826112e1565b611eab57611e418173ffffffffffffffffffffffffffffffffffffffff166014611eaf565b611e4f8360001c6020611eaf565b604051602001611e6092919061314b565b6040516020818303038152906040526040517f08c379a0000000000000000000000000000000000000000000000000000000008152600401611ea29190612320565b60405180910390fd5b5050565b606060006002836002611ec29190612b3c565b611ecc9190612882565b67ffffffffffffffff811115611ee557611ee4613185565b5b6040519080825280601f01601f191660200182016040528015611f175781602001600182028036833780820191505090505b5090507f300000000000000000000000000000000000000000000000000000000000000081600081518110611f4f57611f4e612824565b5b60200101907effffffffffffffffffffffffffffffffffffffffffffffffffffffffffffff1916908160001a9053507f780000000000000000000000000000000000000000000000000000000000000081600181518110611fb357611fb2612824565b5b60200101907effffffffffffffffffffffffffffffffffffffffffffffffffffffffffffff1916908160001a90535060006001846002611ff39190612b3c565b611ffd9190612882565b90505b600181111561209d577f3031323334353637383961626364656600000000000000000000000000000000600f86166010811061203f5761203e612824565b5b1a60f81b82828151811061205657612055612824565b5b60200101907effffffffffffffffffffffffffffffffffffffffffffffffffffffffffffff1916908160001a905350600485901c945080612096906131b4565b9050612000565b50600084146120e1576040517f08c379a00000000000000000000000000000000000000000000000000000000081526004016120d890613229565b60405180910390fd5b8091505092915050565b8280546120f7906127f3565b90600052602060002090601f0160209004810192826121195760008555612160565b82601f1061213257803560ff1916838001178555612160565b82800160010185558215612160579182015b8281111561215f578235825591602001919060010190612144565b5b50905061216d9190612171565b5090565b5b8082111561218a576000816000905550600101612172565b5090565b600080fd5b600080fd5b60007fffffffff0000000000000000000000000000000000000000000000000000000082169050919050565b6121cd81612198565b81146121d857600080fd5b50565b6000813590506121ea816121c4565b92915050565b6000602082840312156122065761220561218e565b5b6000612214848285016121db565b91505092915050565b60008115159050919050565b6122328161221d565b82525050565b600060208201905061224d6000830184612229565b92915050565b6000819050919050565b61226681612253565b82525050565b6000602082019050612281600083018461225d565b92915050565b600081519050919050565b600082825260208201905092915050565b60005b838110156122c15780820151818401526020810190506122a6565b838111156122d0576000848401525b50505050565b6000601f19601f8301169050919050565b60006122f282612287565b6122fc8185612292565b935061230c8185602086016122a3565b612315816122d6565b840191505092915050565b6000602082019050818103600083015261233a81846122e7565b905092915050565b61234b81612253565b811461235657600080fd5b50565b60008135905061236881612342565b92915050565b6000602082840312156123845761238361218e565b5b600061239284828501612359565b91505092915050565b60006040820190506123b0600083018561225d565b6123bd602083018461225d565b9392505050565b6000819050919050565b6123d7816123c4565b81146123e257600080fd5b50565b6000813590506123f4816123ce565b92915050565b6000602082840312156124105761240f61218e565b5b600061241e848285016123e5565b91505092915050565b612430816123c4565b82525050565b600060208201905061244b6000830184612427565b92915050565b600073ffffffffffffffffffffffffffffffffffffffff82169050919050565b600061247c82612451565b9050919050565b61248c81612471565b811461249757600080fd5b50565b6000813590506124a981612483565b92915050565b600080604083850312156124c6576124c561218e565b5b60006124d4858286016123e5565b92505060206124e58582860161249a565b9150509250929050565b600080fd5b600080fd5b600080fd5b60008083601f840112612514576125136124ef565b5b8235905067ffffffffffffffff811115612531576125306124f4565b5b60208301915083600182028301111561254d5761254c6124f9565b5b9250929050565b60008060006040848603121561256d5761256c61218e565b5b600084013567ffffffffffffffff81111561258b5761258a612193565b5b612597868287016124fe565b935093505060206125aa86828701612359565b9150509250925092565b7f4e487b7100000000000000000000000000000000000000000000000000000000600052602160045260246000fd5b600381106125f4576125f36125b4565b5b50565b6000819050612605826125e3565b919050565b6000612615826125f7565b9050919050565b6126258161260a565b82525050565b6000602082019050612640600083018461261c565b92915050565b6000806040838503121561265d5761265c61218e565b5b600061266b8582860161249a565b925050602061267c85828601612359565b9150509250929050565b60006020828403121561269c5761269b61218e565b5b60006126aa8482850161249a565b91505092915050565b6126bc81612471565b82525050565b60006020820190506126d760008301846126b3565b92915050565b600060c0820190506126f260008301896126b3565b6126ff602083018861261c565b61270c604083018761225d565b612719606083018661225d565b818103608083015261272b81856122e7565b905061273a60a083018461225d565b979650505050505050565b61274e8161221d565b811461275957600080fd5b50565b60008135905061276b81612745565b92915050565b60008060006060848603121561278a5761278961218e565b5b600061279886828701612359565b93505060206127a986828701612359565b92505060406127ba8682870161275c565b9150509250925092565b7f4e487b7100000000000000000000000000000000000000000000000000000000600052602260045260246000fd5b6000600282049050600182168061280b57607f821691505b60208210810361281e5761281d6127c4565b5b50919050565b7f4e487b7100000000000000000000000000000000000000000000000000000000600052603260045260246000fd5b7f4e487b7100000000000000000000000000000000000000000000000000000000600052601160045260246000fd5b600061288d82612253565b915061289883612253565b9250827fffffffffffffffffffffffffffffffffffffffffffffffffffffffffffffffff038211156128cd576128cc612853565b5b828201905092915050565b60006128e382612253565b91507fffffffffffffffffffffffffffffffffffffffffffffffffffffffffffffffff820361291557612914612853565b5b600182019050919050565b7f4e6f7420612076616c69642050726f706f73616c204964000000000000000000600082015250565b6000612956601783612292565b915061296182612920565b602082019050919050565b6000602082019050818103600083015261298581612949565b9050919050565b7f4f776e61626c653a2063616c6c6572206973206e6f7420746865206f776e6572600082015250565b60006129c2602083612292565b91506129cd8261298c565b602082019050919050565b600060208201905081810360008301526129f1816129b5565b9050919050565b7f566f7465206973206e6f7420696e2070726f6772657373000000000000000000600082015250565b6000612a2e601783612292565b9150612a39826129f8565b602082019050919050565b60006020820190508181036000830152612a5d81612a21565b9050919050565b7f766f74696e6720706572696f6420686173206e6f742065787069726564000000600082015250565b6000612a9a601d83612292565b9150612aa582612a64565b602082019050919050565b60006020820190508181036000830152612ac981612a8d565b9050919050565b7f54686520766f74696e6720706572696f642063616e6e6f742062652030000000600082015250565b6000612b06601d83612292565b9150612b1182612ad0565b602082019050919050565b60006020820190508181036000830152612b3581612af9565b9050919050565b6000612b4782612253565b9150612b5283612253565b9250817fffffffffffffffffffffffffffffffffffffffffffffffffffffffffffffffff0483118215151615612b8b57612b8a612853565b5b828202905092915050565b82818337600083830152505050565b6000612bb18385612292565b9350612bbe838584612b96565b612bc7836122d6565b840190509392505050565b6000608082019050612be760008301886126b3565b612bf4602083018761225d565b8181036040830152612c07818587612ba5565b9050612c16606083018461225d565b9695505050505050565b7f416363657373436f6e74726f6c3a2063616e206f6e6c792072656e6f756e636560008201527f20726f6c657320666f722073656c660000000000000000000000000000000000602082015250565b6000612c7c602f83612292565b9150612c8782612c20565b604082019050919050565b60006020820190508181036000830152612cab81612c6f565b9050919050565b7f206d696e7420746f20746865207a65726f206164647265737300000000000000600082015250565b6000612ce8601983612292565b9150612cf382612cb2565b602082019050919050565b60006020820190508181036000830152612d1781612cdb565b9050919050565b7f50726f706f73616c2073686f756c6420626520696e2074616c6c790000000000600082015250565b6000612d54601b83612292565b9150612d5f82612d1e565b602082019050919050565b60006020820190508181036000830152612d8381612d47565b9050919050565b7f4f776e61626c653a206e6577206f776e657220697320746865207a65726f206160008201527f6464726573730000000000000000000000000000000000000000000000000000602082015250565b6000612de6602683612292565b9150612df182612d8a565b604082019050919050565b60006020820190508181036000830152612e1581612dd9565b9050919050565b7f70726f706f73616c2068617320657870697265642e0000000000000000000000600082015250565b6000612e52601583612292565b9150612e5d82612e1c565b602082019050919050565b60006020820190508181036000830152612e8181612e45565b9050919050565b7f7573657220616c726561647920766f746564206f6e20746869732070726f706f60008201527f73616c0000000000000000000000000000000000000000000000000000000000602082015250565b6000612ee4602383612292565b9150612eef82612e88565b604082019050919050565b60006020820190508181036000830152612f1381612ed7565b9050919050565b7f666f7220746869732070726f706f73616c2c2074686520766f74696e6720746960008201527f6d65206578706972656400000000000000000000000000000000000000000000602082015250565b6000612f76602a83612292565b9150612f8182612f1a565b604082019050919050565b60006020820190508181036000830152612fa581612f69565b9050919050565b6000606082019050612fc160008301866126b3565b612fce602083018561225d565b612fdb604083018461225d565b949350505050565b6000612fee82612253565b9150612ff983612253565b92508282101561300c5761300b612853565b5b828203905092915050565b7f4e487b7100000000000000000000000000000000000000000000000000000000600052601260045260246000fd5b600061305182612253565b915061305c83612253565b92508261306c5761306b613017565b5b828204905092915050565b600081905092915050565b7f416363657373436f6e74726f6c3a206163636f756e7420000000000000000000600082015250565b60006130b8601783613077565b91506130c382613082565b601782019050919050565b60006130d982612287565b6130e38185613077565b93506130f38185602086016122a3565b80840191505092915050565b7f206973206d697373696e6720726f6c6520000000000000000000000000000000600082015250565b6000613135601183613077565b9150613140826130ff565b601182019050919050565b6000613156826130ab565b915061316282856130ce565b915061316d82613128565b915061317982846130ce565b91508190509392505050565b7f4e487b7100000000000000000000000000000000000000000000000000000000600052604160045260246000fd5b60006131bf82612253565b9150600082036131d2576131d1612853565b5b600182039050919050565b7f537472696e67733a20686578206c656e67746820696e73756666696369656e74600082015250565b6000613213602083612292565b915061321e826131dd565b602082019050919050565b6000602082019050818103600083015261324281613206565b905091905056fea264697066735822122033568fdf6e3afe95fd64ca5e44033acb2ca4392756bde577c283655ae1e03b4664736f6c634300080e0033",
  "immutableReferences": {},
  "source": "// SPDX-License-Identifier: MIT\r\npragma solidity ^0.8.0;\r\n\r\nimport \"@openzeppelin/contracts/utils/math/SafeMath.sol\";\r\nimport \"@openzeppelin/contracts/access/Ownable.sol\";\r\nimport \"@openzeppelin/contracts/access/AccessControl.sol\";\r\n\r\n/**\r\n * @title QVVoting\r\n * @dev the manager for proposals / votes\r\n */\r\ncontract QVVoting is Ownable, AccessControl {\r\n    using SafeMath for uint256;\r\n\r\n    uint256 private _totalSupply;\r\n    string public symbol;\r\n    string public name;\r\n    mapping(address => uint256) private _balances;\r\n\r\n    event VoteCasted(address voter, uint256 ProposalID, uint256 weight);\r\n\r\n    event ProposalCreated(\r\n        address creator,\r\n        uint256 ProposalID,\r\n        string description,\r\n        uint256 votingTimeInHours\r\n    );\r\n\r\n    enum ProposalStatus {\r\n        IN_PROGRESS,\r\n        TALLY,\r\n        ENDED\r\n    }\r\n\r\n    struct Proposal {\r\n        address creator;\r\n        ProposalStatus status;\r\n        uint256 yesVotes;\r\n        uint256 noVotes;\r\n        string description;\r\n        address[] voters;\r\n        uint256 expirationTime;\r\n        mapping(address => Voter) voterInfo;\r\n    }\r\n\r\n    struct Voter {\r\n        bool hasVoted;\r\n        bool vote;\r\n        uint256 weight;\r\n    }\r\n\r\n    mapping(uint256 => Proposal) public Proposals;\r\n    uint256 public ProposalCount;\r\n\r\n    address private Owner;\r\n\r\n    constructor() public {\r\n        symbol = \"QVV\";\r\n        name = \"QV Voting\";\r\n        Owner = msg.sender;\r\n    }\r\n\r\n    function getDesc(uint256 proposalID) public view returns (string memory) {\r\n        return Proposals[proposalID].description;\r\n    }\r\n\r\n    function checkAdmin() public view returns (bool) {\r\n        if (msg.sender == Owner) {\r\n            return true;\r\n        }\r\n        return false;\r\n    }\r\n\r\n    function count() public view returns (uint256) {\r\n        return ProposalCount;\r\n    }\r\n\r\n    /**\r\n     * @dev Creates a new proposal.\r\n     * @param _description the text of the proposal\r\n     * @param _voteExpirationTime expiration time in minutes\r\n     */\r\n    function createProposal(\r\n        string calldata _description,\r\n        uint256 _voteExpirationTime\r\n    ) external onlyOwner returns (uint256) {\r\n        require(_voteExpirationTime > 0, \"The voting period cannot be 0\");\r\n        ProposalCount++;\r\n\r\n        Proposal storage curProposal = Proposals[ProposalCount];\r\n        curProposal.creator = msg.sender;\r\n        curProposal.status = ProposalStatus.IN_PROGRESS;\r\n        curProposal.expirationTime =\r\n            block.timestamp +\r\n            60 *\r\n            _voteExpirationTime *\r\n            1 seconds;\r\n        curProposal.description = _description;\r\n\r\n        emit ProposalCreated(\r\n            msg.sender,\r\n            ProposalCount,\r\n            _description,\r\n            _voteExpirationTime\r\n        );\r\n        return ProposalCount;\r\n    }\r\n\r\n    /**\r\n     * @dev sets a proposal to TALLY.\r\n     * @param _ProposalID the proposal id\r\n     */\r\n    function setProposalToTally(uint256 _ProposalID)\r\n        external\r\n        validProposal(_ProposalID)\r\n        onlyOwner\r\n    {\r\n        require(\r\n            Proposals[_ProposalID].status == ProposalStatus.IN_PROGRESS,\r\n            \"Vote is not in progress\"\r\n        );\r\n        require(\r\n            block.timestamp >= getProposalExpirationTime(_ProposalID),\r\n            \"voting period has not expired\"\r\n        );\r\n        Proposals[_ProposalID].status = ProposalStatus.TALLY;\r\n    }\r\n\r\n    /**\r\n     * @dev sets a proposal to ENDED.\r\n     * @param _ProposalID the proposal id\r\n     */\r\n    function setProposalToEnded(uint256 _ProposalID)\r\n        external\r\n        validProposal(_ProposalID)\r\n        onlyOwner\r\n    {\r\n        require(\r\n            Proposals[_ProposalID].status == ProposalStatus.TALLY,\r\n            \"Proposal should be in tally\"\r\n        );\r\n        require(\r\n            block.timestamp >= getProposalExpirationTime(_ProposalID),\r\n            \"voting period has not expired\"\r\n        );\r\n        Proposals[_ProposalID].status = ProposalStatus.ENDED;\r\n    }\r\n\r\n    /**\r\n     * @dev returns the status of a proposal\r\n     * @param _ProposalID the proposal id\r\n     */\r\n    function getProposalStatus(uint256 _ProposalID)\r\n        public\r\n        view\r\n        validProposal(_ProposalID)\r\n        returns (ProposalStatus)\r\n    {\r\n        return Proposals[_ProposalID].status;\r\n    }\r\n\r\n    /**\r\n     * @dev returns a proposal expiration time\r\n     * @param _ProposalID the proposal id\r\n     */\r\n    function getProposalExpirationTime(uint256 _ProposalID)\r\n        public\r\n        view\r\n        validProposal(_ProposalID)\r\n        returns (uint256)\r\n    {\r\n        return Proposals[_ProposalID].expirationTime;\r\n    }\r\n\r\n    /**\r\n     * @dev counts the votes for a proposal. Returns (yeays, nays)\r\n     * @param _ProposalID the proposal id\r\n     */\r\n    function countVotes(uint256 _ProposalID)\r\n        public\r\n        view\r\n        returns (uint256, uint256)\r\n    {\r\n        uint256 yesVotes = 0;\r\n        uint256 noVotes = 0;\r\n\r\n        address[] memory voters = Proposals[_ProposalID].voters;\r\n        for (uint256 i = 0; i < voters.length; i++) {\r\n            address voter = voters[i];\r\n            bool vote = Proposals[_ProposalID].voterInfo[voter].vote;\r\n            uint256 weight = Proposals[_ProposalID].voterInfo[voter].weight;\r\n            if (vote == true) {\r\n                yesVotes += weight;\r\n            } else {\r\n                noVotes += weight;\r\n            }\r\n        }\r\n\r\n        return (yesVotes, noVotes);\r\n    }\r\n\r\n    /**\r\n     * @dev casts a vote.\r\n     * @param _ProposalID the proposal id\r\n     * @param numTokens number of voice credits\r\n     * @param _vote true for yes, false for no\r\n     */\r\n    function castVote(\r\n        uint256 _ProposalID,\r\n        uint256 numTokens,\r\n        bool _vote\r\n    ) external validProposal(_ProposalID) {\r\n        require(\r\n            getProposalStatus(_ProposalID) == ProposalStatus.IN_PROGRESS,\r\n            \"proposal has expired.\"\r\n        );\r\n        require(\r\n            !userHasVoted(_ProposalID, msg.sender),\r\n            \"user already voted on this proposal\"\r\n        );\r\n        require(\r\n            getProposalExpirationTime(_ProposalID) > block.timestamp,\r\n            \"for this proposal, the voting time expired\"\r\n        );\r\n\r\n        _balances[msg.sender] = _balances[msg.sender].sub(numTokens);\r\n\r\n        uint256 weight = sqrt(numTokens); // QV Vote\r\n\r\n        Proposal storage curproposal = Proposals[_ProposalID];\r\n\r\n        curproposal.voterInfo[msg.sender] = Voter({\r\n            hasVoted: true,\r\n            vote: _vote,\r\n            weight: weight\r\n        });\r\n\r\n        curproposal.voters.push(msg.sender);\r\n\r\n        emit VoteCasted(msg.sender, _ProposalID, weight);\r\n    }\r\n\r\n    /**\r\n     * @dev checks if a user has voted\r\n     * @param _ProposalID the proposal id\r\n     * @param _user the address of a voter\r\n     */\r\n    function userHasVoted(uint256 _ProposalID, address _user)\r\n        internal\r\n        view\r\n        validProposal(_ProposalID)\r\n        returns (bool)\r\n    {\r\n        return (Proposals[_ProposalID].voterInfo[_user].hasVoted);\r\n    }\r\n\r\n    /**\r\n     * @dev checks if a proposal id is valid\r\n     * @param _ProposalID the proposal id\r\n     */\r\n    modifier validProposal(uint256 _ProposalID) {\r\n        require(\r\n            _ProposalID > 0 && _ProposalID <= ProposalCount,\r\n            \"Not a valid Proposal Id\"\r\n        );\r\n        _;\r\n    }\r\n\r\n    /**\r\n     * @dev returns the square root (in int) of a number\r\n     * @param x the number (int)\r\n     */\r\n    function sqrt(uint256 x) internal pure returns (uint256 y) {\r\n        uint256 z = (x + 1) / 2;\r\n        y = x;\r\n        while (z < y) {\r\n            y = z;\r\n            z = (x / z + z) / 2;\r\n        }\r\n    }\r\n\r\n    /**\r\n     * @dev minting more tokens for an account\r\n     */\r\n    function mint(address account, uint256 amount) public onlyOwner {\r\n        require(account != address(0), \" mint to the zero address\");\r\n        _totalSupply = _totalSupply.add(amount);\r\n        _balances[account] = _balances[account].add(amount);\r\n    }\r\n\r\n    /**\r\n     * @dev returns the balance of an account\r\n     */\r\n    function balanceOf(address account) public view returns (uint256) {\r\n        return _balances[account];\r\n    }\r\n}\r\n",
  "sourcePath": "C:\\Users\\sande\\Desktop\\quadratic_voting\\frontend\\truffle\\contracts\\QVVoting.sol",
  "compiler": {
    "name": "solc",
    "version": "0.8.14+commit.80d49f37.Emscripten.clang"
  },
  "schemaVersion": "3.4.7",
  "updatedAt": "2022-06-28T08:26:49.200Z",
  "networkType": "ethereum",
  "devdoc": {
    "details": "the manager for proposals / votes",
    "kind": "dev",
    "methods": {
      "balanceOf(address)": {
        "details": "returns the balance of an account"
      },
      "castVote(uint256,uint256,bool)": {
        "details": "casts a vote.",
        "params": {
          "_ProposalID": "the proposal id",
          "_vote": "true for yes, false for no",
          "numTokens": "number of voice credits"
        }
      },
      "countVotes(uint256)": {
        "details": "counts the votes for a proposal. Returns (yeays, nays)",
        "params": {
          "_ProposalID": "the proposal id"
        }
      },
      "createProposal(string,uint256)": {
        "details": "Creates a new proposal.",
        "params": {
          "_description": "the text of the proposal",
          "_voteExpirationTime": "expiration time in minutes"
        }
      },
      "getProposalExpirationTime(uint256)": {
        "details": "returns a proposal expiration time",
        "params": {
          "_ProposalID": "the proposal id"
        }
      },
      "getProposalStatus(uint256)": {
        "details": "returns the status of a proposal",
        "params": {
          "_ProposalID": "the proposal id"
        }
      },
      "getRoleAdmin(bytes32)": {
        "details": "Returns the admin role that controls `role`. See {grantRole} and {revokeRole}. To change a role's admin, use {_setRoleAdmin}."
      },
      "grantRole(bytes32,address)": {
        "details": "Grants `role` to `account`. If `account` had not been already granted `role`, emits a {RoleGranted} event. Requirements: - the caller must have ``role``'s admin role."
      },
      "hasRole(bytes32,address)": {
        "details": "Returns `true` if `account` has been granted `role`."
      },
      "mint(address,uint256)": {
        "details": "minting more tokens for an account"
      },
      "owner()": {
        "details": "Returns the address of the current owner."
      },
      "renounceOwnership()": {
        "details": "Leaves the contract without owner. It will not be possible to call `onlyOwner` functions anymore. Can only be called by the current owner. NOTE: Renouncing ownership will leave the contract without an owner, thereby removing any functionality that is only available to the owner."
      },
      "renounceRole(bytes32,address)": {
        "details": "Revokes `role` from the calling account. Roles are often managed via {grantRole} and {revokeRole}: this function's purpose is to provide a mechanism for accounts to lose their privileges if they are compromised (such as when a trusted device is misplaced). If the calling account had been revoked `role`, emits a {RoleRevoked} event. Requirements: - the caller must be `account`."
      },
      "revokeRole(bytes32,address)": {
        "details": "Revokes `role` from `account`. If `account` had been granted `role`, emits a {RoleRevoked} event. Requirements: - the caller must have ``role``'s admin role."
      },
      "setProposalToEnded(uint256)": {
        "details": "sets a proposal to ENDED.",
        "params": {
          "_ProposalID": "the proposal id"
        }
      },
      "setProposalToTally(uint256)": {
        "details": "sets a proposal to TALLY.",
        "params": {
          "_ProposalID": "the proposal id"
        }
      },
      "supportsInterface(bytes4)": {
        "details": "See {IERC165-supportsInterface}."
      },
      "transferOwnership(address)": {
        "details": "Transfers ownership of the contract to a new account (`newOwner`). Can only be called by the current owner."
      }
    },
    "title": "QVVoting",
    "version": 1
  },
  "userdoc": {
    "kind": "user",
    "methods": {},
    "version": 1
  }
}