{
  "contractName": "QVVoting",
  "abi": [
    {
      "inputs": [],
      "stateMutability": "nonpayable",
      "type": "constructor"
    },
    {
      "anonymous": false,
      "inputs": [
        {
          "indexed": true,
          "internalType": "address",
          "name": "previousOwner",
          "type": "address"
        },
        {
          "indexed": true,
          "internalType": "address",
          "name": "newOwner",
          "type": "address"
        }
      ],
      "name": "OwnershipTransferred",
      "type": "event"
    },
    {
      "anonymous": false,
      "inputs": [
        {
          "indexed": false,
          "internalType": "address",
          "name": "creator",
          "type": "address"
        },
        {
          "indexed": false,
          "internalType": "uint256",
          "name": "ProposalID",
          "type": "uint256"
        },
        {
          "indexed": false,
          "internalType": "string",
          "name": "description",
          "type": "string"
        },
        {
          "indexed": false,
          "internalType": "uint256",
          "name": "votingTimeInHours",
          "type": "uint256"
        }
      ],
      "name": "ProposalCreated",
      "type": "event"
    },
    {
      "anonymous": false,
      "inputs": [
        {
          "indexed": true,
          "internalType": "bytes32",
          "name": "role",
          "type": "bytes32"
        },
        {
          "indexed": true,
          "internalType": "bytes32",
          "name": "previousAdminRole",
          "type": "bytes32"
        },
        {
          "indexed": true,
          "internalType": "bytes32",
          "name": "newAdminRole",
          "type": "bytes32"
        }
      ],
      "name": "RoleAdminChanged",
      "type": "event"
    },
    {
      "anonymous": false,
      "inputs": [
        {
          "indexed": true,
          "internalType": "bytes32",
          "name": "role",
          "type": "bytes32"
        },
        {
          "indexed": true,
          "internalType": "address",
          "name": "account",
          "type": "address"
        },
        {
          "indexed": true,
          "internalType": "address",
          "name": "sender",
          "type": "address"
        }
      ],
      "name": "RoleGranted",
      "type": "event"
    },
    {
      "anonymous": false,
      "inputs": [
        {
          "indexed": true,
          "internalType": "bytes32",
          "name": "role",
          "type": "bytes32"
        },
        {
          "indexed": true,
          "internalType": "address",
          "name": "account",
          "type": "address"
        },
        {
          "indexed": true,
          "internalType": "address",
          "name": "sender",
          "type": "address"
        }
      ],
      "name": "RoleRevoked",
      "type": "event"
    },
    {
      "anonymous": false,
      "inputs": [
        {
          "indexed": false,
          "internalType": "address",
          "name": "voter",
          "type": "address"
        },
        {
          "indexed": false,
          "internalType": "uint256",
          "name": "ProposalID",
          "type": "uint256"
        },
        {
          "indexed": false,
          "internalType": "uint256",
          "name": "weight",
          "type": "uint256"
        }
      ],
      "name": "VoteCasted",
      "type": "event"
    },
    {
      "inputs": [],
      "name": "DEFAULT_ADMIN_ROLE",
      "outputs": [
        {
          "internalType": "bytes32",
          "name": "",
          "type": "bytes32"
        }
      ],
      "stateMutability": "view",
      "type": "function",
      "constant": true
    },
    {
      "inputs": [],
      "name": "ProposalCount",
      "outputs": [
        {
          "internalType": "uint256",
          "name": "",
          "type": "uint256"
        }
      ],
      "stateMutability": "view",
      "type": "function",
      "constant": true
    },
    {
      "inputs": [
        {
          "internalType": "uint256",
          "name": "",
          "type": "uint256"
        }
      ],
      "name": "Proposals",
      "outputs": [
        {
          "internalType": "address",
          "name": "creator",
          "type": "address"
        },
        {
          "internalType": "enum QVVoting.ProposalStatus",
          "name": "status",
          "type": "uint8"
        },
        {
          "internalType": "uint256",
          "name": "yesVotes",
          "type": "uint256"
        },
        {
          "internalType": "uint256",
          "name": "noVotes",
          "type": "uint256"
        },
        {
          "internalType": "string",
          "name": "description",
          "type": "string"
        },
        {
          "internalType": "uint256",
          "name": "expirationTime",
          "type": "uint256"
        }
      ],
      "stateMutability": "view",
      "type": "function",
      "constant": true
    },
    {
      "inputs": [
        {
          "internalType": "bytes32",
          "name": "role",
          "type": "bytes32"
        }
      ],
      "name": "getRoleAdmin",
      "outputs": [
        {
          "internalType": "bytes32",
          "name": "",
          "type": "bytes32"
        }
      ],
      "stateMutability": "view",
      "type": "function",
      "constant": true
    },
    {
      "inputs": [
        {
          "internalType": "bytes32",
          "name": "role",
          "type": "bytes32"
        },
        {
          "internalType": "address",
          "name": "account",
          "type": "address"
        }
      ],
      "name": "grantRole",
      "outputs": [],
      "stateMutability": "nonpayable",
      "type": "function"
    },
    {
      "inputs": [
        {
          "internalType": "bytes32",
          "name": "role",
          "type": "bytes32"
        },
        {
          "internalType": "address",
          "name": "account",
          "type": "address"
        }
      ],
      "name": "hasRole",
      "outputs": [
        {
          "internalType": "bool",
          "name": "",
          "type": "bool"
        }
      ],
      "stateMutability": "view",
      "type": "function",
      "constant": true
    },
    {
      "inputs": [],
      "name": "name",
      "outputs": [
        {
          "internalType": "string",
          "name": "",
          "type": "string"
        }
      ],
      "stateMutability": "view",
      "type": "function",
      "constant": true
    },
    {
      "inputs": [],
      "name": "owner",
      "outputs": [
        {
          "internalType": "address",
          "name": "",
          "type": "address"
        }
      ],
      "stateMutability": "view",
      "type": "function",
      "constant": true
    },
    {
      "inputs": [],
      "name": "renounceOwnership",
      "outputs": [],
      "stateMutability": "nonpayable",
      "type": "function"
    },
    {
      "inputs": [
        {
          "internalType": "bytes32",
          "name": "role",
          "type": "bytes32"
        },
        {
          "internalType": "address",
          "name": "account",
          "type": "address"
        }
      ],
      "name": "renounceRole",
      "outputs": [],
      "stateMutability": "nonpayable",
      "type": "function"
    },
    {
      "inputs": [
        {
          "internalType": "bytes32",
          "name": "role",
          "type": "bytes32"
        },
        {
          "internalType": "address",
          "name": "account",
          "type": "address"
        }
      ],
      "name": "revokeRole",
      "outputs": [],
      "stateMutability": "nonpayable",
      "type": "function"
    },
    {
      "inputs": [
        {
          "internalType": "bytes4",
          "name": "interfaceId",
          "type": "bytes4"
        }
      ],
      "name": "supportsInterface",
      "outputs": [
        {
          "internalType": "bool",
          "name": "",
          "type": "bool"
        }
      ],
      "stateMutability": "view",
      "type": "function",
      "constant": true
    },
    {
      "inputs": [],
      "name": "symbol",
      "outputs": [
        {
          "internalType": "string",
          "name": "",
          "type": "string"
        }
      ],
      "stateMutability": "view",
      "type": "function",
      "constant": true
    },
    {
      "inputs": [
        {
          "internalType": "address",
          "name": "newOwner",
          "type": "address"
        }
      ],
      "name": "transferOwnership",
      "outputs": [],
      "stateMutability": "nonpayable",
      "type": "function"
    },
    {
      "inputs": [],
      "name": "count",
      "outputs": [
        {
          "internalType": "uint256",
          "name": "",
          "type": "uint256"
        }
      ],
      "stateMutability": "view",
      "type": "function",
      "constant": true
    },
    {
      "inputs": [
        {
          "internalType": "string",
          "name": "_description",
          "type": "string"
        },
        {
          "internalType": "uint256",
          "name": "_voteExpirationTime",
          "type": "uint256"
        }
      ],
      "name": "createProposal",
      "outputs": [
        {
          "internalType": "uint256",
          "name": "",
          "type": "uint256"
        }
      ],
      "stateMutability": "nonpayable",
      "type": "function"
    },
    {
      "inputs": [
        {
          "internalType": "uint256",
          "name": "_ProposalID",
          "type": "uint256"
        }
      ],
      "name": "setProposalToTally",
      "outputs": [],
      "stateMutability": "nonpayable",
      "type": "function"
    },
    {
      "inputs": [
        {
          "internalType": "uint256",
          "name": "_ProposalID",
          "type": "uint256"
        }
      ],
      "name": "setProposalToEnded",
      "outputs": [],
      "stateMutability": "nonpayable",
      "type": "function"
    },
    {
      "inputs": [
        {
          "internalType": "uint256",
          "name": "_ProposalID",
          "type": "uint256"
        }
      ],
      "name": "getProposalStatus",
      "outputs": [
        {
          "internalType": "enum QVVoting.ProposalStatus",
          "name": "",
          "type": "uint8"
        }
      ],
      "stateMutability": "view",
      "type": "function",
      "constant": true
    },
    {
      "inputs": [
        {
          "internalType": "uint256",
          "name": "_ProposalID",
          "type": "uint256"
        }
      ],
      "name": "getProposalExpirationTime",
      "outputs": [
        {
          "internalType": "uint256",
          "name": "",
          "type": "uint256"
        }
      ],
      "stateMutability": "view",
      "type": "function",
      "constant": true
    },
    {
      "inputs": [
        {
          "internalType": "uint256",
          "name": "_ProposalID",
          "type": "uint256"
        }
      ],
      "name": "countVotes",
      "outputs": [
        {
          "internalType": "uint256",
          "name": "",
          "type": "uint256"
        },
        {
          "internalType": "uint256",
          "name": "",
          "type": "uint256"
        }
      ],
      "stateMutability": "view",
      "type": "function",
      "constant": true
    },
    {
      "inputs": [
        {
          "internalType": "uint256",
          "name": "_ProposalID",
          "type": "uint256"
        },
        {
          "internalType": "uint256",
          "name": "numTokens",
          "type": "uint256"
        },
        {
          "internalType": "bool",
          "name": "_vote",
          "type": "bool"
        }
      ],
      "name": "castVote",
      "outputs": [],
      "stateMutability": "nonpayable",
      "type": "function"
    },
    {
      "inputs": [
        {
          "internalType": "address",
          "name": "account",
          "type": "address"
        },
        {
          "internalType": "uint256",
          "name": "amount",
          "type": "uint256"
        }
      ],
      "name": "mint",
      "outputs": [],
      "stateMutability": "nonpayable",
      "type": "function"
    },
    {
      "inputs": [
        {
          "internalType": "address",
          "name": "account",
          "type": "address"
        }
      ],
      "name": "balanceOf",
      "outputs": [
        {
          "internalType": "uint256",
          "name": "",
          "type": "uint256"
        }
      ],
      "stateMutability": "view",
      "type": "function",
      "constant": true
    }
  ],
  "bytecode": "0x60806040523480156200001157600080fd5b506200003262000026620000d460201b60201c565b620000dc60201b60201c565b6040518060400160405280600381526020017f5156560000000000000000000000000000000000000000000000000000000000815250600390805190602001906200007f929190620001a0565b506040518060400160405280600981526020017f515620566f74696e67000000000000000000000000000000000000000000000081525060049080519060200190620000cd929190620001a0565b50620002b4565b600033905090565b60008060009054906101000a900473ffffffffffffffffffffffffffffffffffffffff169050816000806101000a81548173ffffffffffffffffffffffffffffffffffffffff021916908373ffffffffffffffffffffffffffffffffffffffff1602179055508173ffffffffffffffffffffffffffffffffffffffff168173ffffffffffffffffffffffffffffffffffffffff167f8be0079c531659141344cd1fd0a4f28419497f9722a3daafe3b4186f6b6457e060405160405180910390a35050565b828054620001ae906200027f565b90600052602060002090601f016020900481019282620001d257600085556200021e565b82601f10620001ed57805160ff19168380011785556200021e565b828001600101855582156200021e579182015b828111156200021d57825182559160200191906001019062000200565b5b5090506200022d919062000231565b5090565b5b808211156200024c57600081600090555060010162000232565b5090565b7f4e487b7100000000000000000000000000000000000000000000000000000000600052602260045260246000fd5b600060028204905060018216806200029857607f821691505b602082108103620002ae57620002ad62000250565b5b50919050565b6130eb80620002c46000396000f3fe608060405234801561001057600080fd5b50600436106101585760003560e01c80634d5f9eba116100c3578063a217fddf1161007c578063a217fddf146103ec578063be747c1c1461040a578063d1dbe7d814610428578063d547741f1461045d578063f2fde38b14610479578063f9000ba81461049557610158565b80634d5f9eba1461031657806370a0823114610346578063715018a6146103765780638da5cb5b1461038057806391d148541461039e57806395d89b41146103ce57610158565b80632f2ff15d116101155780632f2ff15d1461024657806335facf781461026257806336568abe14610292578063401853b7146102ae57806340c10f19146102de5780634c3bd9d6146102fa57610158565b806301ffc9a71461015d57806306661abd1461018d57806306fdde03146101ab5780631840f0ca146101c9578063248a9ca3146101fa5780632d5e9d291461022a575b600080fd5b6101776004803603810190610172919061205c565b6104b1565b60405161018491906120a4565b60405180910390f35b61019561052b565b6040516101a291906120d8565b60405180910390f35b6101b3610535565b6040516101c0919061218c565b60405180910390f35b6101e360048036038101906101de91906121da565b6105c3565b6040516101f1929190612207565b60405180910390f35b610214600480360381019061020f9190612266565b6107a9565b60405161022191906122a2565b60405180910390f35b610244600480360381019061023f91906121da565b6107c9565b005b610260600480360381019061025b919061231b565b6109af565b005b61027c600480360381019061027791906123c0565b6109d0565b60405161028991906120d8565b60405180910390f35b6102ac60048036038101906102a7919061231b565b610bc0565b005b6102c860048036038101906102c391906121da565b610c43565b6040516102d59190612497565b60405180910390f35b6102f860048036038101906102f391906124b2565b610cc3565b005b610314600480360381019061030f91906121da565b610e62565b005b610330600480360381019061032b91906121da565b611048565b60405161033d91906120d8565b60405180910390f35b610360600480360381019061035b91906124f2565b6110bb565b60405161036d91906120d8565b60405180910390f35b61037e611104565b005b61038861118c565b604051610395919061252e565b60405180910390f35b6103b860048036038101906103b3919061231b565b6111b5565b6040516103c591906120a4565b60405180910390f35b6103d6611220565b6040516103e3919061218c565b60405180910390f35b6103f46112ae565b60405161040191906122a2565b60405180910390f35b6104126112b5565b60405161041f91906120d8565b60405180910390f35b610442600480360381019061043d91906121da565b6112bb565b60405161045496959493929190612549565b60405180910390f35b6104776004803603810190610472919061231b565b6113ac565b005b610493600480360381019061048e91906124f2565b6113cd565b005b6104af60048036038101906104aa91906125dd565b6114c4565b005b60007f7965db0b000000000000000000000000000000000000000000000000000000007bffffffffffffffffffffffffffffffffffffffffffffffffffffffff1916827bffffffffffffffffffffffffffffffffffffffffffffffffffffffff19161480610524575061052382611828565b5b9050919050565b6000600754905090565b600480546105429061265f565b80601f016020809104026020016040519081016040528092919081815260200182805461056e9061265f565b80156105bb5780601f10610590576101008083540402835291602001916105bb565b820191906000526020600020905b81548152906001019060200180831161059e57829003601f168201915b505050505081565b60008060008060006006600087815260200190815260200160002060040180548060200260200160405190810160405280929190818152602001828054801561066157602002820191906000526020600020905b8160009054906101000a900473ffffffffffffffffffffffffffffffffffffffff1673ffffffffffffffffffffffffffffffffffffffff1681526020019060010190808311610617575b5050505050905060005b815181101561079a57600082828151811061068957610688612690565b5b602002602001015190506000600660008a815260200190815260200160002060060160008373ffffffffffffffffffffffffffffffffffffffff1673ffffffffffffffffffffffffffffffffffffffff16815260200190815260200160002060000160019054906101000a900460ff1690506000600660008b815260200190815260200160002060060160008473ffffffffffffffffffffffffffffffffffffffff1673ffffffffffffffffffffffffffffffffffffffff168152602001908152602001600020600101549050600115158215150361077557808761076e91906126ee565b9650610784565b808661078191906126ee565b95505b505050808061079290612744565b91505061066b565b50828294509450505050915091565b600060016000838152602001908152602001600020600101549050919050565b806000811180156107dc57506007548111155b61081b576040517f08c379a0000000000000000000000000000000000000000000000000000000008152600401610812906127d8565b60405180910390fd5b610823611892565b73ffffffffffffffffffffffffffffffffffffffff1661084161118c565b73ffffffffffffffffffffffffffffffffffffffff1614610897576040517f08c379a000000000000000000000000000000000000000000000000000000000815260040161088e90612844565b60405180910390fd5b600060028111156108ab576108aa612420565b5b6006600084815260200190815260200160002060000160149054906101000a900460ff1660028111156108e1576108e0612420565b5b14610921576040517f08c379a0000000000000000000000000000000000000000000000000000000008152600401610918906128b0565b60405180910390fd5b61092a82611048565b42101561096c576040517f08c379a00000000000000000000000000000000000000000000000000000000081526004016109639061291c565b60405180910390fd5b60016006600084815260200190815260200160002060000160146101000a81548160ff021916908360028111156109a6576109a5612420565b5b02179055505050565b6109b8826107a9565b6109c18161189a565b6109cb83836118ae565b505050565b60006109da611892565b73ffffffffffffffffffffffffffffffffffffffff166109f861118c565b73ffffffffffffffffffffffffffffffffffffffff1614610a4e576040517f08c379a0000000000000000000000000000000000000000000000000000000008152600401610a4590612844565b60405180910390fd5b60008211610a91576040517f08c379a0000000000000000000000000000000000000000000000000000000008152600401610a8890612988565b60405180910390fd5b60076000815480929190610aa490612744565b919050555060006006600060075481526020019081526020016000209050338160000160006101000a81548173ffffffffffffffffffffffffffffffffffffffff021916908373ffffffffffffffffffffffffffffffffffffffff16021790555060008160000160146101000a81548160ff02191690836002811115610b2d57610b2c612420565b5b0217905550600183603c610b4191906129a8565b610b4b91906129a8565b42610b5691906126ee565b81600501819055508484826003019190610b71929190611f57565b507f781e930fda5896dda55b0c20f29c285b9bedfb112a3a6456d12c63b278537ae033600754878787604051610bab959493929190612a3e565b60405180910390a16007549150509392505050565b610bc8611892565b73ffffffffffffffffffffffffffffffffffffffff168173ffffffffffffffffffffffffffffffffffffffff1614610c35576040517f08c379a0000000000000000000000000000000000000000000000000000000008152600401610c2c90612afe565b60405180910390fd5b610c3f828261198e565b5050565b600081600081118015610c5857506007548111155b610c97576040517f08c379a0000000000000000000000000000000000000000000000000000000008152600401610c8e906127d8565b60405180910390fd5b6006600084815260200190815260200160002060000160149054906101000a900460ff16915050919050565b610ccb611892565b73ffffffffffffffffffffffffffffffffffffffff16610ce961118c565b73ffffffffffffffffffffffffffffffffffffffff1614610d3f576040517f08c379a0000000000000000000000000000000000000000000000000000000008152600401610d3690612844565b60405180910390fd5b600073ffffffffffffffffffffffffffffffffffffffff168273ffffffffffffffffffffffffffffffffffffffff1603610dae576040517f08c379a0000000000000000000000000000000000000000000000000000000008152600401610da590612b6a565b60405180910390fd5b610dc381600254611a7090919063ffffffff16565b600281905550610e1b81600560008573ffffffffffffffffffffffffffffffffffffffff1673ffffffffffffffffffffffffffffffffffffffff16815260200190815260200160002054611a7090919063ffffffff16565b600560008473ffffffffffffffffffffffffffffffffffffffff1673ffffffffffffffffffffffffffffffffffffffff168152602001908152602001600020819055505050565b80600081118015610e7557506007548111155b610eb4576040517f08c379a0000000000000000000000000000000000000000000000000000000008152600401610eab906127d8565b60405180910390fd5b610ebc611892565b73ffffffffffffffffffffffffffffffffffffffff16610eda61118c565b73ffffffffffffffffffffffffffffffffffffffff1614610f30576040517f08c379a0000000000000000000000000000000000000000000000000000000008152600401610f2790612844565b60405180910390fd5b60016002811115610f4457610f43612420565b5b6006600084815260200190815260200160002060000160149054906101000a900460ff166002811115610f7a57610f79612420565b5b14610fba576040517f08c379a0000000000000000000000000000000000000000000000000000000008152600401610fb190612bd6565b60405180910390fd5b610fc382611048565b421015611005576040517f08c379a0000000000000000000000000000000000000000000000000000000008152600401610ffc9061291c565b60405180910390fd5b60026006600084815260200190815260200160002060000160146101000a81548160ff0219169083600281111561103f5761103e612420565b5b02179055505050565b60008160008111801561105d57506007548111155b61109c576040517f08c379a0000000000000000000000000000000000000000000000000000000008152600401611093906127d8565b60405180910390fd5b6006600084815260200190815260200160002060050154915050919050565b6000600560008373ffffffffffffffffffffffffffffffffffffffff1673ffffffffffffffffffffffffffffffffffffffff168152602001908152602001600020549050919050565b61110c611892565b73ffffffffffffffffffffffffffffffffffffffff1661112a61118c565b73ffffffffffffffffffffffffffffffffffffffff1614611180576040517f08c379a000000000000000000000000000000000000000000000000000000000815260040161117790612844565b60405180910390fd5b61118a6000611a86565b565b60008060009054906101000a900473ffffffffffffffffffffffffffffffffffffffff16905090565b60006001600084815260200190815260200160002060000160008373ffffffffffffffffffffffffffffffffffffffff1673ffffffffffffffffffffffffffffffffffffffff16815260200190815260200160002060009054906101000a900460ff16905092915050565b6003805461122d9061265f565b80601f01602080910402602001604051908101604052809291908181526020018280546112599061265f565b80156112a65780601f1061127b576101008083540402835291602001916112a6565b820191906000526020600020905b81548152906001019060200180831161128957829003601f168201915b505050505081565b6000801b81565b60075481565b60066020528060005260406000206000915090508060000160009054906101000a900473ffffffffffffffffffffffffffffffffffffffff16908060000160149054906101000a900460ff16908060010154908060020154908060030180546113239061265f565b80601f016020809104026020016040519081016040528092919081815260200182805461134f9061265f565b801561139c5780601f106113715761010080835404028352916020019161139c565b820191906000526020600020905b81548152906001019060200180831161137f57829003601f168201915b5050505050908060050154905086565b6113b5826107a9565b6113be8161189a565b6113c8838361198e565b505050565b6113d5611892565b73ffffffffffffffffffffffffffffffffffffffff166113f361118c565b73ffffffffffffffffffffffffffffffffffffffff1614611449576040517f08c379a000000000000000000000000000000000000000000000000000000000815260040161144090612844565b60405180910390fd5b600073ffffffffffffffffffffffffffffffffffffffff168173ffffffffffffffffffffffffffffffffffffffff16036114b8576040517f08c379a00000000000000000000000000000000000000000000000000000000081526004016114af90612c68565b60405180910390fd5b6114c181611a86565b50565b826000811180156114d757506007548111155b611516576040517f08c379a000000000000000000000000000000000000000000000000000000000815260040161150d906127d8565b60405180910390fd5b6000600281111561152a57611529612420565b5b61153385610c43565b600281111561154557611544612420565b5b14611585576040517f08c379a000000000000000000000000000000000000000000000000000000000815260040161157c90612cd4565b60405180910390fd5b61158f8433611b4a565b156115cf576040517f08c379a00000000000000000000000000000000000000000000000000000000081526004016115c690612d66565b60405180910390fd5b426115d985611048565b11611619576040517f08c379a000000000000000000000000000000000000000000000000000000000815260040161161090612df8565b60405180910390fd5b61166b83600560003373ffffffffffffffffffffffffffffffffffffffff1673ffffffffffffffffffffffffffffffffffffffff16815260200190815260200160002054611c0b90919063ffffffff16565b600560003373ffffffffffffffffffffffffffffffffffffffff1673ffffffffffffffffffffffffffffffffffffffff1681526020019081526020016000208190555060006116b984611c21565b9050600060066000878152602001908152602001600020905060405180606001604052806001151581526020018515158152602001838152508160060160003373ffffffffffffffffffffffffffffffffffffffff1673ffffffffffffffffffffffffffffffffffffffff16815260200190815260200160002060008201518160000160006101000a81548160ff02191690831515021790555060208201518160000160016101000a81548160ff0219169083151502179055506040820151816001015590505080600401339080600181540180825580915050600190039060005260206000200160009091909190916101000a81548173ffffffffffffffffffffffffffffffffffffffff021916908373ffffffffffffffffffffffffffffffffffffffff1602179055507fcb87df07b1c304492bd875a5c8b98672eca500939412809ea229afef1d74518833878460405161181893929190612e18565b60405180910390a1505050505050565b60007f01ffc9a7000000000000000000000000000000000000000000000000000000007bffffffffffffffffffffffffffffffffffffffffffffffffffffffff1916827bffffffffffffffffffffffffffffffffffffffffffffffffffffffff1916149050919050565b600033905090565b6118ab816118a6611892565b611c7e565b50565b6118b882826111b5565b61198a57600180600084815260200190815260200160002060000160008373ffffffffffffffffffffffffffffffffffffffff1673ffffffffffffffffffffffffffffffffffffffff16815260200190815260200160002060006101000a81548160ff02191690831515021790555061192f611892565b73ffffffffffffffffffffffffffffffffffffffff168173ffffffffffffffffffffffffffffffffffffffff16837f2f8788117e7eff1d82e926ec794901d17c78024a50270940304540a733656f0d60405160405180910390a45b5050565b61199882826111b5565b15611a6c5760006001600084815260200190815260200160002060000160008373ffffffffffffffffffffffffffffffffffffffff1673ffffffffffffffffffffffffffffffffffffffff16815260200190815260200160002060006101000a81548160ff021916908315150217905550611a11611892565b73ffffffffffffffffffffffffffffffffffffffff168173ffffffffffffffffffffffffffffffffffffffff16837ff6391f5c32d9c69d2a47ea670b442974b53935d1edc7fd64eb21e047a839171b60405160405180910390a45b5050565b60008183611a7e91906126ee565b905092915050565b60008060009054906101000a900473ffffffffffffffffffffffffffffffffffffffff169050816000806101000a81548173ffffffffffffffffffffffffffffffffffffffff021916908373ffffffffffffffffffffffffffffffffffffffff1602179055508173ffffffffffffffffffffffffffffffffffffffff168173ffffffffffffffffffffffffffffffffffffffff167f8be0079c531659141344cd1fd0a4f28419497f9722a3daafe3b4186f6b6457e060405160405180910390a35050565b600082600081118015611b5f57506007548111155b611b9e576040517f08c379a0000000000000000000000000000000000000000000000000000000008152600401611b95906127d8565b60405180910390fd5b6006600085815260200190815260200160002060060160008473ffffffffffffffffffffffffffffffffffffffff1673ffffffffffffffffffffffffffffffffffffffff16815260200190815260200160002060000160009054906101000a900460ff1691505092915050565b60008183611c199190612e4f565b905092915050565b6000806002600184611c3391906126ee565b611c3d9190612eb2565b90508291505b81811015611c78578091506002818285611c5d9190612eb2565b611c6791906126ee565b611c719190612eb2565b9050611c43565b50919050565b611c8882826111b5565b611d1757611cad8173ffffffffffffffffffffffffffffffffffffffff166014611d1b565b611cbb8360001c6020611d1b565b604051602001611ccc929190612fb7565b6040516020818303038152906040526040517f08c379a0000000000000000000000000000000000000000000000000000000008152600401611d0e919061218c565b60405180910390fd5b5050565b606060006002836002611d2e91906129a8565b611d3891906126ee565b67ffffffffffffffff811115611d5157611d50612ff1565b5b6040519080825280601f01601f191660200182016040528015611d835781602001600182028036833780820191505090505b5090507f300000000000000000000000000000000000000000000000000000000000000081600081518110611dbb57611dba612690565b5b60200101907effffffffffffffffffffffffffffffffffffffffffffffffffffffffffffff1916908160001a9053507f780000000000000000000000000000000000000000000000000000000000000081600181518110611e1f57611e1e612690565b5b60200101907effffffffffffffffffffffffffffffffffffffffffffffffffffffffffffff1916908160001a90535060006001846002611e5f91906129a8565b611e6991906126ee565b90505b6001811115611f09577f3031323334353637383961626364656600000000000000000000000000000000600f861660108110611eab57611eaa612690565b5b1a60f81b828281518110611ec257611ec1612690565b5b60200101907effffffffffffffffffffffffffffffffffffffffffffffffffffffffffffff1916908160001a905350600485901c945080611f0290613020565b9050611e6c565b5060008414611f4d576040517f08c379a0000000000000000000000000000000000000000000000000000000008152600401611f4490613095565b60405180910390fd5b8091505092915050565b828054611f639061265f565b90600052602060002090601f016020900481019282611f855760008555611fcc565b82601f10611f9e57803560ff1916838001178555611fcc565b82800160010185558215611fcc579182015b82811115611fcb578235825591602001919060010190611fb0565b5b509050611fd99190611fdd565b5090565b5b80821115611ff6576000816000905550600101611fde565b5090565b600080fd5b600080fd5b60007fffffffff0000000000000000000000000000000000000000000000000000000082169050919050565b61203981612004565b811461204457600080fd5b50565b60008135905061205681612030565b92915050565b60006020828403121561207257612071611ffa565b5b600061208084828501612047565b91505092915050565b60008115159050919050565b61209e81612089565b82525050565b60006020820190506120b96000830184612095565b92915050565b6000819050919050565b6120d2816120bf565b82525050565b60006020820190506120ed60008301846120c9565b92915050565b600081519050919050565b600082825260208201905092915050565b60005b8381101561212d578082015181840152602081019050612112565b8381111561213c576000848401525b50505050565b6000601f19601f8301169050919050565b600061215e826120f3565b61216881856120fe565b935061217881856020860161210f565b61218181612142565b840191505092915050565b600060208201905081810360008301526121a68184612153565b905092915050565b6121b7816120bf565b81146121c257600080fd5b50565b6000813590506121d4816121ae565b92915050565b6000602082840312156121f0576121ef611ffa565b5b60006121fe848285016121c5565b91505092915050565b600060408201905061221c60008301856120c9565b61222960208301846120c9565b9392505050565b6000819050919050565b61224381612230565b811461224e57600080fd5b50565b6000813590506122608161223a565b92915050565b60006020828403121561227c5761227b611ffa565b5b600061228a84828501612251565b91505092915050565b61229c81612230565b82525050565b60006020820190506122b76000830184612293565b92915050565b600073ffffffffffffffffffffffffffffffffffffffff82169050919050565b60006122e8826122bd565b9050919050565b6122f8816122dd565b811461230357600080fd5b50565b600081359050612315816122ef565b92915050565b6000806040838503121561233257612331611ffa565b5b600061234085828601612251565b925050602061235185828601612306565b9150509250929050565b600080fd5b600080fd5b600080fd5b60008083601f8401126123805761237f61235b565b5b8235905067ffffffffffffffff81111561239d5761239c612360565b5b6020830191508360018202830111156123b9576123b8612365565b5b9250929050565b6000806000604084860312156123d9576123d8611ffa565b5b600084013567ffffffffffffffff8111156123f7576123f6611fff565b5b6124038682870161236a565b93509350506020612416868287016121c5565b9150509250925092565b7f4e487b7100000000000000000000000000000000000000000000000000000000600052602160045260246000fd5b600381106124605761245f612420565b5b50565b60008190506124718261244f565b919050565b600061248182612463565b9050919050565b61249181612476565b82525050565b60006020820190506124ac6000830184612488565b92915050565b600080604083850312156124c9576124c8611ffa565b5b60006124d785828601612306565b92505060206124e8858286016121c5565b9150509250929050565b60006020828403121561250857612507611ffa565b5b600061251684828501612306565b91505092915050565b612528816122dd565b82525050565b6000602082019050612543600083018461251f565b92915050565b600060c08201905061255e600083018961251f565b61256b6020830188612488565b61257860408301876120c9565b61258560608301866120c9565b81810360808301526125978185612153565b90506125a660a08301846120c9565b979650505050505050565b6125ba81612089565b81146125c557600080fd5b50565b6000813590506125d7816125b1565b92915050565b6000806000606084860312156125f6576125f5611ffa565b5b6000612604868287016121c5565b9350506020612615868287016121c5565b9250506040612626868287016125c8565b9150509250925092565b7f4e487b7100000000000000000000000000000000000000000000000000000000600052602260045260246000fd5b6000600282049050600182168061267757607f821691505b60208210810361268a57612689612630565b5b50919050565b7f4e487b7100000000000000000000000000000000000000000000000000000000600052603260045260246000fd5b7f4e487b7100000000000000000000000000000000000000000000000000000000600052601160045260246000fd5b60006126f9826120bf565b9150612704836120bf565b9250827fffffffffffffffffffffffffffffffffffffffffffffffffffffffffffffffff03821115612739576127386126bf565b5b828201905092915050565b600061274f826120bf565b91507fffffffffffffffffffffffffffffffffffffffffffffffffffffffffffffffff8203612781576127806126bf565b5b600182019050919050565b7f4e6f7420612076616c69642050726f706f73616c204964000000000000000000600082015250565b60006127c26017836120fe565b91506127cd8261278c565b602082019050919050565b600060208201905081810360008301526127f1816127b5565b9050919050565b7f4f776e61626c653a2063616c6c6572206973206e6f7420746865206f776e6572600082015250565b600061282e6020836120fe565b9150612839826127f8565b602082019050919050565b6000602082019050818103600083015261285d81612821565b9050919050565b7f566f7465206973206e6f7420696e2070726f6772657373000000000000000000600082015250565b600061289a6017836120fe565b91506128a582612864565b602082019050919050565b600060208201905081810360008301526128c98161288d565b9050919050565b7f766f74696e6720706572696f6420686173206e6f742065787069726564000000600082015250565b6000612906601d836120fe565b9150612911826128d0565b602082019050919050565b60006020820190508181036000830152612935816128f9565b9050919050565b7f54686520766f74696e6720706572696f642063616e6e6f742062652030000000600082015250565b6000612972601d836120fe565b915061297d8261293c565b602082019050919050565b600060208201905081810360008301526129a181612965565b9050919050565b60006129b3826120bf565b91506129be836120bf565b9250817fffffffffffffffffffffffffffffffffffffffffffffffffffffffffffffffff04831182151516156129f7576129f66126bf565b5b828202905092915050565b82818337600083830152505050565b6000612a1d83856120fe565b9350612a2a838584612a02565b612a3383612142565b840190509392505050565b6000608082019050612a53600083018861251f565b612a6060208301876120c9565b8181036040830152612a73818587612a11565b9050612a8260608301846120c9565b9695505050505050565b7f416363657373436f6e74726f6c3a2063616e206f6e6c792072656e6f756e636560008201527f20726f6c657320666f722073656c660000000000000000000000000000000000602082015250565b6000612ae8602f836120fe565b9150612af382612a8c565b604082019050919050565b60006020820190508181036000830152612b1781612adb565b9050919050565b7f206d696e7420746f20746865207a65726f206164647265737300000000000000600082015250565b6000612b546019836120fe565b9150612b5f82612b1e565b602082019050919050565b60006020820190508181036000830152612b8381612b47565b9050919050565b7f50726f706f73616c2073686f756c6420626520696e2074616c6c790000000000600082015250565b6000612bc0601b836120fe565b9150612bcb82612b8a565b602082019050919050565b60006020820190508181036000830152612bef81612bb3565b9050919050565b7f4f776e61626c653a206e6577206f776e657220697320746865207a65726f206160008201527f6464726573730000000000000000000000000000000000000000000000000000602082015250565b6000612c526026836120fe565b9150612c5d82612bf6565b604082019050919050565b60006020820190508181036000830152612c8181612c45565b9050919050565b7f70726f706f73616c2068617320657870697265642e0000000000000000000000600082015250565b6000612cbe6015836120fe565b9150612cc982612c88565b602082019050919050565b60006020820190508181036000830152612ced81612cb1565b9050919050565b7f7573657220616c726561647920766f746564206f6e20746869732070726f706f60008201527f73616c0000000000000000000000000000000000000000000000000000000000602082015250565b6000612d506023836120fe565b9150612d5b82612cf4565b604082019050919050565b60006020820190508181036000830152612d7f81612d43565b9050919050565b7f666f7220746869732070726f706f73616c2c2074686520766f74696e6720746960008201527f6d65206578706972656400000000000000000000000000000000000000000000602082015250565b6000612de2602a836120fe565b9150612ded82612d86565b604082019050919050565b60006020820190508181036000830152612e1181612dd5565b9050919050565b6000606082019050612e2d600083018661251f565b612e3a60208301856120c9565b612e4760408301846120c9565b949350505050565b6000612e5a826120bf565b9150612e65836120bf565b925082821015612e7857612e776126bf565b5b828203905092915050565b7f4e487b7100000000000000000000000000000000000000000000000000000000600052601260045260246000fd5b6000612ebd826120bf565b9150612ec8836120bf565b925082612ed857612ed7612e83565b5b828204905092915050565b600081905092915050565b7f416363657373436f6e74726f6c3a206163636f756e7420000000000000000000600082015250565b6000612f24601783612ee3565b9150612f2f82612eee565b601782019050919050565b6000612f45826120f3565b612f4f8185612ee3565b9350612f5f81856020860161210f565b80840191505092915050565b7f206973206d697373696e6720726f6c6520000000000000000000000000000000600082015250565b6000612fa1601183612ee3565b9150612fac82612f6b565b601182019050919050565b6000612fc282612f17565b9150612fce8285612f3a565b9150612fd982612f94565b9150612fe58284612f3a565b91508190509392505050565b7f4e487b7100000000000000000000000000000000000000000000000000000000600052604160045260246000fd5b600061302b826120bf565b91506000820361303e5761303d6126bf565b5b600182039050919050565b7f537472696e67733a20686578206c656e67746820696e73756666696369656e74600082015250565b600061307f6020836120fe565b915061308a82613049565b602082019050919050565b600060208201905081810360008301526130ae81613072565b905091905056fea2646970667358221220f4f1878504f805dccdf9f964f6a44e15a424aec335217eb6e79f7442d6d0800364736f6c634300080e0033",
  "immutableReferences": {},
  "source": "// SPDX-License-Identifier: MIT\r\npragma solidity ^0.8.0;\r\n\r\nimport \"@openzeppelin/contracts/utils/math/SafeMath.sol\";\r\nimport \"@openzeppelin/contracts/access/Ownable.sol\";\r\nimport \"@openzeppelin/contracts/access/AccessControl.sol\";\r\n\r\n/**\r\n * @title QVVoting\r\n * @dev the manager for proposals / votes\r\n */\r\ncontract QVVoting is Ownable, AccessControl {\r\n    using SafeMath for uint256;\r\n\r\n    uint256 private _totalSupply;\r\n    string public symbol;\r\n    string public name;\r\n    mapping(address => uint256) private _balances;\r\n\r\n    event VoteCasted(address voter, uint256 ProposalID, uint256 weight);\r\n\r\n    event ProposalCreated(\r\n        address creator,\r\n        uint256 ProposalID,\r\n        string description,\r\n        uint256 votingTimeInHours\r\n    );\r\n\r\n    enum ProposalStatus {\r\n        IN_PROGRESS,\r\n        TALLY,\r\n        ENDED\r\n    }\r\n\r\n    struct Proposal {\r\n        address creator;\r\n        ProposalStatus status;\r\n        uint256 yesVotes;\r\n        uint256 noVotes;\r\n        string description;\r\n        address[] voters;\r\n        uint256 expirationTime;\r\n        mapping(address => Voter) voterInfo;\r\n    }\r\n\r\n    struct Voter {\r\n        bool hasVoted;\r\n        bool vote;\r\n        uint256 weight;\r\n    }\r\n\r\n    mapping(uint256 => Proposal) public Proposals;\r\n    uint256 public ProposalCount;\r\n\r\n    function count() public view returns (uint256) {\r\n        return ProposalCount;\r\n    }\r\n\r\n    constructor() public {\r\n        symbol = \"QVV\";\r\n        name = \"QV Voting\";\r\n    }\r\n\r\n    /**\r\n     * @dev Creates a new proposal.\r\n     * @param _description the text of the proposal\r\n     * @param _voteExpirationTime expiration time in minutes\r\n     */\r\n    function createProposal(\r\n        string calldata _description,\r\n        uint256 _voteExpirationTime\r\n    ) external onlyOwner returns (uint256) {\r\n        require(_voteExpirationTime > 0, \"The voting period cannot be 0\");\r\n        ProposalCount++;\r\n\r\n        Proposal storage curProposal = Proposals[ProposalCount];\r\n        curProposal.creator = msg.sender;\r\n        curProposal.status = ProposalStatus.IN_PROGRESS;\r\n        curProposal.expirationTime =\r\n            block.timestamp +\r\n            60 *\r\n            _voteExpirationTime *\r\n            1 seconds;\r\n        curProposal.description = _description;\r\n\r\n        emit ProposalCreated(\r\n            msg.sender,\r\n            ProposalCount,\r\n            _description,\r\n            _voteExpirationTime\r\n        );\r\n        return ProposalCount;\r\n    }\r\n\r\n    /**\r\n     * @dev sets a proposal to TALLY.\r\n     * @param _ProposalID the proposal id\r\n     */\r\n    function setProposalToTally(uint256 _ProposalID)\r\n        external\r\n        validProposal(_ProposalID)\r\n        onlyOwner\r\n    {\r\n        require(\r\n            Proposals[_ProposalID].status == ProposalStatus.IN_PROGRESS,\r\n            \"Vote is not in progress\"\r\n        );\r\n        require(\r\n            block.timestamp >= getProposalExpirationTime(_ProposalID),\r\n            \"voting period has not expired\"\r\n        );\r\n        Proposals[_ProposalID].status = ProposalStatus.TALLY;\r\n    }\r\n\r\n    /**\r\n     * @dev sets a proposal to ENDED.\r\n     * @param _ProposalID the proposal id\r\n     */\r\n    function setProposalToEnded(uint256 _ProposalID)\r\n        external\r\n        validProposal(_ProposalID)\r\n        onlyOwner\r\n    {\r\n        require(\r\n            Proposals[_ProposalID].status == ProposalStatus.TALLY,\r\n            \"Proposal should be in tally\"\r\n        );\r\n        require(\r\n            block.timestamp >= getProposalExpirationTime(_ProposalID),\r\n            \"voting period has not expired\"\r\n        );\r\n        Proposals[_ProposalID].status = ProposalStatus.ENDED;\r\n    }\r\n\r\n    /**\r\n     * @dev returns the status of a proposal\r\n     * @param _ProposalID the proposal id\r\n     */\r\n    function getProposalStatus(uint256 _ProposalID)\r\n        public\r\n        view\r\n        validProposal(_ProposalID)\r\n        returns (ProposalStatus)\r\n    {\r\n        return Proposals[_ProposalID].status;\r\n    }\r\n\r\n    /**\r\n     * @dev returns a proposal expiration time\r\n     * @param _ProposalID the proposal id\r\n     */\r\n    function getProposalExpirationTime(uint256 _ProposalID)\r\n        public\r\n        view\r\n        validProposal(_ProposalID)\r\n        returns (uint256)\r\n    {\r\n        return Proposals[_ProposalID].expirationTime;\r\n    }\r\n\r\n    /**\r\n     * @dev counts the votes for a proposal. Returns (yeays, nays)\r\n     * @param _ProposalID the proposal id\r\n     */\r\n    function countVotes(uint256 _ProposalID)\r\n        public\r\n        view\r\n        returns (uint256, uint256)\r\n    {\r\n        uint256 yesVotes = 0;\r\n        uint256 noVotes = 0;\r\n\r\n        address[] memory voters = Proposals[_ProposalID].voters;\r\n        for (uint256 i = 0; i < voters.length; i++) {\r\n            address voter = voters[i];\r\n            bool vote = Proposals[_ProposalID].voterInfo[voter].vote;\r\n            uint256 weight = Proposals[_ProposalID].voterInfo[voter].weight;\r\n            if (vote == true) {\r\n                yesVotes += weight;\r\n            } else {\r\n                noVotes += weight;\r\n            }\r\n        }\r\n\r\n        return (yesVotes, noVotes);\r\n    }\r\n\r\n    /**\r\n     * @dev casts a vote.\r\n     * @param _ProposalID the proposal id\r\n     * @param numTokens number of voice credits\r\n     * @param _vote true for yes, false for no\r\n     */\r\n    function castVote(\r\n        uint256 _ProposalID,\r\n        uint256 numTokens,\r\n        bool _vote\r\n    ) external validProposal(_ProposalID) {\r\n        require(\r\n            getProposalStatus(_ProposalID) == ProposalStatus.IN_PROGRESS,\r\n            \"proposal has expired.\"\r\n        );\r\n        require(\r\n            !userHasVoted(_ProposalID, msg.sender),\r\n            \"user already voted on this proposal\"\r\n        );\r\n        require(\r\n            getProposalExpirationTime(_ProposalID) > block.timestamp,\r\n            \"for this proposal, the voting time expired\"\r\n        );\r\n\r\n        _balances[msg.sender] = _balances[msg.sender].sub(numTokens);\r\n\r\n        uint256 weight = sqrt(numTokens); // QV Vote\r\n\r\n        Proposal storage curproposal = Proposals[_ProposalID];\r\n\r\n        curproposal.voterInfo[msg.sender] = Voter({\r\n            hasVoted: true,\r\n            vote: _vote,\r\n            weight: weight\r\n        });\r\n\r\n        curproposal.voters.push(msg.sender);\r\n\r\n        emit VoteCasted(msg.sender, _ProposalID, weight);\r\n    }\r\n\r\n    /**\r\n     * @dev checks if a user has voted\r\n     * @param _ProposalID the proposal id\r\n     * @param _user the address of a voter\r\n     */\r\n    function userHasVoted(uint256 _ProposalID, address _user)\r\n        internal\r\n        view\r\n        validProposal(_ProposalID)\r\n        returns (bool)\r\n    {\r\n        return (Proposals[_ProposalID].voterInfo[_user].hasVoted);\r\n    }\r\n\r\n    /**\r\n     * @dev checks if a proposal id is valid\r\n     * @param _ProposalID the proposal id\r\n     */\r\n    modifier validProposal(uint256 _ProposalID) {\r\n        require(\r\n            _ProposalID > 0 && _ProposalID <= ProposalCount,\r\n            \"Not a valid Proposal Id\"\r\n        );\r\n        _;\r\n    }\r\n\r\n    /**\r\n     * @dev returns the square root (in int) of a number\r\n     * @param x the number (int)\r\n     */\r\n    function sqrt(uint256 x) internal pure returns (uint256 y) {\r\n        uint256 z = (x + 1) / 2;\r\n        y = x;\r\n        while (z < y) {\r\n            y = z;\r\n            z = (x / z + z) / 2;\r\n        }\r\n    }\r\n\r\n    /**\r\n     * @dev minting more tokens for an account\r\n     */\r\n    function mint(address account, uint256 amount) public onlyOwner {\r\n        require(account != address(0), \" mint to the zero address\");\r\n        _totalSupply = _totalSupply.add(amount);\r\n        _balances[account] = _balances[account].add(amount);\r\n    }\r\n\r\n    /**\r\n     * @dev returns the balance of an account\r\n     */\r\n    function balanceOf(address account) public view returns (uint256) {\r\n        return _balances[account];\r\n    }\r\n}\r\n",
  "sourcePath": "C:\\Users\\karan\\Desktop\\Intern\\quadratic_voting\\frontend\\truffle\\contracts\\QVVoting.sol",
  "compiler": {
    "name": "solc",
    "version": "0.8.14+commit.80d49f37.Emscripten.clang"
  },
  "schemaVersion": "3.4.5",
  "updatedAt": "2022-06-24T08:45:29.623Z",
  "networkType": "ethereum",
  "devdoc": {
    "details": "the manager for proposals / votes",
    "kind": "dev",
    "methods": {
      "balanceOf(address)": {
        "details": "returns the balance of an account"
      },
      "castVote(uint256,uint256,bool)": {
        "details": "casts a vote.",
        "params": {
          "_ProposalID": "the proposal id",
          "_vote": "true for yes, false for no",
          "numTokens": "number of voice credits"
        }
      },
      "countVotes(uint256)": {
        "details": "counts the votes for a proposal. Returns (yeays, nays)",
        "params": {
          "_ProposalID": "the proposal id"
        }
      },
      "createProposal(string,uint256)": {
        "details": "Creates a new proposal.",
        "params": {
          "_description": "the text of the proposal",
          "_voteExpirationTime": "expiration time in minutes"
        }
      },
      "getProposalExpirationTime(uint256)": {
        "details": "returns a proposal expiration time",
        "params": {
          "_ProposalID": "the proposal id"
        }
      },
      "getProposalStatus(uint256)": {
        "details": "returns the status of a proposal",
        "params": {
          "_ProposalID": "the proposal id"
        }
      },
      "getRoleAdmin(bytes32)": {
        "details": "Returns the admin role that controls `role`. See {grantRole} and {revokeRole}. To change a role's admin, use {_setRoleAdmin}."
      },
      "grantRole(bytes32,address)": {
        "details": "Grants `role` to `account`. If `account` had not been already granted `role`, emits a {RoleGranted} event. Requirements: - the caller must have ``role``'s admin role."
      },
      "hasRole(bytes32,address)": {
        "details": "Returns `true` if `account` has been granted `role`."
      },
      "mint(address,uint256)": {
        "details": "minting more tokens for an account"
      },
      "owner()": {
        "details": "Returns the address of the current owner."
      },
      "renounceOwnership()": {
        "details": "Leaves the contract without owner. It will not be possible to call `onlyOwner` functions anymore. Can only be called by the current owner. NOTE: Renouncing ownership will leave the contract without an owner, thereby removing any functionality that is only available to the owner."
      },
      "renounceRole(bytes32,address)": {
        "details": "Revokes `role` from the calling account. Roles are often managed via {grantRole} and {revokeRole}: this function's purpose is to provide a mechanism for accounts to lose their privileges if they are compromised (such as when a trusted device is misplaced). If the calling account had been revoked `role`, emits a {RoleRevoked} event. Requirements: - the caller must be `account`."
      },
      "revokeRole(bytes32,address)": {
        "details": "Revokes `role` from `account`. If `account` had been granted `role`, emits a {RoleRevoked} event. Requirements: - the caller must have ``role``'s admin role."
      },
      "setProposalToEnded(uint256)": {
        "details": "sets a proposal to ENDED.",
        "params": {
          "_ProposalID": "the proposal id"
        }
      },
      "setProposalToTally(uint256)": {
        "details": "sets a proposal to TALLY.",
        "params": {
          "_ProposalID": "the proposal id"
        }
      },
      "supportsInterface(bytes4)": {
        "details": "See {IERC165-supportsInterface}."
      },
      "transferOwnership(address)": {
        "details": "Transfers ownership of the contract to a new account (`newOwner`). Can only be called by the current owner."
      }
    },
    "title": "QVVoting",
    "version": 1
  },
  "userdoc": {
    "kind": "user",
    "methods": {},
    "version": 1
  }
}