{
  "contractName": "Voting",
  "abi": [
    {
      "inputs": [],
      "stateMutability": "nonpayable",
      "type": "constructor"
    },
    {
      "anonymous": false,
      "inputs": [
        {
          "indexed": true,
          "internalType": "address",
          "name": "previousOwner",
          "type": "address"
        },
        {
          "indexed": true,
          "internalType": "address",
          "name": "newOwner",
          "type": "address"
        }
      ],
      "name": "OwnershipTransferred",
      "type": "event"
    },
    {
      "anonymous": false,
      "inputs": [
        {
          "indexed": false,
          "internalType": "address",
          "name": "creator",
          "type": "address"
        },
        {
          "indexed": false,
          "internalType": "string",
          "name": "description",
          "type": "string"
        },
        {
          "indexed": false,
          "internalType": "string[]",
          "name": "_options",
          "type": "string[]"
        },
        {
          "indexed": false,
          "internalType": "uint256",
          "name": "votingTimeInHours",
          "type": "uint256"
        }
      ],
      "name": "ProposalCreated",
      "type": "event"
    },
    {
      "anonymous": false,
      "inputs": [
        {
          "indexed": true,
          "internalType": "bytes32",
          "name": "role",
          "type": "bytes32"
        },
        {
          "indexed": true,
          "internalType": "bytes32",
          "name": "previousAdminRole",
          "type": "bytes32"
        },
        {
          "indexed": true,
          "internalType": "bytes32",
          "name": "newAdminRole",
          "type": "bytes32"
        }
      ],
      "name": "RoleAdminChanged",
      "type": "event"
    },
    {
      "anonymous": false,
      "inputs": [
        {
          "indexed": true,
          "internalType": "bytes32",
          "name": "role",
          "type": "bytes32"
        },
        {
          "indexed": true,
          "internalType": "address",
          "name": "account",
          "type": "address"
        },
        {
          "indexed": true,
          "internalType": "address",
          "name": "sender",
          "type": "address"
        }
      ],
      "name": "RoleGranted",
      "type": "event"
    },
    {
      "anonymous": false,
      "inputs": [
        {
          "indexed": true,
          "internalType": "bytes32",
          "name": "role",
          "type": "bytes32"
        },
        {
          "indexed": true,
          "internalType": "address",
          "name": "account",
          "type": "address"
        },
        {
          "indexed": true,
          "internalType": "address",
          "name": "sender",
          "type": "address"
        }
      ],
      "name": "RoleRevoked",
      "type": "event"
    },
    {
      "anonymous": false,
      "inputs": [
        {
          "indexed": false,
          "internalType": "address",
          "name": "voter",
          "type": "address"
        },
        {
          "indexed": false,
          "internalType": "uint256",
          "name": "ProposalID",
          "type": "uint256"
        },
        {
          "indexed": false,
          "internalType": "uint256[]",
          "name": "_tokens",
          "type": "uint256[]"
        }
      ],
      "name": "VoteCasted",
      "type": "event"
    },
    {
      "inputs": [],
      "name": "DEFAULT_ADMIN_ROLE",
      "outputs": [
        {
          "internalType": "bytes32",
          "name": "",
          "type": "bytes32"
        }
      ],
      "stateMutability": "view",
      "type": "function",
      "constant": true
    },
    {
      "inputs": [],
      "name": "ProposalCount",
      "outputs": [
        {
          "internalType": "uint256",
          "name": "",
          "type": "uint256"
        }
      ],
      "stateMutability": "view",
      "type": "function",
      "constant": true
    },
    {
      "inputs": [
        {
          "internalType": "uint256",
          "name": "",
          "type": "uint256"
        }
      ],
      "name": "Proposals",
      "outputs": [
        {
          "internalType": "address",
          "name": "creator",
          "type": "address"
        },
        {
          "internalType": "enum Voting.ProposalStatus",
          "name": "status",
          "type": "uint8"
        },
        {
          "internalType": "string",
          "name": "description",
          "type": "string"
        },
        {
          "internalType": "uint256",
          "name": "expirationTime",
          "type": "uint256"
        },
        {
          "internalType": "uint256",
          "name": "numOfOptions",
          "type": "uint256"
        }
      ],
      "stateMutability": "view",
      "type": "function",
      "constant": true
    },
    {
      "inputs": [
        {
          "internalType": "bytes32",
          "name": "role",
          "type": "bytes32"
        }
      ],
      "name": "getRoleAdmin",
      "outputs": [
        {
          "internalType": "bytes32",
          "name": "",
          "type": "bytes32"
        }
      ],
      "stateMutability": "view",
      "type": "function",
      "constant": true
    },
    {
      "inputs": [
        {
          "internalType": "bytes32",
          "name": "role",
          "type": "bytes32"
        },
        {
          "internalType": "address",
          "name": "account",
          "type": "address"
        }
      ],
      "name": "grantRole",
      "outputs": [],
      "stateMutability": "nonpayable",
      "type": "function"
    },
    {
      "inputs": [
        {
          "internalType": "bytes32",
          "name": "role",
          "type": "bytes32"
        },
        {
          "internalType": "address",
          "name": "account",
          "type": "address"
        }
      ],
      "name": "hasRole",
      "outputs": [
        {
          "internalType": "bool",
          "name": "",
          "type": "bool"
        }
      ],
      "stateMutability": "view",
      "type": "function",
      "constant": true
    },
    {
      "inputs": [],
      "name": "name",
      "outputs": [
        {
          "internalType": "string",
          "name": "",
          "type": "string"
        }
      ],
      "stateMutability": "view",
      "type": "function",
      "constant": true
    },
    {
      "inputs": [],
      "name": "owner",
      "outputs": [
        {
          "internalType": "address",
          "name": "",
          "type": "address"
        }
      ],
      "stateMutability": "view",
      "type": "function",
      "constant": true
    },
    {
      "inputs": [],
      "name": "renounceOwnership",
      "outputs": [],
      "stateMutability": "nonpayable",
      "type": "function"
    },
    {
      "inputs": [
        {
          "internalType": "bytes32",
          "name": "role",
          "type": "bytes32"
        },
        {
          "internalType": "address",
          "name": "account",
          "type": "address"
        }
      ],
      "name": "renounceRole",
      "outputs": [],
      "stateMutability": "nonpayable",
      "type": "function"
    },
    {
      "inputs": [
        {
          "internalType": "bytes32",
          "name": "role",
          "type": "bytes32"
        },
        {
          "internalType": "address",
          "name": "account",
          "type": "address"
        }
      ],
      "name": "revokeRole",
      "outputs": [],
      "stateMutability": "nonpayable",
      "type": "function"
    },
    {
      "inputs": [
        {
          "internalType": "bytes4",
          "name": "interfaceId",
          "type": "bytes4"
        }
      ],
      "name": "supportsInterface",
      "outputs": [
        {
          "internalType": "bool",
          "name": "",
          "type": "bool"
        }
      ],
      "stateMutability": "view",
      "type": "function",
      "constant": true
    },
    {
      "inputs": [],
      "name": "symbol",
      "outputs": [
        {
          "internalType": "string",
          "name": "",
          "type": "string"
        }
      ],
      "stateMutability": "view",
      "type": "function",
      "constant": true
    },
    {
      "inputs": [
        {
          "internalType": "address",
          "name": "newOwner",
          "type": "address"
        }
      ],
      "name": "transferOwnership",
      "outputs": [],
      "stateMutability": "nonpayable",
      "type": "function"
    },
    {
      "inputs": [],
      "name": "checkAdmin",
      "outputs": [
        {
          "internalType": "bool",
          "name": "",
          "type": "bool"
        }
      ],
      "stateMutability": "view",
      "type": "function",
      "constant": true
    },
    {
      "inputs": [
        {
          "internalType": "string",
          "name": "_description",
          "type": "string"
        },
        {
          "internalType": "string[]",
          "name": "_options",
          "type": "string[]"
        },
        {
          "internalType": "uint256",
          "name": "_voteExpirationTime",
          "type": "uint256"
        }
      ],
      "name": "createProposal",
      "outputs": [
        {
          "internalType": "uint256",
          "name": "",
          "type": "uint256"
        }
      ],
      "stateMutability": "nonpayable",
      "type": "function"
    },
    {
      "inputs": [],
      "name": "getProposalCount",
      "outputs": [
        {
          "internalType": "uint256",
          "name": "",
          "type": "uint256"
        }
      ],
      "stateMutability": "view",
      "type": "function",
      "constant": true
    },
    {
      "inputs": [
        {
          "internalType": "uint256",
          "name": "_ProposalID",
          "type": "uint256"
        }
      ],
      "name": "setProposalToTally",
      "outputs": [],
      "stateMutability": "nonpayable",
      "type": "function"
    },
    {
      "inputs": [
        {
          "internalType": "uint256",
          "name": "_ProposalID",
          "type": "uint256"
        }
      ],
      "name": "getDetails",
      "outputs": [
        {
          "internalType": "string",
          "name": "",
          "type": "string"
        },
        {
          "internalType": "string[]",
          "name": "",
          "type": "string[]"
        },
        {
          "internalType": "uint256",
          "name": "",
          "type": "uint256"
        },
        {
          "internalType": "enum Voting.ProposalStatus",
          "name": "",
          "type": "uint8"
        }
      ],
      "stateMutability": "view",
      "type": "function",
      "constant": true
    },
    {
      "inputs": [
        {
          "internalType": "uint256",
          "name": "_ProposalID",
          "type": "uint256"
        }
      ],
      "name": "setProposalToEnded",
      "outputs": [],
      "stateMutability": "nonpayable",
      "type": "function"
    },
    {
      "inputs": [
        {
          "internalType": "uint256",
          "name": "_ProposalID",
          "type": "uint256"
        }
      ],
      "name": "getProposalStatus",
      "outputs": [
        {
          "internalType": "enum Voting.ProposalStatus",
          "name": "",
          "type": "uint8"
        }
      ],
      "stateMutability": "view",
      "type": "function",
      "constant": true
    },
    {
      "inputs": [
        {
          "internalType": "uint256",
          "name": "_ProposalID",
          "type": "uint256"
        }
      ],
      "name": "getProposalExpirationTime",
      "outputs": [
        {
          "internalType": "uint256",
          "name": "",
          "type": "uint256"
        }
      ],
      "stateMutability": "view",
      "type": "function",
      "constant": true
    },
    {
      "inputs": [
        {
          "internalType": "uint256",
          "name": "_ProposalID",
          "type": "uint256"
        },
        {
          "internalType": "address",
          "name": "_user",
          "type": "address"
        }
      ],
      "name": "userHasVoted",
      "outputs": [
        {
          "internalType": "bool",
          "name": "",
          "type": "bool"
        }
      ],
      "stateMutability": "view",
      "type": "function",
      "constant": true
    },
    {
      "inputs": [
        {
          "internalType": "uint256",
          "name": "_ProposalID",
          "type": "uint256"
        }
      ],
      "name": "countVotes",
      "outputs": [
        {
          "internalType": "uint256",
          "name": "",
          "type": "uint256"
        },
        {
          "internalType": "uint256",
          "name": "",
          "type": "uint256"
        },
        {
          "internalType": "string",
          "name": "",
          "type": "string"
        }
      ],
      "stateMutability": "view",
      "type": "function",
      "constant": true
    },
    {
      "inputs": [
        {
          "internalType": "uint256",
          "name": "_ProposalID",
          "type": "uint256"
        },
        {
          "internalType": "uint256",
          "name": "optionNum",
          "type": "uint256"
        }
      ],
      "name": "getWeight",
      "outputs": [
        {
          "internalType": "uint256",
          "name": "",
          "type": "uint256"
        }
      ],
      "stateMutability": "view",
      "type": "function",
      "constant": true
    },
    {
      "inputs": [
        {
          "internalType": "uint256",
          "name": "_ProposalID",
          "type": "uint256"
        },
        {
          "internalType": "uint256[]",
          "name": "_tokens",
          "type": "uint256[]"
        }
      ],
      "name": "castVote",
      "outputs": [],
      "stateMutability": "nonpayable",
      "type": "function"
    },
    {
      "inputs": [
        {
          "internalType": "address",
          "name": "account",
          "type": "address"
        },
        {
          "internalType": "uint256",
          "name": "amount",
          "type": "uint256"
        }
      ],
      "name": "mint",
      "outputs": [],
      "stateMutability": "nonpayable",
      "type": "function"
    },
    {
      "inputs": [
        {
          "internalType": "address",
          "name": "account",
          "type": "address"
        }
      ],
      "name": "balanceOf",
      "outputs": [
        {
          "internalType": "uint256",
          "name": "",
          "type": "uint256"
        }
      ],
      "stateMutability": "view",
      "type": "function",
      "constant": true
    }
  ],
  "bytecode": "0x60806040523480156200001157600080fd5b5062000032620000266200011560201b60201c565b6200011d60201b60201c565b6040518060400160405280600181526020017f5600000000000000000000000000000000000000000000000000000000000000815250600390805190602001906200007f929190620001e1565b506040518060400160405280600681526020017f566f74696e67000000000000000000000000000000000000000000000000000081525060049080519060200190620000cd929190620001e1565b5033600860006101000a81548173ffffffffffffffffffffffffffffffffffffffff021916908373ffffffffffffffffffffffffffffffffffffffff160217905550620002f5565b600033905090565b60008060009054906101000a900473ffffffffffffffffffffffffffffffffffffffff169050816000806101000a81548173ffffffffffffffffffffffffffffffffffffffff021916908373ffffffffffffffffffffffffffffffffffffffff1602179055508173ffffffffffffffffffffffffffffffffffffffff168173ffffffffffffffffffffffffffffffffffffffff167f8be0079c531659141344cd1fd0a4f28419497f9722a3daafe3b4186f6b6457e060405160405180910390a35050565b828054620001ef90620002c0565b90600052602060002090601f0160209004810192826200021357600085556200025f565b82601f106200022e57805160ff19168380011785556200025f565b828001600101855582156200025f579182015b828111156200025e57825182559160200191906001019062000241565b5b5090506200026e919062000272565b5090565b5b808211156200028d57600081600090555060010162000273565b5090565b7f4e487b7100000000000000000000000000000000000000000000000000000000600052602260045260246000fd5b60006002820490506001821680620002d957607f821691505b602082108103620002ef57620002ee62000291565b5b50919050565b613c4e80620003056000396000f3fe608060405234801561001057600080fd5b50600436106101c45760003560e01c80635fc48d7e116100f9578063ab15022611610097578063c08cc02d11610071578063c08cc02d14610544578063d1dbe7d814610562578063d547741f14610596578063f2fde38b146105b2576101c4565b8063ab150226146104d5578063b93a89f7146104f3578063be747c1c14610526576101c4565b80638da5cb5b116100d35780638da5cb5b1461044b57806391d148541461046957806395d89b4114610499578063a217fddf146104b7576101c4565b80635fc48d7e146103e157806370a0823114610411578063715018a614610441576101c4565b80632fa48e9e11610166578063401853b711610140578063401853b71461034957806340c10f19146103795780634c3bd9d6146103955780634d5f9eba146103b1576101c4565b80632fa48e9e146102e157806336568abe146102fd5780633989ae3414610319576101c4565b80631840f0ca116101a25780631840f0ca14610247578063248a9ca3146102795780632d5e9d29146102a95780632f2ff15d146102c5576101c4565b806301ffc9a7146101c957806306fdde03146101f95780630f39ee7214610217575b600080fd5b6101e360048036038101906101de9190612640565b6105ce565b6040516101f09190612688565b60405180910390f35b610201610648565b60405161020e919061273c565b60405180910390f35b610231600480360381019061022c9190612794565b6106d6565b60405161023e91906127e3565b60405180910390f35b610261600480360381019061025c91906127fe565b61070b565b6040516102709392919061282b565b60405180910390f35b610293600480360381019061028e919061289f565b61087d565b6040516102a091906128db565b60405180910390f35b6102c360048036038101906102be91906127fe565b61089d565b005b6102df60048036038101906102da9190612954565b610a83565b005b6102fb60048036038101906102f69190612adc565b610aa4565b005b61031760048036038101906103129190612954565b610ec3565b005b610333600480360381019061032e9190612be9565b610f46565b60405161034091906127e3565b60405180910390f35b610363600480360381019061035e91906127fe565b61122e565b6040516103709190612cf5565b60405180910390f35b610393600480360381019061038e9190612d10565b6112ae565b005b6103af60048036038101906103aa91906127fe565b61144d565b005b6103cb60048036038101906103c691906127fe565b611633565b6040516103d891906127e3565b60405180910390f35b6103fb60048036038101906103f69190612d50565b6116a6565b6040516104089190612688565b60405180910390f35b61042b60048036038101906104269190612d90565b611767565b60405161043891906127e3565b60405180910390f35b6104496117b0565b005b610453611838565b6040516104609190612dcc565b60405180910390f35b610483600480360381019061047e9190612954565b611861565b6040516104909190612688565b60405180910390f35b6104a16118cc565b6040516104ae919061273c565b60405180910390f35b6104bf61195a565b6040516104cc91906128db565b60405180910390f35b6104dd611961565b6040516104ea9190612688565b60405180910390f35b61050d600480360381019061050891906127fe565b6119c9565b60405161051d9493929190612ef3565b60405180910390f35b61052e611c3a565b60405161053b91906127e3565b60405180910390f35b61054c611c40565b60405161055991906127e3565b60405180910390f35b61057c600480360381019061057791906127fe565b611c4a565b60405161058d959493929190612f46565b60405180910390f35b6105b060048036038101906105ab9190612954565b611d35565b005b6105cc60048036038101906105c79190612d90565b611d56565b005b60007f7965db0b000000000000000000000000000000000000000000000000000000007bffffffffffffffffffffffffffffffffffffffffffffffffffffffff1916827bffffffffffffffffffffffffffffffffffffffffffffffffffffffff19161480610641575061064082611e4d565b5b9050919050565b6004805461065590612fcf565b80601f016020809104026020016040519081016040528092919081815260200182805461068190612fcf565b80156106ce5780601f106106a3576101008083540402835291602001916106ce565b820191906000526020600020905b8154815290600101906020018083116106b157829003601f168201915b505050505081565b600060076000848152602001908152602001600020600601600083815260200190815260200160002060010154905092915050565b60008060606000600760008681526020019081526020016000206004015490506000806000600190505b8381116107b15782600760008a81526020019081526020016000206006016000838152602001908152602001600020600101541061079e576007600089815260200190815260200160002060060160008281526020019081526020016000206001015492508091505b80806107a99061302f565b915050610735565b50600060076000898152602001908152602001600020600601600083815260200190815260200160002060000180546107e990612fcf565b80601f016020809104026020016040519081016040528092919081815260200182805461081590612fcf565b80156108625780601f1061083757610100808354040283529160200191610862565b820191906000526020600020905b81548152906001019060200180831161084557829003601f168201915b50505050509050818382965096509650505050509193909250565b600060016000838152602001908152602001600020600101549050919050565b806000811180156108b057506006548111155b6108ef576040517f08c379a00000000000000000000000000000000000000000000000000000000081526004016108e6906130c3565b60405180910390fd5b6108f7611eb7565b73ffffffffffffffffffffffffffffffffffffffff16610915611838565b73ffffffffffffffffffffffffffffffffffffffff161461096b576040517f08c379a00000000000000000000000000000000000000000000000000000000081526004016109629061312f565b60405180910390fd5b6000600281111561097f5761097e612c7e565b5b6007600084815260200190815260200160002060000160149054906101000a900460ff1660028111156109b5576109b4612c7e565b5b146109f5576040517f08c379a00000000000000000000000000000000000000000000000000000000081526004016109ec9061319b565b60405180910390fd5b6109fe82611633565b421015610a40576040517f08c379a0000000000000000000000000000000000000000000000000000000008152600401610a3790613207565b60405180910390fd5b60016007600084815260200190815260200160002060000160146101000a81548160ff02191690836002811115610a7a57610a79612c7e565b5b02179055505050565b610a8c8261087d565b610a9581611ebf565b610a9f8383611ed3565b505050565b81600081118015610ab757506006548111155b610af6576040517f08c379a0000000000000000000000000000000000000000000000000000000008152600401610aed906130c3565b60405180910390fd5b60006002811115610b0a57610b09612c7e565b5b610b138461122e565b6002811115610b2557610b24612c7e565b5b14610b65576040517f08c379a0000000000000000000000000000000000000000000000000000000008152600401610b5c90613273565b60405180910390fd5b610b6f83336116a6565b15610baf576040517f08c379a0000000000000000000000000000000000000000000000000000000008152600401610ba690613305565b60405180910390fd5b42610bb984611633565b11610bf9576040517f08c379a0000000000000000000000000000000000000000000000000000000008152600401610bf090613397565b60405180910390fd5b6000600760008581526020019081526020016000209050600080600190505b84518111610ced5784600182610c2e91906133b7565b81518110610c3f57610c3e6133eb565b5b60200260200101518360060160008381526020019081526020016000206001016000828254610c6e919061341a565b9250508190555084600182610c8391906133b7565b81518110610c9457610c936133eb565b5b602002602001015185600183610caa91906133b7565b81518110610cbb57610cba6133eb565b5b6020026020010151610ccd9190613470565b82610cd8919061341a565b91508080610ce59061302f565b915050610c18565b50610d4081600560003373ffffffffffffffffffffffffffffffffffffffff1673ffffffffffffffffffffffffffffffffffffffff16815260200190815260200160002054611fb390919063ffffffff16565b600560003373ffffffffffffffffffffffffffffffffffffffff1673ffffffffffffffffffffffffffffffffffffffff168152602001908152602001600020819055506040518060400160405280600115158152602001858152508260050160003373ffffffffffffffffffffffffffffffffffffffff1673ffffffffffffffffffffffffffffffffffffffff16815260200190815260200160002060008201518160000160006101000a81548160ff0219169083151502179055506020820151816001019080519060200190610e1892919061245e565b5090505081600201339080600181540180825580915050600190039060005260206000200160009091909190916101000a81548173ffffffffffffffffffffffffffffffffffffffff021916908373ffffffffffffffffffffffffffffffffffffffff1602179055507f73ab51df610edc81f5551eeb367d093666ac5ba1f45288102ff95f0db861724a338686604051610eb493929190613588565b60405180910390a15050505050565b610ecb611eb7565b73ffffffffffffffffffffffffffffffffffffffff168173ffffffffffffffffffffffffffffffffffffffff1614610f38576040517f08c379a0000000000000000000000000000000000000000000000000000000008152600401610f2f90613638565b60405180910390fd5b610f428282611fc9565b5050565b6000610f50611eb7565b73ffffffffffffffffffffffffffffffffffffffff16610f6e611838565b73ffffffffffffffffffffffffffffffffffffffff1614610fc4576040517f08c379a0000000000000000000000000000000000000000000000000000000008152600401610fbb9061312f565b60405180910390fd5b60008211611007576040517f08c379a0000000000000000000000000000000000000000000000000000000008152600401610ffe906136a4565b60405180910390fd5b6006600081548092919061101a9061302f565b919050555060006007600060065481526020019081526020016000209050338160000160006101000a81548173ffffffffffffffffffffffffffffffffffffffff021916908373ffffffffffffffffffffffffffffffffffffffff16021790555060008160000160146101000a81548160ff021916908360028111156110a3576110a2612c7e565b5b0217905550600183603c6110b79190613470565b6110c19190613470565b426110cc919061341a565b816003018190555086868260010191906110e79291906124ab565b5084849050816004018190555060005b858590508110156111dd5760405180604001604052808787848181106111205761111f6133eb565b5b905060200281019061113291906136d3565b8080601f016020809104026020016040519081016040528093929190818152602001838380828437600081840152601f19601f8201169050808301925050505050505081526020016000815250826006016000600184611192919061341a565b815260200190815260200160002060008201518160000190805190602001906111bc929190612531565b506020820151816001015590505080806111d59061302f565b9150506110f7565b507f812b79dc980087562a07c042555f014502c51aac180824c0546a12989f726b59338888888888604051611217969594939291906138b4565b60405180910390a160065491505095945050505050565b60008160008111801561124357506006548111155b611282576040517f08c379a0000000000000000000000000000000000000000000000000000000008152600401611279906130c3565b60405180910390fd5b6007600084815260200190815260200160002060000160149054906101000a900460ff16915050919050565b6112b6611eb7565b73ffffffffffffffffffffffffffffffffffffffff166112d4611838565b73ffffffffffffffffffffffffffffffffffffffff161461132a576040517f08c379a00000000000000000000000000000000000000000000000000000000081526004016113219061312f565b60405180910390fd5b600073ffffffffffffffffffffffffffffffffffffffff168273ffffffffffffffffffffffffffffffffffffffff1603611399576040517f08c379a000000000000000000000000000000000000000000000000000000000815260040161139090613957565b60405180910390fd5b6113ae816002546120ab90919063ffffffff16565b60028190555061140681600560008573ffffffffffffffffffffffffffffffffffffffff1673ffffffffffffffffffffffffffffffffffffffff168152602001908152602001600020546120ab90919063ffffffff16565b600560008473ffffffffffffffffffffffffffffffffffffffff1673ffffffffffffffffffffffffffffffffffffffff168152602001908152602001600020819055505050565b8060008111801561146057506006548111155b61149f576040517f08c379a0000000000000000000000000000000000000000000000000000000008152600401611496906130c3565b60405180910390fd5b6114a7611eb7565b73ffffffffffffffffffffffffffffffffffffffff166114c5611838565b73ffffffffffffffffffffffffffffffffffffffff161461151b576040517f08c379a00000000000000000000000000000000000000000000000000000000081526004016115129061312f565b60405180910390fd5b6001600281111561152f5761152e612c7e565b5b6007600084815260200190815260200160002060000160149054906101000a900460ff16600281111561156557611564612c7e565b5b146115a5576040517f08c379a000000000000000000000000000000000000000000000000000000000815260040161159c906139c3565b60405180910390fd5b6115ae82611633565b4210156115f0576040517f08c379a00000000000000000000000000000000000000000000000000000000081526004016115e790613207565b60405180910390fd5b60026007600084815260200190815260200160002060000160146101000a81548160ff0219169083600281111561162a57611629612c7e565b5b02179055505050565b60008160008111801561164857506006548111155b611687576040517f08c379a000000000000000000000000000000000000000000000000000000000815260040161167e906130c3565b60405180910390fd5b6007600084815260200190815260200160002060030154915050919050565b6000826000811180156116bb57506006548111155b6116fa576040517f08c379a00000000000000000000000000000000000000000000000000000000081526004016116f1906130c3565b60405180910390fd5b6007600085815260200190815260200160002060050160008473ffffffffffffffffffffffffffffffffffffffff1673ffffffffffffffffffffffffffffffffffffffff16815260200190815260200160002060000160009054906101000a900460ff1691505092915050565b6000600560008373ffffffffffffffffffffffffffffffffffffffff1673ffffffffffffffffffffffffffffffffffffffff168152602001908152602001600020549050919050565b6117b8611eb7565b73ffffffffffffffffffffffffffffffffffffffff166117d6611838565b73ffffffffffffffffffffffffffffffffffffffff161461182c576040517f08c379a00000000000000000000000000000000000000000000000000000000081526004016118239061312f565b60405180910390fd5b61183660006120c1565b565b60008060009054906101000a900473ffffffffffffffffffffffffffffffffffffffff16905090565b60006001600084815260200190815260200160002060000160008373ffffffffffffffffffffffffffffffffffffffff1673ffffffffffffffffffffffffffffffffffffffff16815260200190815260200160002060009054906101000a900460ff16905092915050565b600380546118d990612fcf565b80601f016020809104026020016040519081016040528092919081815260200182805461190590612fcf565b80156119525780601f1061192757610100808354040283529160200191611952565b820191906000526020600020905b81548152906001019060200180831161193557829003601f168201915b505050505081565b6000801b81565b6000600860009054906101000a900473ffffffffffffffffffffffffffffffffffffffff1673ffffffffffffffffffffffffffffffffffffffff163373ffffffffffffffffffffffffffffffffffffffff16036119c157600190506119c6565b600090505b90565b6060806000806000600760008781526020019081526020016000206004015467ffffffffffffffff811115611a0157611a00612999565b5b604051908082528060200260200182016040528015611a3457816020015b6060815260200190600190039081611a1f5790505b5090506000600190505b60076000888152602001908152602001600020600401548111611b4b576007600088815260200190815260200160002060060160008281526020019081526020016000206000018054611a9090612fcf565b80601f0160208091040260200160405190810160405280929190818152602001828054611abc90612fcf565b8015611b095780601f10611ade57610100808354040283529160200191611b09565b820191906000526020600020905b815481529060010190602001808311611aec57829003601f168201915b505050505082600183611b1c91906133b7565b81518110611b2d57611b2c6133eb565b5b60200260200101819052508080611b439061302f565b915050611a3e565b5060076000878152602001908152602001600020600101816007600089815260200190815260200160002060030154600760008a815260200190815260200160002060000160149054906101000a900460ff16838054611baa90612fcf565b80601f0160208091040260200160405190810160405280929190818152602001828054611bd690612fcf565b8015611c235780601f10611bf857610100808354040283529160200191611c23565b820191906000526020600020905b815481529060010190602001808311611c0657829003601f168201915b505050505093509450945094509450509193509193565b60065481565b6000600654905090565b60076020528060005260406000206000915090508060000160009054906101000a900473ffffffffffffffffffffffffffffffffffffffff16908060000160149054906101000a900460ff1690806001018054611ca690612fcf565b80601f0160208091040260200160405190810160405280929190818152602001828054611cd290612fcf565b8015611d1f5780601f10611cf457610100808354040283529160200191611d1f565b820191906000526020600020905b815481529060010190602001808311611d0257829003601f168201915b5050505050908060030154908060040154905085565b611d3e8261087d565b611d4781611ebf565b611d518383611fc9565b505050565b611d5e611eb7565b73ffffffffffffffffffffffffffffffffffffffff16611d7c611838565b73ffffffffffffffffffffffffffffffffffffffff1614611dd2576040517f08c379a0000000000000000000000000000000000000000000000000000000008152600401611dc99061312f565b60405180910390fd5b600073ffffffffffffffffffffffffffffffffffffffff168173ffffffffffffffffffffffffffffffffffffffff1603611e41576040517f08c379a0000000000000000000000000000000000000000000000000000000008152600401611e3890613a55565b60405180910390fd5b611e4a816120c1565b50565b60007f01ffc9a7000000000000000000000000000000000000000000000000000000007bffffffffffffffffffffffffffffffffffffffffffffffffffffffff1916827bffffffffffffffffffffffffffffffffffffffffffffffffffffffff1916149050919050565b600033905090565b611ed081611ecb611eb7565b612185565b50565b611edd8282611861565b611faf57600180600084815260200190815260200160002060000160008373ffffffffffffffffffffffffffffffffffffffff1673ffffffffffffffffffffffffffffffffffffffff16815260200190815260200160002060006101000a81548160ff021916908315150217905550611f54611eb7565b73ffffffffffffffffffffffffffffffffffffffff168173ffffffffffffffffffffffffffffffffffffffff16837f2f8788117e7eff1d82e926ec794901d17c78024a50270940304540a733656f0d60405160405180910390a45b5050565b60008183611fc191906133b7565b905092915050565b611fd38282611861565b156120a75760006001600084815260200190815260200160002060000160008373ffffffffffffffffffffffffffffffffffffffff1673ffffffffffffffffffffffffffffffffffffffff16815260200190815260200160002060006101000a81548160ff02191690831515021790555061204c611eb7565b73ffffffffffffffffffffffffffffffffffffffff168173ffffffffffffffffffffffffffffffffffffffff16837ff6391f5c32d9c69d2a47ea670b442974b53935d1edc7fd64eb21e047a839171b60405160405180910390a45b5050565b600081836120b9919061341a565b905092915050565b60008060009054906101000a900473ffffffffffffffffffffffffffffffffffffffff169050816000806101000a81548173ffffffffffffffffffffffffffffffffffffffff021916908373ffffffffffffffffffffffffffffffffffffffff1602179055508173ffffffffffffffffffffffffffffffffffffffff168173ffffffffffffffffffffffffffffffffffffffff167f8be0079c531659141344cd1fd0a4f28419497f9722a3daafe3b4186f6b6457e060405160405180910390a35050565b61218f8282611861565b61221e576121b48173ffffffffffffffffffffffffffffffffffffffff166014612222565b6121c28360001c6020612222565b6040516020016121d3929190613b49565b6040516020818303038152906040526040517f08c379a0000000000000000000000000000000000000000000000000000000008152600401612215919061273c565b60405180910390fd5b5050565b6060600060028360026122359190613470565b61223f919061341a565b67ffffffffffffffff81111561225857612257612999565b5b6040519080825280601f01601f19166020018201604052801561228a5781602001600182028036833780820191505090505b5090507f3000000000000000000000000000000000000000000000000000000000000000816000815181106122c2576122c16133eb565b5b60200101907effffffffffffffffffffffffffffffffffffffffffffffffffffffffffffff1916908160001a9053507f780000000000000000000000000000000000000000000000000000000000000081600181518110612326576123256133eb565b5b60200101907effffffffffffffffffffffffffffffffffffffffffffffffffffffffffffff1916908160001a905350600060018460026123669190613470565b612370919061341a565b90505b6001811115612410577f3031323334353637383961626364656600000000000000000000000000000000600f8616601081106123b2576123b16133eb565b5b1a60f81b8282815181106123c9576123c86133eb565b5b60200101907effffffffffffffffffffffffffffffffffffffffffffffffffffffffffffff1916908160001a905350600485901c94508061240990613b83565b9050612373565b5060008414612454576040517f08c379a000000000000000000000000000000000000000000000000000000000815260040161244b90613bf8565b60405180910390fd5b8091505092915050565b82805482825590600052602060002090810192821561249a579160200282015b8281111561249957825182559160200191906001019061247e565b5b5090506124a791906125b7565b5090565b8280546124b790612fcf565b90600052602060002090601f0160209004810192826124d95760008555612520565b82601f106124f257803560ff1916838001178555612520565b82800160010185558215612520579182015b8281111561251f578235825591602001919060010190612504565b5b50905061252d91906125b7565b5090565b82805461253d90612fcf565b90600052602060002090601f01602090048101928261255f57600085556125a6565b82601f1061257857805160ff19168380011785556125a6565b828001600101855582156125a6579182015b828111156125a557825182559160200191906001019061258a565b5b5090506125b391906125b7565b5090565b5b808211156125d05760008160009055506001016125b8565b5090565b6000604051905090565b600080fd5b600080fd5b60007fffffffff0000000000000000000000000000000000000000000000000000000082169050919050565b61261d816125e8565b811461262857600080fd5b50565b60008135905061263a81612614565b92915050565b600060208284031215612656576126556125de565b5b60006126648482850161262b565b91505092915050565b60008115159050919050565b6126828161266d565b82525050565b600060208201905061269d6000830184612679565b92915050565b600081519050919050565b600082825260208201905092915050565b60005b838110156126dd5780820151818401526020810190506126c2565b838111156126ec576000848401525b50505050565b6000601f19601f8301169050919050565b600061270e826126a3565b61271881856126ae565b93506127288185602086016126bf565b612731816126f2565b840191505092915050565b600060208201905081810360008301526127568184612703565b905092915050565b6000819050919050565b6127718161275e565b811461277c57600080fd5b50565b60008135905061278e81612768565b92915050565b600080604083850312156127ab576127aa6125de565b5b60006127b98582860161277f565b92505060206127ca8582860161277f565b9150509250929050565b6127dd8161275e565b82525050565b60006020820190506127f860008301846127d4565b92915050565b600060208284031215612814576128136125de565b5b60006128228482850161277f565b91505092915050565b600060608201905061284060008301866127d4565b61284d60208301856127d4565b818103604083015261285f8184612703565b9050949350505050565b6000819050919050565b61287c81612869565b811461288757600080fd5b50565b60008135905061289981612873565b92915050565b6000602082840312156128b5576128b46125de565b5b60006128c38482850161288a565b91505092915050565b6128d581612869565b82525050565b60006020820190506128f060008301846128cc565b92915050565b600073ffffffffffffffffffffffffffffffffffffffff82169050919050565b6000612921826128f6565b9050919050565b61293181612916565b811461293c57600080fd5b50565b60008135905061294e81612928565b92915050565b6000806040838503121561296b5761296a6125de565b5b60006129798582860161288a565b925050602061298a8582860161293f565b9150509250929050565b600080fd5b7f4e487b7100000000000000000000000000000000000000000000000000000000600052604160045260246000fd5b6129d1826126f2565b810181811067ffffffffffffffff821117156129f0576129ef612999565b5b80604052505050565b6000612a036125d4565b9050612a0f82826129c8565b919050565b600067ffffffffffffffff821115612a2f57612a2e612999565b5b602082029050602081019050919050565b600080fd5b6000612a58612a5384612a14565b6129f9565b90508083825260208201905060208402830185811115612a7b57612a7a612a40565b5b835b81811015612aa45780612a90888261277f565b845260208401935050602081019050612a7d565b5050509392505050565b600082601f830112612ac357612ac2612994565b5b8135612ad3848260208601612a45565b91505092915050565b60008060408385031215612af357612af26125de565b5b6000612b018582860161277f565b925050602083013567ffffffffffffffff811115612b2257612b216125e3565b5b612b2e85828601612aae565b9150509250929050565b600080fd5b60008083601f840112612b5357612b52612994565b5b8235905067ffffffffffffffff811115612b7057612b6f612b38565b5b602083019150836001820283011115612b8c57612b8b612a40565b5b9250929050565b60008083601f840112612ba957612ba8612994565b5b8235905067ffffffffffffffff811115612bc657612bc5612b38565b5b602083019150836020820283011115612be257612be1612a40565b5b9250929050565b600080600080600060608688031215612c0557612c046125de565b5b600086013567ffffffffffffffff811115612c2357612c226125e3565b5b612c2f88828901612b3d565b9550955050602086013567ffffffffffffffff811115612c5257612c516125e3565b5b612c5e88828901612b93565b93509350506040612c718882890161277f565b9150509295509295909350565b7f4e487b7100000000000000000000000000000000000000000000000000000000600052602160045260246000fd5b60038110612cbe57612cbd612c7e565b5b50565b6000819050612ccf82612cad565b919050565b6000612cdf82612cc1565b9050919050565b612cef81612cd4565b82525050565b6000602082019050612d0a6000830184612ce6565b92915050565b60008060408385031215612d2757612d266125de565b5b6000612d358582860161293f565b9250506020612d468582860161277f565b9150509250929050565b60008060408385031215612d6757612d666125de565b5b6000612d758582860161277f565b9250506020612d868582860161293f565b9150509250929050565b600060208284031215612da657612da56125de565b5b6000612db48482850161293f565b91505092915050565b612dc681612916565b82525050565b6000602082019050612de16000830184612dbd565b92915050565b600081519050919050565b600082825260208201905092915050565b6000819050602082019050919050565b600082825260208201905092915050565b6000612e2f826126a3565b612e398185612e13565b9350612e498185602086016126bf565b612e52816126f2565b840191505092915050565b6000612e698383612e24565b905092915050565b6000602082019050919050565b6000612e8982612de7565b612e938185612df2565b935083602082028501612ea585612e03565b8060005b85811015612ee15784840389528151612ec28582612e5d565b9450612ecd83612e71565b925060208a01995050600181019050612ea9565b50829750879550505050505092915050565b60006080820190508181036000830152612f0d8187612703565b90508181036020830152612f218186612e7e565b9050612f3060408301856127d4565b612f3d6060830184612ce6565b95945050505050565b600060a082019050612f5b6000830188612dbd565b612f686020830187612ce6565b8181036040830152612f7a8186612703565b9050612f8960608301856127d4565b612f9660808301846127d4565b9695505050505050565b7f4e487b7100000000000000000000000000000000000000000000000000000000600052602260045260246000fd5b60006002820490506001821680612fe757607f821691505b602082108103612ffa57612ff9612fa0565b5b50919050565b7f4e487b7100000000000000000000000000000000000000000000000000000000600052601160045260246000fd5b600061303a8261275e565b91507fffffffffffffffffffffffffffffffffffffffffffffffffffffffffffffffff820361306c5761306b613000565b5b600182019050919050565b7f4e6f7420612076616c69642050726f706f73616c204964000000000000000000600082015250565b60006130ad6017836126ae565b91506130b882613077565b602082019050919050565b600060208201905081810360008301526130dc816130a0565b9050919050565b7f4f776e61626c653a2063616c6c6572206973206e6f7420746865206f776e6572600082015250565b60006131196020836126ae565b9150613124826130e3565b602082019050919050565b600060208201905081810360008301526131488161310c565b9050919050565b7f566f7465206973206e6f7420696e2070726f6772657373000000000000000000600082015250565b60006131856017836126ae565b91506131908261314f565b602082019050919050565b600060208201905081810360008301526131b481613178565b9050919050565b7f766f74696e6720706572696f6420686173206e6f742065787069726564000000600082015250565b60006131f1601d836126ae565b91506131fc826131bb565b602082019050919050565b60006020820190508181036000830152613220816131e4565b9050919050565b7f70726f706f73616c2068617320657870697265642e0000000000000000000000600082015250565b600061325d6015836126ae565b915061326882613227565b602082019050919050565b6000602082019050818103600083015261328c81613250565b9050919050565b7f7573657220616c726561647920766f746564206f6e20746869732070726f706f60008201527f73616c0000000000000000000000000000000000000000000000000000000000602082015250565b60006132ef6023836126ae565b91506132fa82613293565b604082019050919050565b6000602082019050818103600083015261331e816132e2565b9050919050565b7f666f7220746869732070726f706f73616c2c2074686520766f74696e6720746960008201527f6d65206578706972656400000000000000000000000000000000000000000000602082015250565b6000613381602a836126ae565b915061338c82613325565b604082019050919050565b600060208201905081810360008301526133b081613374565b9050919050565b60006133c28261275e565b91506133cd8361275e565b9250828210156133e0576133df613000565b5b828203905092915050565b7f4e487b7100000000000000000000000000000000000000000000000000000000600052603260045260246000fd5b60006134258261275e565b91506134308361275e565b9250827fffffffffffffffffffffffffffffffffffffffffffffffffffffffffffffffff0382111561346557613464613000565b5b828201905092915050565b600061347b8261275e565b91506134868361275e565b9250817fffffffffffffffffffffffffffffffffffffffffffffffffffffffffffffffff04831182151516156134bf576134be613000565b5b828202905092915050565b600081519050919050565b600082825260208201905092915050565b6000819050602082019050919050565b6134ff8161275e565b82525050565b600061351183836134f6565b60208301905092915050565b6000602082019050919050565b6000613535826134ca565b61353f81856134d5565b935061354a836134e6565b8060005b8381101561357b5781516135628882613505565b975061356d8361351d565b92505060018101905061354e565b5085935050505092915050565b600060608201905061359d6000830186612dbd565b6135aa60208301856127d4565b81810360408301526135bc818461352a565b9050949350505050565b7f416363657373436f6e74726f6c3a2063616e206f6e6c792072656e6f756e636560008201527f20726f6c657320666f722073656c660000000000000000000000000000000000602082015250565b6000613622602f836126ae565b915061362d826135c6565b604082019050919050565b6000602082019050818103600083015261365181613615565b9050919050565b7f54686520766f74696e6720706572696f642063616e6e6f742062652030000000600082015250565b600061368e601d836126ae565b915061369982613658565b602082019050919050565b600060208201905081810360008301526136bd81613681565b9050919050565b600080fd5b600080fd5b600080fd5b600080833560016020038436030381126136f0576136ef6136c4565b5b80840192508235915067ffffffffffffffff821115613712576137116136c9565b5b60208301925060018202360383131561372e5761372d6136ce565b5b509250929050565b82818337600083830152505050565b600061375183856126ae565b935061375e838584613736565b613767836126f2565b840190509392505050565b6000819050919050565b60006137888385612e13565b9350613795838584613736565b61379e836126f2565b840190509392505050565b60006137b684848461377c565b90509392505050565b600080fd5b600080fd5b600080fd5b600080833560016020038436030381126137eb576137ea6137c9565b5b83810192508235915060208301925067ffffffffffffffff821115613813576138126137bf565b5b600182023603831315613829576138286137c4565b5b509250929050565b6000602082019050919050565b600061384a8385612df2565b93508360208402850161385c84613772565b8060005b878110156138a257848403895261387782846137ce565b6138828682846137a9565b955061388d84613831565b935060208b019a505050600181019050613860565b50829750879450505050509392505050565b60006080820190506138c96000830189612dbd565b81810360208301526138dc818789613745565b905081810360408301526138f181858761383e565b905061390060608301846127d4565b979650505050505050565b7f206d696e7420746f20746865207a65726f206164647265737300000000000000600082015250565b60006139416019836126ae565b915061394c8261390b565b602082019050919050565b6000602082019050818103600083015261397081613934565b9050919050565b7f50726f706f73616c2073686f756c6420626520696e2074616c6c790000000000600082015250565b60006139ad601b836126ae565b91506139b882613977565b602082019050919050565b600060208201905081810360008301526139dc816139a0565b9050919050565b7f4f776e61626c653a206e6577206f776e657220697320746865207a65726f206160008201527f6464726573730000000000000000000000000000000000000000000000000000602082015250565b6000613a3f6026836126ae565b9150613a4a826139e3565b604082019050919050565b60006020820190508181036000830152613a6e81613a32565b9050919050565b600081905092915050565b7f416363657373436f6e74726f6c3a206163636f756e7420000000000000000000600082015250565b6000613ab6601783613a75565b9150613ac182613a80565b601782019050919050565b6000613ad7826126a3565b613ae18185613a75565b9350613af18185602086016126bf565b80840191505092915050565b7f206973206d697373696e6720726f6c6520000000000000000000000000000000600082015250565b6000613b33601183613a75565b9150613b3e82613afd565b601182019050919050565b6000613b5482613aa9565b9150613b608285613acc565b9150613b6b82613b26565b9150613b778284613acc565b91508190509392505050565b6000613b8e8261275e565b915060008203613ba157613ba0613000565b5b600182039050919050565b7f537472696e67733a20686578206c656e67746820696e73756666696369656e74600082015250565b6000613be26020836126ae565b9150613bed82613bac565b602082019050919050565b60006020820190508181036000830152613c1181613bd5565b905091905056fea26469706673582212202467eb673d48217b46133da80b9932bb160e71ea1b0f0a3b3610220b0930ed7564736f6c634300080e0033",
  "immutableReferences": {},
  "source": "// SPDX-License-Identifier: MIT\r\npragma solidity ^0.8.0;\r\n\r\nimport \"@openzeppelin/contracts/utils/math/SafeMath.sol\";\r\nimport \"@openzeppelin/contracts/access/Ownable.sol\";\r\nimport \"@openzeppelin/contracts/access/AccessControl.sol\";\r\n\r\ncontract Voting is Ownable, AccessControl {\r\n    using SafeMath for uint256;\r\n    uint256 private _totalSupply;\r\n    string public symbol;\r\n    string public name;\r\n    mapping(address => uint256) private _balances;\r\n    uint256 public ProposalCount;\r\n\r\n    event VoteCasted(address voter, uint256 ProposalID, uint256[] _tokens);\r\n\r\n    event ProposalCreated(\r\n        address creator,\r\n        string description,\r\n        string[] _options,\r\n        uint256 votingTimeInHours\r\n    );\r\n\r\n    struct Proposal {\r\n        address creator;\r\n        ProposalStatus status;\r\n        string description;\r\n        address[] voters;\r\n        uint256 expirationTime;\r\n        uint256 numOfOptions;\r\n        mapping(address => Voter) voterInfo;\r\n        mapping(uint256 => option) options;\r\n    }\r\n    enum ProposalStatus {\r\n        IN_PROGRESS,\r\n        TALLY,\r\n        ENDED\r\n    }\r\n    struct Voter {\r\n        bool hasVoted;\r\n        uint256[] _tokens;\r\n    }\r\n\r\n    struct option {\r\n        string optionName;\r\n        uint256 totalWeight;\r\n    }\r\n    mapping(uint256 => Proposal) public Proposals;\r\n\r\n    address private Owner;\r\n\r\n    constructor() public {\r\n        symbol = \"V\";\r\n        name = \"Voting\";\r\n        Owner = msg.sender;\r\n    }\r\n\r\n    function checkAdmin() public view returns (bool) {\r\n        if (msg.sender == Owner) {\r\n            return true;\r\n        }\r\n        return false;\r\n    }\r\n\r\n    function createProposal(\r\n        string calldata _description,\r\n        string[] calldata _options,\r\n        uint256 _voteExpirationTime\r\n    ) external onlyOwner returns (uint256) {\r\n        require(_voteExpirationTime > 0, \"The voting period cannot be 0\");\r\n        ProposalCount++;\r\n        Proposal storage curProposal = Proposals[ProposalCount];\r\n        curProposal.creator = msg.sender;\r\n        curProposal.status = ProposalStatus.IN_PROGRESS;\r\n        curProposal.expirationTime =\r\n            block.timestamp +\r\n            60 *\r\n            _voteExpirationTime *\r\n            1 seconds;\r\n        curProposal.description = _description;\r\n        curProposal.numOfOptions = _options.length;\r\n        for (uint256 i = 0; i < _options.length; i++) {\r\n            curProposal.options[i + 1] = option({\r\n                optionName: _options[i],\r\n                totalWeight: 0\r\n            });\r\n        }\r\n\r\n        emit ProposalCreated(\r\n            msg.sender,\r\n            _description,\r\n            _options,\r\n            _voteExpirationTime\r\n        );\r\n        return ProposalCount;\r\n    }\r\n\r\n    function getProposalCount() public view returns (uint256) {\r\n        return ProposalCount;\r\n    }\r\n\r\n    function setProposalToTally(uint256 _ProposalID)\r\n        external\r\n        validProposal(_ProposalID)\r\n        onlyOwner\r\n    {\r\n        require(\r\n            Proposals[_ProposalID].status == ProposalStatus.IN_PROGRESS,\r\n            \"Vote is not in progress\"\r\n        );\r\n        require(\r\n            block.timestamp >= getProposalExpirationTime(_ProposalID),\r\n            \"voting period has not expired\"\r\n        );\r\n        Proposals[_ProposalID].status = ProposalStatus.TALLY;\r\n    }\r\n\r\n    function getDetails(uint256 _ProposalID)\r\n        external\r\n        view\r\n        returns (\r\n            string memory,\r\n            string[] memory,\r\n            uint256,\r\n            ProposalStatus\r\n        )\r\n    {\r\n        string[] memory _options = new string[](\r\n            Proposals[_ProposalID].numOfOptions\r\n        );\r\n        for (uint256 i = 1; i <= Proposals[_ProposalID].numOfOptions; i++) {\r\n            _options[i - 1] = Proposals[_ProposalID].options[i].optionName;\r\n        }\r\n        return (\r\n            Proposals[_ProposalID].description,\r\n            _options,\r\n            Proposals[_ProposalID].expirationTime,\r\n            Proposals[_ProposalID].status\r\n        );\r\n    }\r\n\r\n    function setProposalToEnded(uint256 _ProposalID)\r\n        external\r\n        validProposal(_ProposalID)\r\n        onlyOwner\r\n    {\r\n        require(\r\n            Proposals[_ProposalID].status == ProposalStatus.TALLY,\r\n            \"Proposal should be in tally\"\r\n        );\r\n        require(\r\n            block.timestamp >= getProposalExpirationTime(_ProposalID),\r\n            \"voting period has not expired\"\r\n        );\r\n        Proposals[_ProposalID].status = ProposalStatus.ENDED;\r\n    }\r\n\r\n    function getProposalStatus(uint256 _ProposalID)\r\n        public\r\n        view\r\n        validProposal(_ProposalID)\r\n        returns (ProposalStatus)\r\n    {\r\n        return Proposals[_ProposalID].status;\r\n    }\r\n\r\n    function getProposalExpirationTime(uint256 _ProposalID)\r\n        public\r\n        view\r\n        validProposal(_ProposalID)\r\n        returns (uint256)\r\n    {\r\n        return Proposals[_ProposalID].expirationTime;\r\n    }\r\n\r\n    modifier validProposal(uint256 _ProposalID) {\r\n        require(\r\n            _ProposalID > 0 && _ProposalID <= ProposalCount,\r\n            \"Not a valid Proposal Id\"\r\n        );\r\n        _;\r\n    }\r\n\r\n    function userHasVoted(uint256 _ProposalID, address _user)\r\n        public\r\n        view\r\n        validProposal(_ProposalID)\r\n        returns (bool)\r\n    {\r\n        return (Proposals[_ProposalID].voterInfo[_user].hasVoted);\r\n    }\r\n\r\n    /**\r\n     * @dev to get winner of poll.\r\n     * @param _ProposalID the proposal id\r\n     * returns index of options, total weight of option and name of option\r\n     */\r\n\r\n    function countVotes(uint256 _ProposalID)\r\n        public\r\n        view\r\n        returns (\r\n            uint256,\r\n            uint256,\r\n            string memory\r\n        )\r\n    {\r\n        uint256 len = Proposals[_ProposalID].numOfOptions;\r\n        uint256 maxWeight;\r\n        uint256 index;\r\n        for (uint256 i = 1; i <= len; i++) {\r\n            if (Proposals[_ProposalID].options[i].totalWeight >= maxWeight) {\r\n                maxWeight = Proposals[_ProposalID].options[i].totalWeight;\r\n                index = i;\r\n            }\r\n        }\r\n        string memory n = Proposals[_ProposalID].options[index].optionName;\r\n        return (index, maxWeight, n);\r\n    }\r\n\r\n    function getWeight(uint256 _ProposalID, uint256 optionNum)\r\n        public\r\n        view\r\n        returns (uint256)\r\n    {\r\n        return Proposals[_ProposalID].options[optionNum].totalWeight;\r\n    }\r\n\r\n    function castVote(uint256 _ProposalID, uint256[] memory _tokens)\r\n        external\r\n        validProposal(_ProposalID)\r\n    {\r\n        require(\r\n            getProposalStatus(_ProposalID) == ProposalStatus.IN_PROGRESS,\r\n            \"proposal has expired.\"\r\n        );\r\n        require(\r\n            !userHasVoted(_ProposalID, msg.sender),\r\n            \"user already voted on this proposal\"\r\n        );\r\n        require(\r\n            getProposalExpirationTime(_ProposalID) > block.timestamp,\r\n            \"for this proposal, the voting time expired\"\r\n        );\r\n        Proposal storage curproposal = Proposals[_ProposalID];\r\n        uint256 total = 0;\r\n        for (uint256 i = 1; i <= _tokens.length; i++) {\r\n            curproposal.options[i].totalWeight += _tokens[i - 1];\r\n            total = total + (_tokens[i - 1] * _tokens[i - 1]);\r\n        }\r\n\r\n        _balances[msg.sender] = _balances[msg.sender].sub(total);\r\n\r\n        curproposal.voterInfo[msg.sender] = Voter({\r\n            hasVoted: true,\r\n            _tokens: _tokens\r\n        });\r\n\r\n        curproposal.voters.push(msg.sender);\r\n\r\n        emit VoteCasted(msg.sender, _ProposalID, _tokens);\r\n    }\r\n\r\n    function sqrt(uint256 x) internal pure returns (uint256 y) {\r\n        uint256 z = (x + 1) / 2;\r\n        y = x;\r\n        while (z < y) {\r\n            y = z;\r\n            z = (x / z + z) / 2;\r\n        }\r\n    }\r\n\r\n    /**\r\n     * @dev minting more tokens for an account\r\n     */\r\n    function mint(address account, uint256 amount) public onlyOwner {\r\n        require(account != address(0), \" mint to the zero address\");\r\n        _totalSupply = _totalSupply.add(amount);\r\n        _balances[account] = _balances[account].add(amount);\r\n    }\r\n\r\n    /**\r\n     * @dev returns the balance of an account\r\n     */\r\n    function balanceOf(address account) public view returns (uint256) {\r\n        return _balances[account];\r\n    }\r\n}\r\n",
  "sourcePath": "C:\\Users\\sande\\Desktop\\quadratic_voting\\frontend\\truffle\\contracts\\QVVoting.sol",
  "compiler": {
    "name": "solc",
    "version": "0.8.14+commit.80d49f37.Emscripten.clang"
  },
  "schemaVersion": "3.4.7",
  "updatedAt": "2022-07-15T17:38:38.095Z",
  "networkType": "ethereum",
  "devdoc": {
    "kind": "dev",
    "methods": {
      "balanceOf(address)": {
        "details": "returns the balance of an account"
      },
      "countVotes(uint256)": {
        "details": "to get winner of poll.",
        "params": {
          "_ProposalID": "the proposal id returns index of options, total weight of option and name of option"
        }
      },
      "getRoleAdmin(bytes32)": {
        "details": "Returns the admin role that controls `role`. See {grantRole} and {revokeRole}. To change a role's admin, use {_setRoleAdmin}."
      },
      "grantRole(bytes32,address)": {
        "details": "Grants `role` to `account`. If `account` had not been already granted `role`, emits a {RoleGranted} event. Requirements: - the caller must have ``role``'s admin role."
      },
      "hasRole(bytes32,address)": {
        "details": "Returns `true` if `account` has been granted `role`."
      },
      "mint(address,uint256)": {
        "details": "minting more tokens for an account"
      },
      "owner()": {
        "details": "Returns the address of the current owner."
      },
      "renounceOwnership()": {
        "details": "Leaves the contract without owner. It will not be possible to call `onlyOwner` functions anymore. Can only be called by the current owner. NOTE: Renouncing ownership will leave the contract without an owner, thereby removing any functionality that is only available to the owner."
      },
      "renounceRole(bytes32,address)": {
        "details": "Revokes `role` from the calling account. Roles are often managed via {grantRole} and {revokeRole}: this function's purpose is to provide a mechanism for accounts to lose their privileges if they are compromised (such as when a trusted device is misplaced). If the calling account had been revoked `role`, emits a {RoleRevoked} event. Requirements: - the caller must be `account`."
      },
      "revokeRole(bytes32,address)": {
        "details": "Revokes `role` from `account`. If `account` had been granted `role`, emits a {RoleRevoked} event. Requirements: - the caller must have ``role``'s admin role."
      },
      "supportsInterface(bytes4)": {
        "details": "See {IERC165-supportsInterface}."
      },
      "transferOwnership(address)": {
        "details": "Transfers ownership of the contract to a new account (`newOwner`). Can only be called by the current owner."
      }
    },
    "version": 1
  },
  "userdoc": {
    "kind": "user",
    "methods": {},
    "version": 1
  }
}