{
  "contractName": "Voting",
  "abi": [
    {
      "inputs": [],
      "stateMutability": "nonpayable",
      "type": "constructor"
    },
    {
      "anonymous": false,
      "inputs": [
        {
          "indexed": true,
          "internalType": "address",
          "name": "previousOwner",
          "type": "address"
        },
        {
          "indexed": true,
          "internalType": "address",
          "name": "newOwner",
          "type": "address"
        }
      ],
      "name": "OwnershipTransferred",
      "type": "event"
    },
    {
      "anonymous": false,
      "inputs": [
        {
          "indexed": false,
          "internalType": "address",
          "name": "creator",
          "type": "address"
        },
        {
          "indexed": false,
          "internalType": "string",
          "name": "description",
          "type": "string"
        },
        {
          "indexed": false,
          "internalType": "string[]",
          "name": "_options",
          "type": "string[]"
        },
        {
          "indexed": false,
          "internalType": "uint256",
          "name": "votingTimeInHours",
          "type": "uint256"
        }
      ],
      "name": "ProposalCreated",
      "type": "event"
    },
    {
      "anonymous": false,
      "inputs": [
        {
          "indexed": true,
          "internalType": "bytes32",
          "name": "role",
          "type": "bytes32"
        },
        {
          "indexed": true,
          "internalType": "bytes32",
          "name": "previousAdminRole",
          "type": "bytes32"
        },
        {
          "indexed": true,
          "internalType": "bytes32",
          "name": "newAdminRole",
          "type": "bytes32"
        }
      ],
      "name": "RoleAdminChanged",
      "type": "event"
    },
    {
      "anonymous": false,
      "inputs": [
        {
          "indexed": true,
          "internalType": "bytes32",
          "name": "role",
          "type": "bytes32"
        },
        {
          "indexed": true,
          "internalType": "address",
          "name": "account",
          "type": "address"
        },
        {
          "indexed": true,
          "internalType": "address",
          "name": "sender",
          "type": "address"
        }
      ],
      "name": "RoleGranted",
      "type": "event"
    },
    {
      "anonymous": false,
      "inputs": [
        {
          "indexed": true,
          "internalType": "bytes32",
          "name": "role",
          "type": "bytes32"
        },
        {
          "indexed": true,
          "internalType": "address",
          "name": "account",
          "type": "address"
        },
        {
          "indexed": true,
          "internalType": "address",
          "name": "sender",
          "type": "address"
        }
      ],
      "name": "RoleRevoked",
      "type": "event"
    },
    {
      "anonymous": false,
      "inputs": [
        {
          "indexed": false,
          "internalType": "address",
          "name": "voter",
          "type": "address"
        },
        {
          "indexed": false,
          "internalType": "uint256",
          "name": "ProposalID",
          "type": "uint256"
        },
        {
          "indexed": false,
          "internalType": "uint256[]",
          "name": "_tokens",
          "type": "uint256[]"
        }
      ],
      "name": "VoteCasted",
      "type": "event"
    },
    {
      "inputs": [],
      "name": "DEFAULT_ADMIN_ROLE",
      "outputs": [
        {
          "internalType": "bytes32",
          "name": "",
          "type": "bytes32"
        }
      ],
      "stateMutability": "view",
      "type": "function",
      "constant": true
    },
    {
      "inputs": [],
      "name": "ProposalCount",
      "outputs": [
        {
          "internalType": "uint256",
          "name": "",
          "type": "uint256"
        }
      ],
      "stateMutability": "view",
      "type": "function",
      "constant": true
    },
    {
      "inputs": [
        {
          "internalType": "uint256",
          "name": "",
          "type": "uint256"
        }
      ],
      "name": "Proposals",
      "outputs": [
        {
          "internalType": "address",
          "name": "creator",
          "type": "address"
        },
        {
          "internalType": "enum Voting.ProposalStatus",
          "name": "status",
          "type": "uint8"
        },
        {
          "internalType": "string",
          "name": "description",
          "type": "string"
        },
        {
          "internalType": "uint256",
          "name": "expirationTime",
          "type": "uint256"
        },
        {
          "internalType": "uint256",
          "name": "numOfOptions",
          "type": "uint256"
        }
      ],
      "stateMutability": "view",
      "type": "function",
      "constant": true
    },
    {
      "inputs": [
        {
          "internalType": "bytes32",
          "name": "role",
          "type": "bytes32"
        }
      ],
      "name": "getRoleAdmin",
      "outputs": [
        {
          "internalType": "bytes32",
          "name": "",
          "type": "bytes32"
        }
      ],
      "stateMutability": "view",
      "type": "function",
      "constant": true
    },
    {
      "inputs": [
        {
          "internalType": "bytes32",
          "name": "role",
          "type": "bytes32"
        },
        {
          "internalType": "address",
          "name": "account",
          "type": "address"
        }
      ],
      "name": "grantRole",
      "outputs": [],
      "stateMutability": "nonpayable",
      "type": "function"
    },
    {
      "inputs": [
        {
          "internalType": "bytes32",
          "name": "role",
          "type": "bytes32"
        },
        {
          "internalType": "address",
          "name": "account",
          "type": "address"
        }
      ],
      "name": "hasRole",
      "outputs": [
        {
          "internalType": "bool",
          "name": "",
          "type": "bool"
        }
      ],
      "stateMutability": "view",
      "type": "function",
      "constant": true
    },
    {
      "inputs": [],
      "name": "name",
      "outputs": [
        {
          "internalType": "string",
          "name": "",
          "type": "string"
        }
      ],
      "stateMutability": "view",
      "type": "function",
      "constant": true
    },
    {
      "inputs": [],
      "name": "owner",
      "outputs": [
        {
          "internalType": "address",
          "name": "",
          "type": "address"
        }
      ],
      "stateMutability": "view",
      "type": "function",
      "constant": true
    },
    {
      "inputs": [],
      "name": "renounceOwnership",
      "outputs": [],
      "stateMutability": "nonpayable",
      "type": "function"
    },
    {
      "inputs": [
        {
          "internalType": "bytes32",
          "name": "role",
          "type": "bytes32"
        },
        {
          "internalType": "address",
          "name": "account",
          "type": "address"
        }
      ],
      "name": "renounceRole",
      "outputs": [],
      "stateMutability": "nonpayable",
      "type": "function"
    },
    {
      "inputs": [
        {
          "internalType": "bytes32",
          "name": "role",
          "type": "bytes32"
        },
        {
          "internalType": "address",
          "name": "account",
          "type": "address"
        }
      ],
      "name": "revokeRole",
      "outputs": [],
      "stateMutability": "nonpayable",
      "type": "function"
    },
    {
      "inputs": [
        {
          "internalType": "bytes4",
          "name": "interfaceId",
          "type": "bytes4"
        }
      ],
      "name": "supportsInterface",
      "outputs": [
        {
          "internalType": "bool",
          "name": "",
          "type": "bool"
        }
      ],
      "stateMutability": "view",
      "type": "function",
      "constant": true
    },
    {
      "inputs": [],
      "name": "symbol",
      "outputs": [
        {
          "internalType": "string",
          "name": "",
          "type": "string"
        }
      ],
      "stateMutability": "view",
      "type": "function",
      "constant": true
    },
    {
      "inputs": [
        {
          "internalType": "address",
          "name": "newOwner",
          "type": "address"
        }
      ],
      "name": "transferOwnership",
      "outputs": [],
      "stateMutability": "nonpayable",
      "type": "function"
    },
    {
      "inputs": [],
      "name": "checkAdmin",
      "outputs": [
        {
          "internalType": "bool",
          "name": "",
          "type": "bool"
        }
      ],
      "stateMutability": "view",
      "type": "function",
      "constant": true
    },
    {
      "inputs": [
        {
          "internalType": "string",
          "name": "_description",
          "type": "string"
        },
        {
          "internalType": "string[]",
          "name": "_options",
          "type": "string[]"
        },
        {
          "internalType": "uint256",
          "name": "_voteExpirationTime",
          "type": "uint256"
        }
      ],
      "name": "createProposal",
      "outputs": [
        {
          "internalType": "uint256",
          "name": "",
          "type": "uint256"
        }
      ],
      "stateMutability": "nonpayable",
      "type": "function"
    },
    {
      "inputs": [
        {
          "internalType": "uint256",
          "name": "_ProposalID",
          "type": "uint256"
        }
      ],
      "name": "setProposalToTally",
      "outputs": [],
      "stateMutability": "nonpayable",
      "type": "function"
    },
    {
      "inputs": [
        {
          "internalType": "uint256",
          "name": "_ProposalID",
          "type": "uint256"
        }
      ],
      "name": "getDetails",
      "outputs": [
        {
          "internalType": "string",
          "name": "",
          "type": "string"
        },
        {
          "internalType": "string[]",
          "name": "",
          "type": "string[]"
        }
      ],
      "stateMutability": "view",
      "type": "function",
      "constant": true
    },
    {
      "inputs": [
        {
          "internalType": "uint256",
          "name": "_ProposalID",
          "type": "uint256"
        }
      ],
      "name": "setProposalToEnded",
      "outputs": [],
      "stateMutability": "nonpayable",
      "type": "function"
    },
    {
      "inputs": [
        {
          "internalType": "uint256",
          "name": "_ProposalID",
          "type": "uint256"
        }
      ],
      "name": "getProposalStatus",
      "outputs": [
        {
          "internalType": "enum Voting.ProposalStatus",
          "name": "",
          "type": "uint8"
        }
      ],
      "stateMutability": "view",
      "type": "function",
      "constant": true
    },
    {
      "inputs": [
        {
          "internalType": "uint256",
          "name": "_ProposalID",
          "type": "uint256"
        }
      ],
      "name": "getProposalExpirationTime",
      "outputs": [
        {
          "internalType": "uint256",
          "name": "",
          "type": "uint256"
        }
      ],
      "stateMutability": "view",
      "type": "function",
      "constant": true
    },
    {
      "inputs": [
        {
          "internalType": "uint256",
          "name": "_ProposalID",
          "type": "uint256"
        }
      ],
      "name": "countVotes",
      "outputs": [
        {
          "internalType": "uint256",
          "name": "",
          "type": "uint256"
        },
        {
          "internalType": "uint256",
          "name": "",
          "type": "uint256"
        },
        {
          "internalType": "string",
          "name": "",
          "type": "string"
        }
      ],
      "stateMutability": "view",
      "type": "function",
      "constant": true
    },
    {
      "inputs": [
        {
          "internalType": "uint256",
          "name": "_ProposalID",
          "type": "uint256"
        },
        {
          "internalType": "uint256",
          "name": "optionNum",
          "type": "uint256"
        }
      ],
      "name": "getWeight",
      "outputs": [
        {
          "internalType": "uint256",
          "name": "",
          "type": "uint256"
        }
      ],
      "stateMutability": "view",
      "type": "function",
      "constant": true
    },
    {
      "inputs": [
        {
          "internalType": "uint256",
          "name": "_ProposalID",
          "type": "uint256"
        },
        {
          "internalType": "uint256[]",
          "name": "_tokens",
          "type": "uint256[]"
        }
      ],
      "name": "castVote",
      "outputs": [],
      "stateMutability": "nonpayable",
      "type": "function"
    },
    {
      "inputs": [
        {
          "internalType": "address",
          "name": "account",
          "type": "address"
        },
        {
          "internalType": "uint256",
          "name": "amount",
          "type": "uint256"
        }
      ],
      "name": "mint",
      "outputs": [],
      "stateMutability": "nonpayable",
      "type": "function"
    },
    {
      "inputs": [
        {
          "internalType": "address",
          "name": "account",
          "type": "address"
        }
      ],
      "name": "balanceOf",
      "outputs": [
        {
          "internalType": "uint256",
          "name": "",
          "type": "uint256"
        }
      ],
      "stateMutability": "view",
      "type": "function",
      "constant": true
    }
  ],
  "bytecode": "0x60806040523480156200001157600080fd5b5062000032620000266200011560201b60201c565b6200011d60201b60201c565b6040518060400160405280600181526020017f5600000000000000000000000000000000000000000000000000000000000000815250600390805190602001906200007f929190620001e1565b506040518060400160405280600681526020017f566f74696e67000000000000000000000000000000000000000000000000000081525060049080519060200190620000cd929190620001e1565b5033600860006101000a81548173ffffffffffffffffffffffffffffffffffffffff021916908373ffffffffffffffffffffffffffffffffffffffff160217905550620002f5565b600033905090565b60008060009054906101000a900473ffffffffffffffffffffffffffffffffffffffff169050816000806101000a81548173ffffffffffffffffffffffffffffffffffffffff021916908373ffffffffffffffffffffffffffffffffffffffff1602179055508173ffffffffffffffffffffffffffffffffffffffff168173ffffffffffffffffffffffffffffffffffffffff167f8be0079c531659141344cd1fd0a4f28419497f9722a3daafe3b4186f6b6457e060405160405180910390a35050565b828054620001ef90620002c0565b90600052602060002090601f0160209004810192826200021357600085556200025f565b82601f106200022e57805160ff19168380011785556200025f565b828001600101855582156200025f579182015b828111156200025e57825182559160200191906001019062000241565b5b5090506200026e919062000272565b5090565b5b808211156200028d57600081600090555060010162000273565b5090565b7f4e487b7100000000000000000000000000000000000000000000000000000000600052602260045260246000fd5b60006002820490506001821680620002d957607f821691505b602082108103620002ef57620002ee62000291565b5b50919050565b613b1e80620003056000396000f3fe608060405234801561001057600080fd5b506004361061018e5760003560e01c80634d5f9eba116100de578063a217fddf11610097578063be747c1c11610071578063be747c1c146104be578063d1dbe7d8146104dc578063d547741f14610510578063f2fde38b1461052c5761018e565b8063a217fddf14610451578063ab1502261461046f578063b93a89f71461048d5761018e565b80634d5f9eba1461037b57806370a08231146103ab578063715018a6146103db5780638da5cb5b146103e557806391d148541461040357806395d89b41146104335761018e565b80632f2ff15d1161014b5780633989ae34116101255780633989ae34146102e3578063401853b71461031357806340c10f19146103435780634c3bd9d61461035f5761018e565b80632f2ff15d1461028f5780632fa48e9e146102ab57806336568abe146102c75761018e565b806301ffc9a71461019357806306fdde03146101c35780630f39ee72146101e15780631840f0ca14610211578063248a9ca3146102435780632d5e9d2914610273575b600080fd5b6101ad60048036038101906101a8919061256c565b610548565b6040516101ba91906125b4565b60405180910390f35b6101cb6105c2565b6040516101d89190612668565b60405180910390f35b6101fb60048036038101906101f691906126c0565b610650565b604051610208919061270f565b60405180910390f35b61022b6004803603810190610226919061272a565b610685565b60405161023a93929190612757565b60405180910390f35b61025d600480360381019061025891906127cb565b6107f7565b60405161026a9190612807565b60405180910390f35b61028d6004803603810190610288919061272a565b610817565b005b6102a960048036038101906102a49190612880565b6109fd565b005b6102c560048036038101906102c09190612a08565b610a1e565b005b6102e160048036038101906102dc9190612880565b610e3d565b005b6102fd60048036038101906102f89190612b15565b610ec0565b60405161030a919061270f565b60405180910390f35b61032d6004803603810190610328919061272a565b6111a8565b60405161033a9190612c21565b60405180910390f35b61035d60048036038101906103589190612c3c565b611228565b005b6103796004803603810190610374919061272a565b6113c7565b005b6103956004803603810190610390919061272a565b6115ad565b6040516103a2919061270f565b60405180910390f35b6103c560048036038101906103c09190612c7c565b611620565b6040516103d2919061270f565b60405180910390f35b6103e3611669565b005b6103ed6116f1565b6040516103fa9190612cb8565b60405180910390f35b61041d60048036038101906104189190612880565b61171a565b60405161042a91906125b4565b60405180910390f35b61043b611785565b6040516104489190612668565b60405180910390f35b610459611813565b6040516104669190612807565b60405180910390f35b61047761181a565b60405161048491906125b4565b60405180910390f35b6104a760048036038101906104a2919061272a565b611882565b6040516104b5929190612ddf565b60405180910390f35b6104c6611aaf565b6040516104d3919061270f565b60405180910390f35b6104f660048036038101906104f1919061272a565b611ab5565b604051610507959493929190612e16565b60405180910390f35b61052a60048036038101906105259190612880565b611ba0565b005b61054660048036038101906105419190612c7c565b611bc1565b005b60007f7965db0b000000000000000000000000000000000000000000000000000000007bffffffffffffffffffffffffffffffffffffffffffffffffffffffff1916827bffffffffffffffffffffffffffffffffffffffffffffffffffffffff191614806105bb57506105ba82611cb8565b5b9050919050565b600480546105cf90612e9f565b80601f01602080910402602001604051908101604052809291908181526020018280546105fb90612e9f565b80156106485780601f1061061d57610100808354040283529160200191610648565b820191906000526020600020905b81548152906001019060200180831161062b57829003601f168201915b505050505081565b600060076000848152602001908152602001600020600601600083815260200190815260200160002060010154905092915050565b60008060606000600760008681526020019081526020016000206004015490506000806000600190505b83811161072b5782600760008a815260200190815260200160002060060160008381526020019081526020016000206001015410610718576007600089815260200190815260200160002060060160008281526020019081526020016000206001015492508091505b808061072390612eff565b9150506106af565b506000600760008981526020019081526020016000206006016000838152602001908152602001600020600001805461076390612e9f565b80601f016020809104026020016040519081016040528092919081815260200182805461078f90612e9f565b80156107dc5780601f106107b1576101008083540402835291602001916107dc565b820191906000526020600020905b8154815290600101906020018083116107bf57829003601f168201915b50505050509050818382965096509650505050509193909250565b600060016000838152602001908152602001600020600101549050919050565b8060008111801561082a57506006548111155b610869576040517f08c379a000000000000000000000000000000000000000000000000000000000815260040161086090612f93565b60405180910390fd5b610871611d22565b73ffffffffffffffffffffffffffffffffffffffff1661088f6116f1565b73ffffffffffffffffffffffffffffffffffffffff16146108e5576040517f08c379a00000000000000000000000000000000000000000000000000000000081526004016108dc90612fff565b60405180910390fd5b600060028111156108f9576108f8612baa565b5b6007600084815260200190815260200160002060000160149054906101000a900460ff16600281111561092f5761092e612baa565b5b1461096f576040517f08c379a00000000000000000000000000000000000000000000000000000000081526004016109669061306b565b60405180910390fd5b610978826115ad565b4210156109ba576040517f08c379a00000000000000000000000000000000000000000000000000000000081526004016109b1906130d7565b60405180910390fd5b60016007600084815260200190815260200160002060000160146101000a81548160ff021916908360028111156109f4576109f3612baa565b5b02179055505050565b610a06826107f7565b610a0f81611d2a565b610a198383611d3e565b505050565b81600081118015610a3157506006548111155b610a70576040517f08c379a0000000000000000000000000000000000000000000000000000000008152600401610a6790612f93565b60405180910390fd5b60006002811115610a8457610a83612baa565b5b610a8d846111a8565b6002811115610a9f57610a9e612baa565b5b14610adf576040517f08c379a0000000000000000000000000000000000000000000000000000000008152600401610ad690613143565b60405180910390fd5b610ae98333611e1e565b15610b29576040517f08c379a0000000000000000000000000000000000000000000000000000000008152600401610b20906131d5565b60405180910390fd5b42610b33846115ad565b11610b73576040517f08c379a0000000000000000000000000000000000000000000000000000000008152600401610b6a90613267565b60405180910390fd5b6000600760008581526020019081526020016000209050600080600190505b84518111610c675784600182610ba89190613287565b81518110610bb957610bb86132bb565b5b60200260200101518360060160008381526020019081526020016000206001016000828254610be891906132ea565b9250508190555084600182610bfd9190613287565b81518110610c0e57610c0d6132bb565b5b602002602001015185600183610c249190613287565b81518110610c3557610c346132bb565b5b6020026020010151610c479190613340565b82610c5291906132ea565b91508080610c5f90612eff565b915050610b92565b50610cba81600560003373ffffffffffffffffffffffffffffffffffffffff1673ffffffffffffffffffffffffffffffffffffffff16815260200190815260200160002054611edf90919063ffffffff16565b600560003373ffffffffffffffffffffffffffffffffffffffff1673ffffffffffffffffffffffffffffffffffffffff168152602001908152602001600020819055506040518060400160405280600115158152602001858152508260050160003373ffffffffffffffffffffffffffffffffffffffff1673ffffffffffffffffffffffffffffffffffffffff16815260200190815260200160002060008201518160000160006101000a81548160ff0219169083151502179055506020820151816001019080519060200190610d9292919061238a565b5090505081600201339080600181540180825580915050600190039060005260206000200160009091909190916101000a81548173ffffffffffffffffffffffffffffffffffffffff021916908373ffffffffffffffffffffffffffffffffffffffff1602179055507f73ab51df610edc81f5551eeb367d093666ac5ba1f45288102ff95f0db861724a338686604051610e2e93929190613458565b60405180910390a15050505050565b610e45611d22565b73ffffffffffffffffffffffffffffffffffffffff168173ffffffffffffffffffffffffffffffffffffffff1614610eb2576040517f08c379a0000000000000000000000000000000000000000000000000000000008152600401610ea990613508565b60405180910390fd5b610ebc8282611ef5565b5050565b6000610eca611d22565b73ffffffffffffffffffffffffffffffffffffffff16610ee86116f1565b73ffffffffffffffffffffffffffffffffffffffff1614610f3e576040517f08c379a0000000000000000000000000000000000000000000000000000000008152600401610f3590612fff565b60405180910390fd5b60008211610f81576040517f08c379a0000000000000000000000000000000000000000000000000000000008152600401610f7890613574565b60405180910390fd5b60066000815480929190610f9490612eff565b919050555060006007600060065481526020019081526020016000209050338160000160006101000a81548173ffffffffffffffffffffffffffffffffffffffff021916908373ffffffffffffffffffffffffffffffffffffffff16021790555060008160000160146101000a81548160ff0219169083600281111561101d5761101c612baa565b5b0217905550600183603c6110319190613340565b61103b9190613340565b4261104691906132ea565b816003018190555086868260010191906110619291906123d7565b5084849050816004018190555060005b8585905081101561115757604051806040016040528087878481811061109a576110996132bb565b5b90506020028101906110ac91906135a3565b8080601f016020809104026020016040519081016040528093929190818152602001838380828437600081840152601f19601f820116905080830192505050505050508152602001600081525082600601600060018461110c91906132ea565b8152602001908152602001600020600082015181600001908051906020019061113692919061245d565b5060208201518160010155905050808061114f90612eff565b915050611071565b507f812b79dc980087562a07c042555f014502c51aac180824c0546a12989f726b5933888888888860405161119196959493929190613784565b60405180910390a160065491505095945050505050565b6000816000811180156111bd57506006548111155b6111fc576040517f08c379a00000000000000000000000000000000000000000000000000000000081526004016111f390612f93565b60405180910390fd5b6007600084815260200190815260200160002060000160149054906101000a900460ff16915050919050565b611230611d22565b73ffffffffffffffffffffffffffffffffffffffff1661124e6116f1565b73ffffffffffffffffffffffffffffffffffffffff16146112a4576040517f08c379a000000000000000000000000000000000000000000000000000000000815260040161129b90612fff565b60405180910390fd5b600073ffffffffffffffffffffffffffffffffffffffff168273ffffffffffffffffffffffffffffffffffffffff1603611313576040517f08c379a000000000000000000000000000000000000000000000000000000000815260040161130a90613827565b60405180910390fd5b61132881600254611fd790919063ffffffff16565b60028190555061138081600560008573ffffffffffffffffffffffffffffffffffffffff1673ffffffffffffffffffffffffffffffffffffffff16815260200190815260200160002054611fd790919063ffffffff16565b600560008473ffffffffffffffffffffffffffffffffffffffff1673ffffffffffffffffffffffffffffffffffffffff168152602001908152602001600020819055505050565b806000811180156113da57506006548111155b611419576040517f08c379a000000000000000000000000000000000000000000000000000000000815260040161141090612f93565b60405180910390fd5b611421611d22565b73ffffffffffffffffffffffffffffffffffffffff1661143f6116f1565b73ffffffffffffffffffffffffffffffffffffffff1614611495576040517f08c379a000000000000000000000000000000000000000000000000000000000815260040161148c90612fff565b60405180910390fd5b600160028111156114a9576114a8612baa565b5b6007600084815260200190815260200160002060000160149054906101000a900460ff1660028111156114df576114de612baa565b5b1461151f576040517f08c379a000000000000000000000000000000000000000000000000000000000815260040161151690613893565b60405180910390fd5b611528826115ad565b42101561156a576040517f08c379a0000000000000000000000000000000000000000000000000000000008152600401611561906130d7565b60405180910390fd5b60026007600084815260200190815260200160002060000160146101000a81548160ff021916908360028111156115a4576115a3612baa565b5b02179055505050565b6000816000811180156115c257506006548111155b611601576040517f08c379a00000000000000000000000000000000000000000000000000000000081526004016115f890612f93565b60405180910390fd5b6007600084815260200190815260200160002060030154915050919050565b6000600560008373ffffffffffffffffffffffffffffffffffffffff1673ffffffffffffffffffffffffffffffffffffffff168152602001908152602001600020549050919050565b611671611d22565b73ffffffffffffffffffffffffffffffffffffffff1661168f6116f1565b73ffffffffffffffffffffffffffffffffffffffff16146116e5576040517f08c379a00000000000000000000000000000000000000000000000000000000081526004016116dc90612fff565b60405180910390fd5b6116ef6000611fed565b565b60008060009054906101000a900473ffffffffffffffffffffffffffffffffffffffff16905090565b60006001600084815260200190815260200160002060000160008373ffffffffffffffffffffffffffffffffffffffff1673ffffffffffffffffffffffffffffffffffffffff16815260200190815260200160002060009054906101000a900460ff16905092915050565b6003805461179290612e9f565b80601f01602080910402602001604051908101604052809291908181526020018280546117be90612e9f565b801561180b5780601f106117e05761010080835404028352916020019161180b565b820191906000526020600020905b8154815290600101906020018083116117ee57829003601f168201915b505050505081565b6000801b81565b6000600860009054906101000a900473ffffffffffffffffffffffffffffffffffffffff1673ffffffffffffffffffffffffffffffffffffffff163373ffffffffffffffffffffffffffffffffffffffff160361187a576001905061187f565b600090505b90565b6060806000600760008581526020019081526020016000206004015467ffffffffffffffff8111156118b7576118b66128c5565b5b6040519080825280602002602001820160405280156118ea57816020015b60608152602001906001900390816118d55790505b5090506000600190505b60076000868152602001908152602001600020600401548111611a0157600760008681526020019081526020016000206006016000828152602001908152602001600020600001805461194690612e9f565b80601f016020809104026020016040519081016040528092919081815260200182805461197290612e9f565b80156119bf5780601f10611994576101008083540402835291602001916119bf565b820191906000526020600020905b8154815290600101906020018083116119a257829003601f168201915b5050505050826001836119d29190613287565b815181106119e3576119e26132bb565b5b602002602001018190525080806119f990612eff565b9150506118f4565b506007600085815260200190815260200160002060010181818054611a2590612e9f565b80601f0160208091040260200160405190810160405280929190818152602001828054611a5190612e9f565b8015611a9e5780601f10611a7357610100808354040283529160200191611a9e565b820191906000526020600020905b815481529060010190602001808311611a8157829003601f168201915b505050505091509250925050915091565b60065481565b60076020528060005260406000206000915090508060000160009054906101000a900473ffffffffffffffffffffffffffffffffffffffff16908060000160149054906101000a900460ff1690806001018054611b1190612e9f565b80601f0160208091040260200160405190810160405280929190818152602001828054611b3d90612e9f565b8015611b8a5780601f10611b5f57610100808354040283529160200191611b8a565b820191906000526020600020905b815481529060010190602001808311611b6d57829003601f168201915b5050505050908060030154908060040154905085565b611ba9826107f7565b611bb281611d2a565b611bbc8383611ef5565b505050565b611bc9611d22565b73ffffffffffffffffffffffffffffffffffffffff16611be76116f1565b73ffffffffffffffffffffffffffffffffffffffff1614611c3d576040517f08c379a0000000000000000000000000000000000000000000000000000000008152600401611c3490612fff565b60405180910390fd5b600073ffffffffffffffffffffffffffffffffffffffff168173ffffffffffffffffffffffffffffffffffffffff1603611cac576040517f08c379a0000000000000000000000000000000000000000000000000000000008152600401611ca390613925565b60405180910390fd5b611cb581611fed565b50565b60007f01ffc9a7000000000000000000000000000000000000000000000000000000007bffffffffffffffffffffffffffffffffffffffffffffffffffffffff1916827bffffffffffffffffffffffffffffffffffffffffffffffffffffffff1916149050919050565b600033905090565b611d3b81611d36611d22565b6120b1565b50565b611d48828261171a565b611e1a57600180600084815260200190815260200160002060000160008373ffffffffffffffffffffffffffffffffffffffff1673ffffffffffffffffffffffffffffffffffffffff16815260200190815260200160002060006101000a81548160ff021916908315150217905550611dbf611d22565b73ffffffffffffffffffffffffffffffffffffffff168173ffffffffffffffffffffffffffffffffffffffff16837f2f8788117e7eff1d82e926ec794901d17c78024a50270940304540a733656f0d60405160405180910390a45b5050565b600082600081118015611e3357506006548111155b611e72576040517f08c379a0000000000000000000000000000000000000000000000000000000008152600401611e6990612f93565b60405180910390fd5b6007600085815260200190815260200160002060050160008473ffffffffffffffffffffffffffffffffffffffff1673ffffffffffffffffffffffffffffffffffffffff16815260200190815260200160002060000160009054906101000a900460ff1691505092915050565b60008183611eed9190613287565b905092915050565b611eff828261171a565b15611fd35760006001600084815260200190815260200160002060000160008373ffffffffffffffffffffffffffffffffffffffff1673ffffffffffffffffffffffffffffffffffffffff16815260200190815260200160002060006101000a81548160ff021916908315150217905550611f78611d22565b73ffffffffffffffffffffffffffffffffffffffff168173ffffffffffffffffffffffffffffffffffffffff16837ff6391f5c32d9c69d2a47ea670b442974b53935d1edc7fd64eb21e047a839171b60405160405180910390a45b5050565b60008183611fe591906132ea565b905092915050565b60008060009054906101000a900473ffffffffffffffffffffffffffffffffffffffff169050816000806101000a81548173ffffffffffffffffffffffffffffffffffffffff021916908373ffffffffffffffffffffffffffffffffffffffff1602179055508173ffffffffffffffffffffffffffffffffffffffff168173ffffffffffffffffffffffffffffffffffffffff167f8be0079c531659141344cd1fd0a4f28419497f9722a3daafe3b4186f6b6457e060405160405180910390a35050565b6120bb828261171a565b61214a576120e08173ffffffffffffffffffffffffffffffffffffffff16601461214e565b6120ee8360001c602061214e565b6040516020016120ff929190613a19565b6040516020818303038152906040526040517f08c379a00000000000000000000000000000000000000000000000000000000081526004016121419190612668565b60405180910390fd5b5050565b6060600060028360026121619190613340565b61216b91906132ea565b67ffffffffffffffff811115612184576121836128c5565b5b6040519080825280601f01601f1916602001820160405280156121b65781602001600182028036833780820191505090505b5090507f3000000000000000000000000000000000000000000000000000000000000000816000815181106121ee576121ed6132bb565b5b60200101907effffffffffffffffffffffffffffffffffffffffffffffffffffffffffffff1916908160001a9053507f780000000000000000000000000000000000000000000000000000000000000081600181518110612252576122516132bb565b5b60200101907effffffffffffffffffffffffffffffffffffffffffffffffffffffffffffff1916908160001a905350600060018460026122929190613340565b61229c91906132ea565b90505b600181111561233c577f3031323334353637383961626364656600000000000000000000000000000000600f8616601081106122de576122dd6132bb565b5b1a60f81b8282815181106122f5576122f46132bb565b5b60200101907effffffffffffffffffffffffffffffffffffffffffffffffffffffffffffff1916908160001a905350600485901c94508061233590613a53565b905061229f565b5060008414612380576040517f08c379a000000000000000000000000000000000000000000000000000000000815260040161237790613ac8565b60405180910390fd5b8091505092915050565b8280548282559060005260206000209081019282156123c6579160200282015b828111156123c55782518255916020019190600101906123aa565b5b5090506123d391906124e3565b5090565b8280546123e390612e9f565b90600052602060002090601f016020900481019282612405576000855561244c565b82601f1061241e57803560ff191683800117855561244c565b8280016001018555821561244c579182015b8281111561244b578235825591602001919060010190612430565b5b50905061245991906124e3565b5090565b82805461246990612e9f565b90600052602060002090601f01602090048101928261248b57600085556124d2565b82601f106124a457805160ff19168380011785556124d2565b828001600101855582156124d2579182015b828111156124d15782518255916020019190600101906124b6565b5b5090506124df91906124e3565b5090565b5b808211156124fc5760008160009055506001016124e4565b5090565b6000604051905090565b600080fd5b600080fd5b60007fffffffff0000000000000000000000000000000000000000000000000000000082169050919050565b61254981612514565b811461255457600080fd5b50565b60008135905061256681612540565b92915050565b6000602082840312156125825761258161250a565b5b600061259084828501612557565b91505092915050565b60008115159050919050565b6125ae81612599565b82525050565b60006020820190506125c960008301846125a5565b92915050565b600081519050919050565b600082825260208201905092915050565b60005b838110156126095780820151818401526020810190506125ee565b83811115612618576000848401525b50505050565b6000601f19601f8301169050919050565b600061263a826125cf565b61264481856125da565b93506126548185602086016125eb565b61265d8161261e565b840191505092915050565b60006020820190508181036000830152612682818461262f565b905092915050565b6000819050919050565b61269d8161268a565b81146126a857600080fd5b50565b6000813590506126ba81612694565b92915050565b600080604083850312156126d7576126d661250a565b5b60006126e5858286016126ab565b92505060206126f6858286016126ab565b9150509250929050565b6127098161268a565b82525050565b60006020820190506127246000830184612700565b92915050565b6000602082840312156127405761273f61250a565b5b600061274e848285016126ab565b91505092915050565b600060608201905061276c6000830186612700565b6127796020830185612700565b818103604083015261278b818461262f565b9050949350505050565b6000819050919050565b6127a881612795565b81146127b357600080fd5b50565b6000813590506127c58161279f565b92915050565b6000602082840312156127e1576127e061250a565b5b60006127ef848285016127b6565b91505092915050565b61280181612795565b82525050565b600060208201905061281c60008301846127f8565b92915050565b600073ffffffffffffffffffffffffffffffffffffffff82169050919050565b600061284d82612822565b9050919050565b61285d81612842565b811461286857600080fd5b50565b60008135905061287a81612854565b92915050565b600080604083850312156128975761289661250a565b5b60006128a5858286016127b6565b92505060206128b68582860161286b565b9150509250929050565b600080fd5b7f4e487b7100000000000000000000000000000000000000000000000000000000600052604160045260246000fd5b6128fd8261261e565b810181811067ffffffffffffffff8211171561291c5761291b6128c5565b5b80604052505050565b600061292f612500565b905061293b82826128f4565b919050565b600067ffffffffffffffff82111561295b5761295a6128c5565b5b602082029050602081019050919050565b600080fd5b600061298461297f84612940565b612925565b905080838252602082019050602084028301858111156129a7576129a661296c565b5b835b818110156129d057806129bc88826126ab565b8452602084019350506020810190506129a9565b5050509392505050565b600082601f8301126129ef576129ee6128c0565b5b81356129ff848260208601612971565b91505092915050565b60008060408385031215612a1f57612a1e61250a565b5b6000612a2d858286016126ab565b925050602083013567ffffffffffffffff811115612a4e57612a4d61250f565b5b612a5a858286016129da565b9150509250929050565b600080fd5b60008083601f840112612a7f57612a7e6128c0565b5b8235905067ffffffffffffffff811115612a9c57612a9b612a64565b5b602083019150836001820283011115612ab857612ab761296c565b5b9250929050565b60008083601f840112612ad557612ad46128c0565b5b8235905067ffffffffffffffff811115612af257612af1612a64565b5b602083019150836020820283011115612b0e57612b0d61296c565b5b9250929050565b600080600080600060608688031215612b3157612b3061250a565b5b600086013567ffffffffffffffff811115612b4f57612b4e61250f565b5b612b5b88828901612a69565b9550955050602086013567ffffffffffffffff811115612b7e57612b7d61250f565b5b612b8a88828901612abf565b93509350506040612b9d888289016126ab565b9150509295509295909350565b7f4e487b7100000000000000000000000000000000000000000000000000000000600052602160045260246000fd5b60038110612bea57612be9612baa565b5b50565b6000819050612bfb82612bd9565b919050565b6000612c0b82612bed565b9050919050565b612c1b81612c00565b82525050565b6000602082019050612c366000830184612c12565b92915050565b60008060408385031215612c5357612c5261250a565b5b6000612c618582860161286b565b9250506020612c72858286016126ab565b9150509250929050565b600060208284031215612c9257612c9161250a565b5b6000612ca08482850161286b565b91505092915050565b612cb281612842565b82525050565b6000602082019050612ccd6000830184612ca9565b92915050565b600081519050919050565b600082825260208201905092915050565b6000819050602082019050919050565b600082825260208201905092915050565b6000612d1b826125cf565b612d258185612cff565b9350612d358185602086016125eb565b612d3e8161261e565b840191505092915050565b6000612d558383612d10565b905092915050565b6000602082019050919050565b6000612d7582612cd3565b612d7f8185612cde565b935083602082028501612d9185612cef565b8060005b85811015612dcd5784840389528151612dae8582612d49565b9450612db983612d5d565b925060208a01995050600181019050612d95565b50829750879550505050505092915050565b60006040820190508181036000830152612df9818561262f565b90508181036020830152612e0d8184612d6a565b90509392505050565b600060a082019050612e2b6000830188612ca9565b612e386020830187612c12565b8181036040830152612e4a818661262f565b9050612e596060830185612700565b612e666080830184612700565b9695505050505050565b7f4e487b7100000000000000000000000000000000000000000000000000000000600052602260045260246000fd5b60006002820490506001821680612eb757607f821691505b602082108103612eca57612ec9612e70565b5b50919050565b7f4e487b7100000000000000000000000000000000000000000000000000000000600052601160045260246000fd5b6000612f0a8261268a565b91507fffffffffffffffffffffffffffffffffffffffffffffffffffffffffffffffff8203612f3c57612f3b612ed0565b5b600182019050919050565b7f4e6f7420612076616c69642050726f706f73616c204964000000000000000000600082015250565b6000612f7d6017836125da565b9150612f8882612f47565b602082019050919050565b60006020820190508181036000830152612fac81612f70565b9050919050565b7f4f776e61626c653a2063616c6c6572206973206e6f7420746865206f776e6572600082015250565b6000612fe96020836125da565b9150612ff482612fb3565b602082019050919050565b6000602082019050818103600083015261301881612fdc565b9050919050565b7f566f7465206973206e6f7420696e2070726f6772657373000000000000000000600082015250565b60006130556017836125da565b91506130608261301f565b602082019050919050565b6000602082019050818103600083015261308481613048565b9050919050565b7f766f74696e6720706572696f6420686173206e6f742065787069726564000000600082015250565b60006130c1601d836125da565b91506130cc8261308b565b602082019050919050565b600060208201905081810360008301526130f0816130b4565b9050919050565b7f70726f706f73616c2068617320657870697265642e0000000000000000000000600082015250565b600061312d6015836125da565b9150613138826130f7565b602082019050919050565b6000602082019050818103600083015261315c81613120565b9050919050565b7f7573657220616c726561647920766f746564206f6e20746869732070726f706f60008201527f73616c0000000000000000000000000000000000000000000000000000000000602082015250565b60006131bf6023836125da565b91506131ca82613163565b604082019050919050565b600060208201905081810360008301526131ee816131b2565b9050919050565b7f666f7220746869732070726f706f73616c2c2074686520766f74696e6720746960008201527f6d65206578706972656400000000000000000000000000000000000000000000602082015250565b6000613251602a836125da565b915061325c826131f5565b604082019050919050565b6000602082019050818103600083015261328081613244565b9050919050565b60006132928261268a565b915061329d8361268a565b9250828210156132b0576132af612ed0565b5b828203905092915050565b7f4e487b7100000000000000000000000000000000000000000000000000000000600052603260045260246000fd5b60006132f58261268a565b91506133008361268a565b9250827fffffffffffffffffffffffffffffffffffffffffffffffffffffffffffffffff0382111561333557613334612ed0565b5b828201905092915050565b600061334b8261268a565b91506133568361268a565b9250817fffffffffffffffffffffffffffffffffffffffffffffffffffffffffffffffff048311821515161561338f5761338e612ed0565b5b828202905092915050565b600081519050919050565b600082825260208201905092915050565b6000819050602082019050919050565b6133cf8161268a565b82525050565b60006133e183836133c6565b60208301905092915050565b6000602082019050919050565b60006134058261339a565b61340f81856133a5565b935061341a836133b6565b8060005b8381101561344b57815161343288826133d5565b975061343d836133ed565b92505060018101905061341e565b5085935050505092915050565b600060608201905061346d6000830186612ca9565b61347a6020830185612700565b818103604083015261348c81846133fa565b9050949350505050565b7f416363657373436f6e74726f6c3a2063616e206f6e6c792072656e6f756e636560008201527f20726f6c657320666f722073656c660000000000000000000000000000000000602082015250565b60006134f2602f836125da565b91506134fd82613496565b604082019050919050565b60006020820190508181036000830152613521816134e5565b9050919050565b7f54686520766f74696e6720706572696f642063616e6e6f742062652030000000600082015250565b600061355e601d836125da565b915061356982613528565b602082019050919050565b6000602082019050818103600083015261358d81613551565b9050919050565b600080fd5b600080fd5b600080fd5b600080833560016020038436030381126135c0576135bf613594565b5b80840192508235915067ffffffffffffffff8211156135e2576135e1613599565b5b6020830192506001820236038313156135fe576135fd61359e565b5b509250929050565b82818337600083830152505050565b600061362183856125da565b935061362e838584613606565b6136378361261e565b840190509392505050565b6000819050919050565b60006136588385612cff565b9350613665838584613606565b61366e8361261e565b840190509392505050565b600061368684848461364c565b90509392505050565b600080fd5b600080fd5b600080fd5b600080833560016020038436030381126136bb576136ba613699565b5b83810192508235915060208301925067ffffffffffffffff8211156136e3576136e261368f565b5b6001820236038313156136f9576136f8613694565b5b509250929050565b6000602082019050919050565b600061371a8385612cde565b93508360208402850161372c84613642565b8060005b87811015613772578484038952613747828461369e565b613752868284613679565b955061375d84613701565b935060208b019a505050600181019050613730565b50829750879450505050509392505050565b60006080820190506137996000830189612ca9565b81810360208301526137ac818789613615565b905081810360408301526137c181858761370e565b90506137d06060830184612700565b979650505050505050565b7f206d696e7420746f20746865207a65726f206164647265737300000000000000600082015250565b60006138116019836125da565b915061381c826137db565b602082019050919050565b6000602082019050818103600083015261384081613804565b9050919050565b7f50726f706f73616c2073686f756c6420626520696e2074616c6c790000000000600082015250565b600061387d601b836125da565b915061388882613847565b602082019050919050565b600060208201905081810360008301526138ac81613870565b9050919050565b7f4f776e61626c653a206e6577206f776e657220697320746865207a65726f206160008201527f6464726573730000000000000000000000000000000000000000000000000000602082015250565b600061390f6026836125da565b915061391a826138b3565b604082019050919050565b6000602082019050818103600083015261393e81613902565b9050919050565b600081905092915050565b7f416363657373436f6e74726f6c3a206163636f756e7420000000000000000000600082015250565b6000613986601783613945565b915061399182613950565b601782019050919050565b60006139a7826125cf565b6139b18185613945565b93506139c18185602086016125eb565b80840191505092915050565b7f206973206d697373696e6720726f6c6520000000000000000000000000000000600082015250565b6000613a03601183613945565b9150613a0e826139cd565b601182019050919050565b6000613a2482613979565b9150613a30828561399c565b9150613a3b826139f6565b9150613a47828461399c565b91508190509392505050565b6000613a5e8261268a565b915060008203613a7157613a70612ed0565b5b600182039050919050565b7f537472696e67733a20686578206c656e67746820696e73756666696369656e74600082015250565b6000613ab26020836125da565b9150613abd82613a7c565b602082019050919050565b60006020820190508181036000830152613ae181613aa5565b905091905056fea2646970667358221220c21163d4c2fff7da42179f827b9da7aaced12f91854921dd85dffd4b891f9c5b64736f6c634300080e0033",
  "immutableReferences": {},
  "source": "// SPDX-License-Identifier: MIT\r\npragma solidity ^0.8.0;\r\n\r\nimport \"@openzeppelin/contracts/utils/math/SafeMath.sol\";\r\nimport \"@openzeppelin/contracts/access/Ownable.sol\";\r\nimport \"@openzeppelin/contracts/access/AccessControl.sol\";\r\n\r\ncontract Voting is Ownable, AccessControl {\r\n    using SafeMath for uint256;\r\n    uint256 private _totalSupply;\r\n    string public symbol;\r\n    string public name;\r\n    mapping(address => uint256) private _balances;\r\n    uint256 public ProposalCount;\r\n\r\n    event VoteCasted(address voter, uint256 ProposalID, uint256[] _tokens);\r\n\r\n    event ProposalCreated(\r\n        address creator,\r\n        string description,\r\n        string[] _options,\r\n        uint256 votingTimeInHours\r\n    );\r\n\r\n    struct Proposal {\r\n        address creator;\r\n        ProposalStatus status;\r\n        string description;\r\n        address[] voters;\r\n        uint256 expirationTime;\r\n        uint256 numOfOptions;\r\n        mapping(address => Voter) voterInfo;\r\n        mapping(uint256 => option) options;\r\n    }\r\n    enum ProposalStatus {\r\n        IN_PROGRESS,\r\n        TALLY,\r\n        ENDED\r\n    }\r\n    struct Voter {\r\n        bool hasVoted;\r\n        uint256[] _tokens;\r\n    }\r\n\r\n    struct option {\r\n        string optionName;\r\n        uint256 totalWeight;\r\n    }\r\n    mapping(uint256 => Proposal) public Proposals;\r\n\r\n    address private Owner;\r\n\r\n    constructor() public {\r\n        symbol = \"V\";\r\n        name = \"Voting\";\r\n        Owner = msg.sender;\r\n    }\r\n\r\n    function checkAdmin() public view returns (bool) {\r\n        if (msg.sender == Owner) {\r\n            return true;\r\n        }\r\n        return false;\r\n    }\r\n\r\n    function createProposal(\r\n        string calldata _description,\r\n        string[] calldata _options,\r\n        uint256 _voteExpirationTime\r\n    ) external onlyOwner returns (uint256) {\r\n        require(_voteExpirationTime > 0, \"The voting period cannot be 0\");\r\n        ProposalCount++;\r\n        Proposal storage curProposal = Proposals[ProposalCount];\r\n        curProposal.creator = msg.sender;\r\n        curProposal.status = ProposalStatus.IN_PROGRESS;\r\n        curProposal.expirationTime =\r\n            block.timestamp +\r\n            60 *\r\n            _voteExpirationTime *\r\n            1 seconds;\r\n        curProposal.description = _description;\r\n        curProposal.numOfOptions = _options.length;\r\n        for (uint256 i = 0; i < _options.length; i++) {\r\n            curProposal.options[i + 1] = option({\r\n                optionName: _options[i],\r\n                totalWeight: 0\r\n            });\r\n        }\r\n\r\n        emit ProposalCreated(\r\n            msg.sender,\r\n            _description,\r\n            _options,\r\n            _voteExpirationTime\r\n        );\r\n        return ProposalCount;\r\n    }\r\n\r\n    function setProposalToTally(uint256 _ProposalID)\r\n        external\r\n        validProposal(_ProposalID)\r\n        onlyOwner\r\n    {\r\n        require(\r\n            Proposals[_ProposalID].status == ProposalStatus.IN_PROGRESS,\r\n            \"Vote is not in progress\"\r\n        );\r\n        require(\r\n            block.timestamp >= getProposalExpirationTime(_ProposalID),\r\n            \"voting period has not expired\"\r\n        );\r\n        Proposals[_ProposalID].status = ProposalStatus.TALLY;\r\n    }\r\n\r\n    function getDetails(uint256 _ProposalID)\r\n        external\r\n        view\r\n        returns (string memory, string[] memory)\r\n    {\r\n        string[] memory _options = new string[](\r\n            Proposals[_ProposalID].numOfOptions\r\n        );\r\n        for (uint256 i = 1; i <= Proposals[_ProposalID].numOfOptions; i++) {\r\n            _options[i - 1] = Proposals[_ProposalID].options[i].optionName;\r\n        }\r\n        return (Proposals[_ProposalID].description, _options);\r\n    }\r\n\r\n    function setProposalToEnded(uint256 _ProposalID)\r\n        external\r\n        validProposal(_ProposalID)\r\n        onlyOwner\r\n    {\r\n        require(\r\n            Proposals[_ProposalID].status == ProposalStatus.TALLY,\r\n            \"Proposal should be in tally\"\r\n        );\r\n        require(\r\n            block.timestamp >= getProposalExpirationTime(_ProposalID),\r\n            \"voting period has not expired\"\r\n        );\r\n        Proposals[_ProposalID].status = ProposalStatus.ENDED;\r\n    }\r\n\r\n    function getProposalStatus(uint256 _ProposalID)\r\n        public\r\n        view\r\n        validProposal(_ProposalID)\r\n        returns (ProposalStatus)\r\n    {\r\n        return Proposals[_ProposalID].status;\r\n    }\r\n\r\n    function getProposalExpirationTime(uint256 _ProposalID)\r\n        public\r\n        view\r\n        validProposal(_ProposalID)\r\n        returns (uint256)\r\n    {\r\n        return Proposals[_ProposalID].expirationTime;\r\n    }\r\n\r\n    modifier validProposal(uint256 _ProposalID) {\r\n        require(\r\n            _ProposalID > 0 && _ProposalID <= ProposalCount,\r\n            \"Not a valid Proposal Id\"\r\n        );\r\n        _;\r\n    }\r\n\r\n    function userHasVoted(uint256 _ProposalID, address _user)\r\n        internal\r\n        view\r\n        validProposal(_ProposalID)\r\n        returns (bool)\r\n    {\r\n        return (Proposals[_ProposalID].voterInfo[_user].hasVoted);\r\n    }\r\n\r\n    /**\r\n     * @dev to get winner of poll.\r\n     * @param _ProposalID the proposal id\r\n     * returns index of options, total weight of option and name of option\r\n     */\r\n\r\n    function countVotes(uint256 _ProposalID)\r\n        public\r\n        view\r\n        returns (\r\n            uint256,\r\n            uint256,\r\n            string memory\r\n        )\r\n    {\r\n        uint256 len = Proposals[_ProposalID].numOfOptions;\r\n        uint256 maxWeight;\r\n        uint256 index;\r\n        for (uint256 i = 1; i <= len; i++) {\r\n            if (Proposals[_ProposalID].options[i].totalWeight >= maxWeight) {\r\n                maxWeight = Proposals[_ProposalID].options[i].totalWeight;\r\n                index = i;\r\n            }\r\n        }\r\n        string memory n = Proposals[_ProposalID].options[index].optionName;\r\n        return (index, maxWeight, n);\r\n    }\r\n\r\n    function getWeight(uint256 _ProposalID, uint256 optionNum)\r\n        public\r\n        view\r\n        returns (uint256)\r\n    {\r\n        return Proposals[_ProposalID].options[optionNum].totalWeight;\r\n    }\r\n\r\n    function castVote(uint256 _ProposalID, uint256[] memory _tokens)\r\n        external\r\n        validProposal(_ProposalID)\r\n    {\r\n        require(\r\n            getProposalStatus(_ProposalID) == ProposalStatus.IN_PROGRESS,\r\n            \"proposal has expired.\"\r\n        );\r\n        require(\r\n            !userHasVoted(_ProposalID, msg.sender),\r\n            \"user already voted on this proposal\"\r\n        );\r\n        require(\r\n            getProposalExpirationTime(_ProposalID) > block.timestamp,\r\n            \"for this proposal, the voting time expired\"\r\n        );\r\n        Proposal storage curproposal = Proposals[_ProposalID];\r\n        uint256 total = 0;\r\n        for (uint256 i = 1; i <= _tokens.length; i++) {\r\n            curproposal.options[i].totalWeight += _tokens[i - 1];\r\n            total = total + (_tokens[i - 1] * _tokens[i - 1]);\r\n        }\r\n\r\n        _balances[msg.sender] = _balances[msg.sender].sub(total);\r\n\r\n        curproposal.voterInfo[msg.sender] = Voter({\r\n            hasVoted: true,\r\n            _tokens: _tokens\r\n        });\r\n\r\n        curproposal.voters.push(msg.sender);\r\n\r\n        emit VoteCasted(msg.sender, _ProposalID, _tokens);\r\n    }\r\n\r\n    function sqrt(uint256 x) internal pure returns (uint256 y) {\r\n        uint256 z = (x + 1) / 2;\r\n        y = x;\r\n        while (z < y) {\r\n            y = z;\r\n            z = (x / z + z) / 2;\r\n        }\r\n    }\r\n\r\n    /**\r\n     * @dev minting more tokens for an account\r\n     */\r\n    function mint(address account, uint256 amount) public onlyOwner {\r\n        require(account != address(0), \" mint to the zero address\");\r\n        _totalSupply = _totalSupply.add(amount);\r\n        _balances[account] = _balances[account].add(amount);\r\n    }\r\n\r\n    /**\r\n     * @dev returns the balance of an account\r\n     */\r\n    function balanceOf(address account) public view returns (uint256) {\r\n        return _balances[account];\r\n    }\r\n}\r\n",
  "sourcePath": "C:\\Users\\sande\\Desktop\\quadratic_voting\\frontend\\truffle\\contracts\\QVVoting.sol",
  "compiler": {
    "name": "solc",
    "version": "0.8.14+commit.80d49f37.Emscripten.clang"
  },
  "schemaVersion": "3.4.7",
  "updatedAt": "2022-07-04T02:43:20.898Z",
  "networkType": "ethereum",
  "devdoc": {
    "kind": "dev",
    "methods": {
      "balanceOf(address)": {
        "details": "returns the balance of an account"
      },
      "countVotes(uint256)": {
        "details": "to get winner of poll.",
        "params": {
          "_ProposalID": "the proposal id returns index of options, total weight of option and name of option"
        }
      },
      "getRoleAdmin(bytes32)": {
        "details": "Returns the admin role that controls `role`. See {grantRole} and {revokeRole}. To change a role's admin, use {_setRoleAdmin}."
      },
      "grantRole(bytes32,address)": {
        "details": "Grants `role` to `account`. If `account` had not been already granted `role`, emits a {RoleGranted} event. Requirements: - the caller must have ``role``'s admin role."
      },
      "hasRole(bytes32,address)": {
        "details": "Returns `true` if `account` has been granted `role`."
      },
      "mint(address,uint256)": {
        "details": "minting more tokens for an account"
      },
      "owner()": {
        "details": "Returns the address of the current owner."
      },
      "renounceOwnership()": {
        "details": "Leaves the contract without owner. It will not be possible to call `onlyOwner` functions anymore. Can only be called by the current owner. NOTE: Renouncing ownership will leave the contract without an owner, thereby removing any functionality that is only available to the owner."
      },
      "renounceRole(bytes32,address)": {
        "details": "Revokes `role` from the calling account. Roles are often managed via {grantRole} and {revokeRole}: this function's purpose is to provide a mechanism for accounts to lose their privileges if they are compromised (such as when a trusted device is misplaced). If the calling account had been revoked `role`, emits a {RoleRevoked} event. Requirements: - the caller must be `account`."
      },
      "revokeRole(bytes32,address)": {
        "details": "Revokes `role` from `account`. If `account` had been granted `role`, emits a {RoleRevoked} event. Requirements: - the caller must have ``role``'s admin role."
      },
      "supportsInterface(bytes4)": {
        "details": "See {IERC165-supportsInterface}."
      },
      "transferOwnership(address)": {
        "details": "Transfers ownership of the contract to a new account (`newOwner`). Can only be called by the current owner."
      }
    },
    "version": 1
  },
  "userdoc": {
    "kind": "user",
    "methods": {},
    "version": 1
  }
}