{
  "contractName": "Voting",
  "abi": [
    {
      "inputs": [],
      "stateMutability": "nonpayable",
      "type": "constructor"
    },
    {
      "anonymous": false,
      "inputs": [
        {
          "indexed": true,
          "internalType": "address",
          "name": "previousOwner",
          "type": "address"
        },
        {
          "indexed": true,
          "internalType": "address",
          "name": "newOwner",
          "type": "address"
        }
      ],
      "name": "OwnershipTransferred",
      "type": "event"
    },
    {
      "anonymous": false,
      "inputs": [
        {
          "indexed": false,
          "internalType": "address",
          "name": "creator",
          "type": "address"
        },
        {
          "indexed": false,
          "internalType": "string",
          "name": "description",
          "type": "string"
        },
        {
          "indexed": false,
          "internalType": "string[]",
          "name": "_options",
          "type": "string[]"
        },
        {
          "indexed": false,
          "internalType": "uint256",
          "name": "votingTimeInHours",
          "type": "uint256"
        }
      ],
      "name": "ProposalCreated",
      "type": "event"
    },
    {
      "anonymous": false,
      "inputs": [
        {
          "indexed": true,
          "internalType": "bytes32",
          "name": "role",
          "type": "bytes32"
        },
        {
          "indexed": true,
          "internalType": "bytes32",
          "name": "previousAdminRole",
          "type": "bytes32"
        },
        {
          "indexed": true,
          "internalType": "bytes32",
          "name": "newAdminRole",
          "type": "bytes32"
        }
      ],
      "name": "RoleAdminChanged",
      "type": "event"
    },
    {
      "anonymous": false,
      "inputs": [
        {
          "indexed": true,
          "internalType": "bytes32",
          "name": "role",
          "type": "bytes32"
        },
        {
          "indexed": true,
          "internalType": "address",
          "name": "account",
          "type": "address"
        },
        {
          "indexed": true,
          "internalType": "address",
          "name": "sender",
          "type": "address"
        }
      ],
      "name": "RoleGranted",
      "type": "event"
    },
    {
      "anonymous": false,
      "inputs": [
        {
          "indexed": true,
          "internalType": "bytes32",
          "name": "role",
          "type": "bytes32"
        },
        {
          "indexed": true,
          "internalType": "address",
          "name": "account",
          "type": "address"
        },
        {
          "indexed": true,
          "internalType": "address",
          "name": "sender",
          "type": "address"
        }
      ],
      "name": "RoleRevoked",
      "type": "event"
    },
    {
      "anonymous": false,
      "inputs": [
        {
          "indexed": false,
          "internalType": "address",
          "name": "voter",
          "type": "address"
        },
        {
          "indexed": false,
          "internalType": "uint256",
          "name": "ProposalID",
          "type": "uint256"
        },
        {
          "indexed": false,
          "internalType": "uint256",
          "name": "weight",
          "type": "uint256"
        },
        {
          "indexed": false,
          "internalType": "uint256",
          "name": "optionNum",
          "type": "uint256"
        }
      ],
      "name": "VoteCasted",
      "type": "event"
    },
    {
      "inputs": [],
      "name": "DEFAULT_ADMIN_ROLE",
      "outputs": [
        {
          "internalType": "bytes32",
          "name": "",
          "type": "bytes32"
        }
      ],
      "stateMutability": "view",
      "type": "function"
    },
    {
      "inputs": [],
      "name": "ProposalCount",
      "outputs": [
        {
          "internalType": "uint256",
          "name": "",
          "type": "uint256"
        }
      ],
      "stateMutability": "view",
      "type": "function"
    },
    {
      "inputs": [
        {
          "internalType": "uint256",
          "name": "",
          "type": "uint256"
        }
      ],
      "name": "Proposals",
      "outputs": [
        {
          "internalType": "address",
          "name": "creator",
          "type": "address"
        },
        {
          "internalType": "enum Voting.ProposalStatus",
          "name": "status",
          "type": "uint8"
        },
        {
          "internalType": "string",
          "name": "description",
          "type": "string"
        },
        {
          "internalType": "uint256",
          "name": "expirationTime",
          "type": "uint256"
        },
        {
          "internalType": "uint256",
          "name": "numOfOptions",
          "type": "uint256"
        }
      ],
      "stateMutability": "view",
      "type": "function"
    },
    {
      "inputs": [
        {
          "internalType": "bytes32",
          "name": "role",
          "type": "bytes32"
        }
      ],
      "name": "getRoleAdmin",
      "outputs": [
        {
          "internalType": "bytes32",
          "name": "",
          "type": "bytes32"
        }
      ],
      "stateMutability": "view",
      "type": "function"
    },
    {
      "inputs": [
        {
          "internalType": "bytes32",
          "name": "role",
          "type": "bytes32"
        },
        {
          "internalType": "address",
          "name": "account",
          "type": "address"
        }
      ],
      "name": "grantRole",
      "outputs": [],
      "stateMutability": "nonpayable",
      "type": "function"
    },
    {
      "inputs": [
        {
          "internalType": "bytes32",
          "name": "role",
          "type": "bytes32"
        },
        {
          "internalType": "address",
          "name": "account",
          "type": "address"
        }
      ],
      "name": "hasRole",
      "outputs": [
        {
          "internalType": "bool",
          "name": "",
          "type": "bool"
        }
      ],
      "stateMutability": "view",
      "type": "function"
    },
    {
      "inputs": [],
      "name": "name",
      "outputs": [
        {
          "internalType": "string",
          "name": "",
          "type": "string"
        }
      ],
      "stateMutability": "view",
      "type": "function"
    },
    {
      "inputs": [],
      "name": "owner",
      "outputs": [
        {
          "internalType": "address",
          "name": "",
          "type": "address"
        }
      ],
      "stateMutability": "view",
      "type": "function"
    },
    {
      "inputs": [],
      "name": "renounceOwnership",
      "outputs": [],
      "stateMutability": "nonpayable",
      "type": "function"
    },
    {
      "inputs": [
        {
          "internalType": "bytes32",
          "name": "role",
          "type": "bytes32"
        },
        {
          "internalType": "address",
          "name": "account",
          "type": "address"
        }
      ],
      "name": "renounceRole",
      "outputs": [],
      "stateMutability": "nonpayable",
      "type": "function"
    },
    {
      "inputs": [
        {
          "internalType": "bytes32",
          "name": "role",
          "type": "bytes32"
        },
        {
          "internalType": "address",
          "name": "account",
          "type": "address"
        }
      ],
      "name": "revokeRole",
      "outputs": [],
      "stateMutability": "nonpayable",
      "type": "function"
    },
    {
      "inputs": [
        {
          "internalType": "bytes4",
          "name": "interfaceId",
          "type": "bytes4"
        }
      ],
      "name": "supportsInterface",
      "outputs": [
        {
          "internalType": "bool",
          "name": "",
          "type": "bool"
        }
      ],
      "stateMutability": "view",
      "type": "function"
    },
    {
      "inputs": [],
      "name": "symbol",
      "outputs": [
        {
          "internalType": "string",
          "name": "",
          "type": "string"
        }
      ],
      "stateMutability": "view",
      "type": "function"
    },
    {
      "inputs": [
        {
          "internalType": "address",
          "name": "newOwner",
          "type": "address"
        }
      ],
      "name": "transferOwnership",
      "outputs": [],
      "stateMutability": "nonpayable",
      "type": "function"
    },
    {
      "inputs": [],
      "name": "checkAdmin",
      "outputs": [
        {
          "internalType": "bool",
          "name": "",
          "type": "bool"
        }
      ],
      "stateMutability": "view",
      "type": "function"
    },
    {
      "inputs": [
        {
          "internalType": "string",
          "name": "_description",
          "type": "string"
        },
        {
          "internalType": "string[]",
          "name": "_options",
          "type": "string[]"
        },
        {
          "internalType": "uint256",
          "name": "_voteExpirationTime",
          "type": "uint256"
        }
      ],
      "name": "createProposal",
      "outputs": [
        {
          "internalType": "uint256",
          "name": "",
          "type": "uint256"
        }
      ],
      "stateMutability": "nonpayable",
      "type": "function"
    },
    {
      "inputs": [
        {
          "internalType": "uint256",
          "name": "_ProposalID",
          "type": "uint256"
        }
      ],
      "name": "setProposalToTally",
      "outputs": [],
      "stateMutability": "nonpayable",
      "type": "function"
    },
    {
      "inputs": [
        {
          "internalType": "uint256",
          "name": "_ProposalID",
          "type": "uint256"
        }
      ],
      "name": "setProposalToEnded",
      "outputs": [],
      "stateMutability": "nonpayable",
      "type": "function"
    },
    {
      "inputs": [
        {
          "internalType": "uint256",
          "name": "_ProposalID",
          "type": "uint256"
        }
      ],
      "name": "getProposalStatus",
      "outputs": [
        {
          "internalType": "enum Voting.ProposalStatus",
          "name": "",
          "type": "uint8"
        }
      ],
      "stateMutability": "view",
      "type": "function"
    },
    {
      "inputs": [
        {
          "internalType": "uint256",
          "name": "_ProposalID",
          "type": "uint256"
        }
      ],
      "name": "getProposalExpirationTime",
      "outputs": [
        {
          "internalType": "uint256",
          "name": "",
          "type": "uint256"
        }
      ],
      "stateMutability": "view",
      "type": "function"
    },
    {
      "inputs": [
        {
          "internalType": "uint256",
          "name": "_ProposalID",
          "type": "uint256"
        }
      ],
      "name": "countVotes",
      "outputs": [
        {
          "internalType": "uint256",
          "name": "",
          "type": "uint256"
        },
        {
          "internalType": "uint256",
          "name": "",
          "type": "uint256"
        },
        {
          "internalType": "string",
          "name": "",
          "type": "string"
        }
      ],
      "stateMutability": "view",
      "type": "function"
    },
    {
      "inputs": [
        {
          "internalType": "uint256",
          "name": "_ProposalID",
          "type": "uint256"
        },
        {
          "internalType": "uint256",
          "name": "optionNum",
          "type": "uint256"
        }
      ],
      "name": "getWeight",
      "outputs": [
        {
          "internalType": "uint256",
          "name": "",
          "type": "uint256"
        }
      ],
      "stateMutability": "view",
      "type": "function"
    },
    {
      "inputs": [
        {
          "internalType": "uint256",
          "name": "_ProposalID",
          "type": "uint256"
        },
        {
          "internalType": "uint256",
          "name": "numTokens",
          "type": "uint256"
        },
        {
          "internalType": "uint256",
          "name": "_optionNum",
          "type": "uint256"
        }
      ],
      "name": "castVote",
      "outputs": [],
      "stateMutability": "nonpayable",
      "type": "function"
    },
    {
      "inputs": [
        {
          "internalType": "address",
          "name": "account",
          "type": "address"
        },
        {
          "internalType": "uint256",
          "name": "amount",
          "type": "uint256"
        }
      ],
      "name": "mint",
      "outputs": [],
      "stateMutability": "nonpayable",
      "type": "function"
    },
    {
      "inputs": [
        {
          "internalType": "address",
          "name": "account",
          "type": "address"
        }
      ],
      "name": "balanceOf",
      "outputs": [
        {
          "internalType": "uint256",
          "name": "",
          "type": "uint256"
        }
      ],
      "stateMutability": "view",
      "type": "function"
    }
  ],
  "bytecode": "0x60806040523480156200001157600080fd5b5062000032620000266200011560201b60201c565b6200011d60201b60201c565b6040518060400160405280600181526020017f5600000000000000000000000000000000000000000000000000000000000000815250600390805190602001906200007f929190620001e1565b506040518060400160405280600681526020017f566f74696e67000000000000000000000000000000000000000000000000000081525060049080519060200190620000cd929190620001e1565b5033600860006101000a81548173ffffffffffffffffffffffffffffffffffffffff021916908373ffffffffffffffffffffffffffffffffffffffff160217905550620002f5565b600033905090565b60008060009054906101000a900473ffffffffffffffffffffffffffffffffffffffff169050816000806101000a81548173ffffffffffffffffffffffffffffffffffffffff021916908373ffffffffffffffffffffffffffffffffffffffff1602179055508173ffffffffffffffffffffffffffffffffffffffff168173ffffffffffffffffffffffffffffffffffffffff167f8be0079c531659141344cd1fd0a4f28419497f9722a3daafe3b4186f6b6457e060405160405180910390a35050565b828054620001ef90620002c0565b90600052602060002090601f0160209004810192826200021357600085556200025f565b82601f106200022e57805160ff19168380011785556200025f565b828001600101855582156200025f579182015b828111156200025e57825182559160200191906001019062000241565b5b5090506200026e919062000272565b5090565b5b808211156200028d57600081600090555060010162000273565b5090565b7f4e487b7100000000000000000000000000000000000000000000000000000000600052602260045260246000fd5b60006002820490506001821680620002d957607f821691505b602082108103620002ef57620002ee62000291565b5b50919050565b61357a80620003056000396000f3fe608060405234801561001057600080fd5b50600436106101735760003560e01c80634d5f9eba116100de57806395d89b4111610097578063be747c1c11610071578063be747c1c14610472578063d1dbe7d814610490578063d547741f146104c4578063f2fde38b146104e057610173565b806395d89b4114610418578063a217fddf14610436578063ab1502261461045457610173565b80634d5f9eba146103445780635be5e3ec1461037457806370a0823114610390578063715018a6146103c05780638da5cb5b146103ca57806391d14854146103e857610173565b80632f2ff15d116101305780632f2ff15d1461027457806336568abe146102905780633989ae34146102ac578063401853b7146102dc57806340c10f191461030c5780634c3bd9d61461032857610173565b806301ffc9a71461017857806306fdde03146101a85780630f39ee72146101c65780631840f0ca146101f6578063248a9ca3146102285780632d5e9d2914610258575b600080fd5b610192600480360381019061018d9190612258565b6104fc565b60405161019f91906122a0565b60405180910390f35b6101b0610576565b6040516101bd9190612354565b60405180910390f35b6101e060048036038101906101db91906123ac565b610604565b6040516101ed91906123fb565b60405180910390f35b610210600480360381019061020b9190612416565b610639565b60405161021f93929190612443565b60405180910390f35b610242600480360381019061023d91906124b7565b6107ac565b60405161024f91906124f3565b60405180910390f35b610272600480360381019061026d9190612416565b6107cc565b005b61028e6004803603810190610289919061256c565b6109b2565b005b6102aa60048036038101906102a5919061256c565b6109d3565b005b6102c660048036038101906102c19190612667565b610a56565b6040516102d391906123fb565b60405180910390f35b6102f660048036038101906102f19190612416565b610d3e565b6040516103039190612773565b60405180910390f35b6103266004803603810190610321919061278e565b610dbe565b005b610342600480360381019061033d9190612416565b610f5d565b005b61035e60048036038101906103599190612416565b611143565b60405161036b91906123fb565b60405180910390f35b61038e600480360381019061038991906127ce565b6111b6565b005b6103aa60048036038101906103a59190612821565b611533565b6040516103b791906123fb565b60405180910390f35b6103c861157c565b005b6103d2611604565b6040516103df919061285d565b60405180910390f35b61040260048036038101906103fd919061256c565b61162d565b60405161040f91906122a0565b60405180910390f35b610420611698565b60405161042d9190612354565b60405180910390f35b61043e611726565b60405161044b91906124f3565b60405180910390f35b61045c61172d565b60405161046991906122a0565b60405180910390f35b61047a611795565b60405161048791906123fb565b60405180910390f35b6104aa60048036038101906104a59190612416565b61179b565b6040516104bb959493929190612878565b60405180910390f35b6104de60048036038101906104d9919061256c565b611886565b005b6104fa60048036038101906104f59190612821565b6118a7565b005b60007f7965db0b000000000000000000000000000000000000000000000000000000007bffffffffffffffffffffffffffffffffffffffffffffffffffffffff1916827bffffffffffffffffffffffffffffffffffffffffffffffffffffffff1916148061056f575061056e8261199e565b5b9050919050565b6004805461058390612901565b80601f01602080910402602001604051908101604052809291908181526020018280546105af90612901565b80156105fc5780601f106105d1576101008083540402835291602001916105fc565b820191906000526020600020905b8154815290600101906020018083116105df57829003601f168201915b505050505081565b600060076000848152602001908152602001600020600601600083815260200190815260200160002060010154905092915050565b60008060606000600760008681526020019081526020016000206004015490506000806000600190505b838110156106e05782600760008a8152602001908152602001600020600601600083815260200190815260200160002060010154106106cd576007600089815260200190815260200160002060060160008281526020019081526020016000206001015492508091505b80806106d890612961565b915050610663565b506000600760008981526020019081526020016000206006016000838152602001908152602001600020600001805461071890612901565b80601f016020809104026020016040519081016040528092919081815260200182805461074490612901565b80156107915780601f1061076657610100808354040283529160200191610791565b820191906000526020600020905b81548152906001019060200180831161077457829003601f168201915b50505050509050818382965096509650505050509193909250565b600060016000838152602001908152602001600020600101549050919050565b806000811180156107df57506006548111155b61081e576040517f08c379a0000000000000000000000000000000000000000000000000000000008152600401610815906129f5565b60405180910390fd5b610826611a08565b73ffffffffffffffffffffffffffffffffffffffff16610844611604565b73ffffffffffffffffffffffffffffffffffffffff161461089a576040517f08c379a000000000000000000000000000000000000000000000000000000000815260040161089190612a61565b60405180910390fd5b600060028111156108ae576108ad6126fc565b5b6007600084815260200190815260200160002060000160149054906101000a900460ff1660028111156108e4576108e36126fc565b5b14610924576040517f08c379a000000000000000000000000000000000000000000000000000000000815260040161091b90612acd565b60405180910390fd5b61092d82611143565b42101561096f576040517f08c379a000000000000000000000000000000000000000000000000000000000815260040161096690612b39565b60405180910390fd5b60016007600084815260200190815260200160002060000160146101000a81548160ff021916908360028111156109a9576109a86126fc565b5b02179055505050565b6109bb826107ac565b6109c481611a10565b6109ce8383611a24565b505050565b6109db611a08565b73ffffffffffffffffffffffffffffffffffffffff168173ffffffffffffffffffffffffffffffffffffffff1614610a48576040517f08c379a0000000000000000000000000000000000000000000000000000000008152600401610a3f90612bcb565b60405180910390fd5b610a528282611b04565b5050565b6000610a60611a08565b73ffffffffffffffffffffffffffffffffffffffff16610a7e611604565b73ffffffffffffffffffffffffffffffffffffffff1614610ad4576040517f08c379a0000000000000000000000000000000000000000000000000000000008152600401610acb90612a61565b60405180910390fd5b60008211610b17576040517f08c379a0000000000000000000000000000000000000000000000000000000008152600401610b0e90612c37565b60405180910390fd5b60066000815480929190610b2a90612961565b919050555060006007600060065481526020019081526020016000209050338160000160006101000a81548173ffffffffffffffffffffffffffffffffffffffff021916908373ffffffffffffffffffffffffffffffffffffffff16021790555060008160000160146101000a81548160ff02191690836002811115610bb357610bb26126fc565b5b0217905550600183603c610bc79190612c57565b610bd19190612c57565b42610bdc9190612cb1565b81600301819055508686826001019190610bf79291906120cd565b5084849050816004018190555060005b85859050811015610ced576040518060400160405280878784818110610c3057610c2f612d07565b5b9050602002810190610c429190612d45565b8080601f016020809104026020016040519081016040528093929190818152602001838380828437600081840152601f19601f8201169050808301925050505050505081526020016000815250826006016000600184610ca29190612cb1565b81526020019081526020016000206000820151816000019080519060200190610ccc929190612153565b50602082015181600101559050508080610ce590612961565b915050610c07565b507f812b79dc980087562a07c042555f014502c51aac180824c0546a12989f726b59338888888888604051610d2796959493929190612f48565b60405180910390a160065491505095945050505050565b600081600081118015610d5357506006548111155b610d92576040517f08c379a0000000000000000000000000000000000000000000000000000000008152600401610d89906129f5565b60405180910390fd5b6007600084815260200190815260200160002060000160149054906101000a900460ff16915050919050565b610dc6611a08565b73ffffffffffffffffffffffffffffffffffffffff16610de4611604565b73ffffffffffffffffffffffffffffffffffffffff1614610e3a576040517f08c379a0000000000000000000000000000000000000000000000000000000008152600401610e3190612a61565b60405180910390fd5b600073ffffffffffffffffffffffffffffffffffffffff168273ffffffffffffffffffffffffffffffffffffffff1603610ea9576040517f08c379a0000000000000000000000000000000000000000000000000000000008152600401610ea090612feb565b60405180910390fd5b610ebe81600254611be690919063ffffffff16565b600281905550610f1681600560008573ffffffffffffffffffffffffffffffffffffffff1673ffffffffffffffffffffffffffffffffffffffff16815260200190815260200160002054611be690919063ffffffff16565b600560008473ffffffffffffffffffffffffffffffffffffffff1673ffffffffffffffffffffffffffffffffffffffff168152602001908152602001600020819055505050565b80600081118015610f7057506006548111155b610faf576040517f08c379a0000000000000000000000000000000000000000000000000000000008152600401610fa6906129f5565b60405180910390fd5b610fb7611a08565b73ffffffffffffffffffffffffffffffffffffffff16610fd5611604565b73ffffffffffffffffffffffffffffffffffffffff161461102b576040517f08c379a000000000000000000000000000000000000000000000000000000000815260040161102290612a61565b60405180910390fd5b6001600281111561103f5761103e6126fc565b5b6007600084815260200190815260200160002060000160149054906101000a900460ff166002811115611075576110746126fc565b5b146110b5576040517f08c379a00000000000000000000000000000000000000000000000000000000081526004016110ac90613057565b60405180910390fd5b6110be82611143565b421015611100576040517f08c379a00000000000000000000000000000000000000000000000000000000081526004016110f790612b39565b60405180910390fd5b60026007600084815260200190815260200160002060000160146101000a81548160ff0219169083600281111561113a576111396126fc565b5b02179055505050565b60008160008111801561115857506006548111155b611197576040517f08c379a000000000000000000000000000000000000000000000000000000000815260040161118e906129f5565b60405180910390fd5b6007600084815260200190815260200160002060030154915050919050565b826000811180156111c957506006548111155b611208576040517f08c379a00000000000000000000000000000000000000000000000000000000081526004016111ff906129f5565b60405180910390fd5b6000600281111561121c5761121b6126fc565b5b61122585610d3e565b6002811115611237576112366126fc565b5b14611277576040517f08c379a000000000000000000000000000000000000000000000000000000000815260040161126e906130c3565b60405180910390fd5b6112818433611bfc565b156112c1576040517f08c379a00000000000000000000000000000000000000000000000000000000081526004016112b890613155565b60405180910390fd5b426112cb85611143565b1161130b576040517f08c379a0000000000000000000000000000000000000000000000000000000008152600401611302906131e7565b60405180910390fd5b61135d83600560003373ffffffffffffffffffffffffffffffffffffffff1673ffffffffffffffffffffffffffffffffffffffff16815260200190815260200160002054611cbd90919063ffffffff16565b600560003373ffffffffffffffffffffffffffffffffffffffff1673ffffffffffffffffffffffffffffffffffffffff1681526020019081526020016000208190555060006113ab84611cd3565b905060006007600087815260200190815260200160002090506040518060600160405280600115158152602001858152602001838152508160050160003373ffffffffffffffffffffffffffffffffffffffff1673ffffffffffffffffffffffffffffffffffffffff16815260200190815260200160002060008201518160000160006101000a81548160ff02191690831515021790555060208201518160010155604082015181600201559050508181600601600086815260200190815260200160002060010160008282546114829190612cb1565b9250508190555080600201339080600181540180825580915050600190039060005260206000200160009091909190916101000a81548173ffffffffffffffffffffffffffffffffffffffff021916908373ffffffffffffffffffffffffffffffffffffffff1602179055507fdeab8ee83eba63bd94fc0587073ddbf10ed10cffe1e93c8b63411b7fa3ec0214338784876040516115239493929190613207565b60405180910390a1505050505050565b6000600560008373ffffffffffffffffffffffffffffffffffffffff1673ffffffffffffffffffffffffffffffffffffffff168152602001908152602001600020549050919050565b611584611a08565b73ffffffffffffffffffffffffffffffffffffffff166115a2611604565b73ffffffffffffffffffffffffffffffffffffffff16146115f8576040517f08c379a00000000000000000000000000000000000000000000000000000000081526004016115ef90612a61565b60405180910390fd5b6116026000611d30565b565b60008060009054906101000a900473ffffffffffffffffffffffffffffffffffffffff16905090565b60006001600084815260200190815260200160002060000160008373ffffffffffffffffffffffffffffffffffffffff1673ffffffffffffffffffffffffffffffffffffffff16815260200190815260200160002060009054906101000a900460ff16905092915050565b600380546116a590612901565b80601f01602080910402602001604051908101604052809291908181526020018280546116d190612901565b801561171e5780601f106116f35761010080835404028352916020019161171e565b820191906000526020600020905b81548152906001019060200180831161170157829003601f168201915b505050505081565b6000801b81565b6000600860009054906101000a900473ffffffffffffffffffffffffffffffffffffffff1673ffffffffffffffffffffffffffffffffffffffff163373ffffffffffffffffffffffffffffffffffffffff160361178d5760019050611792565b600090505b90565b60065481565b60076020528060005260406000206000915090508060000160009054906101000a900473ffffffffffffffffffffffffffffffffffffffff16908060000160149054906101000a900460ff16908060010180546117f790612901565b80601f016020809104026020016040519081016040528092919081815260200182805461182390612901565b80156118705780601f1061184557610100808354040283529160200191611870565b820191906000526020600020905b81548152906001019060200180831161185357829003601f168201915b5050505050908060030154908060040154905085565b61188f826107ac565b61189881611a10565b6118a28383611b04565b505050565b6118af611a08565b73ffffffffffffffffffffffffffffffffffffffff166118cd611604565b73ffffffffffffffffffffffffffffffffffffffff1614611923576040517f08c379a000000000000000000000000000000000000000000000000000000000815260040161191a90612a61565b60405180910390fd5b600073ffffffffffffffffffffffffffffffffffffffff168173ffffffffffffffffffffffffffffffffffffffff1603611992576040517f08c379a0000000000000000000000000000000000000000000000000000000008152600401611989906132be565b60405180910390fd5b61199b81611d30565b50565b60007f01ffc9a7000000000000000000000000000000000000000000000000000000007bffffffffffffffffffffffffffffffffffffffffffffffffffffffff1916827bffffffffffffffffffffffffffffffffffffffffffffffffffffffff1916149050919050565b600033905090565b611a2181611a1c611a08565b611df4565b50565b611a2e828261162d565b611b0057600180600084815260200190815260200160002060000160008373ffffffffffffffffffffffffffffffffffffffff1673ffffffffffffffffffffffffffffffffffffffff16815260200190815260200160002060006101000a81548160ff021916908315150217905550611aa5611a08565b73ffffffffffffffffffffffffffffffffffffffff168173ffffffffffffffffffffffffffffffffffffffff16837f2f8788117e7eff1d82e926ec794901d17c78024a50270940304540a733656f0d60405160405180910390a45b5050565b611b0e828261162d565b15611be25760006001600084815260200190815260200160002060000160008373ffffffffffffffffffffffffffffffffffffffff1673ffffffffffffffffffffffffffffffffffffffff16815260200190815260200160002060006101000a81548160ff021916908315150217905550611b87611a08565b73ffffffffffffffffffffffffffffffffffffffff168173ffffffffffffffffffffffffffffffffffffffff16837ff6391f5c32d9c69d2a47ea670b442974b53935d1edc7fd64eb21e047a839171b60405160405180910390a45b5050565b60008183611bf49190612cb1565b905092915050565b600082600081118015611c1157506006548111155b611c50576040517f08c379a0000000000000000000000000000000000000000000000000000000008152600401611c47906129f5565b60405180910390fd5b6007600085815260200190815260200160002060050160008473ffffffffffffffffffffffffffffffffffffffff1673ffffffffffffffffffffffffffffffffffffffff16815260200190815260200160002060000160009054906101000a900460ff1691505092915050565b60008183611ccb91906132de565b905092915050565b6000806002600184611ce59190612cb1565b611cef9190613341565b90508291505b81811015611d2a578091506002818285611d0f9190613341565b611d199190612cb1565b611d239190613341565b9050611cf5565b50919050565b60008060009054906101000a900473ffffffffffffffffffffffffffffffffffffffff169050816000806101000a81548173ffffffffffffffffffffffffffffffffffffffff021916908373ffffffffffffffffffffffffffffffffffffffff1602179055508173ffffffffffffffffffffffffffffffffffffffff168173ffffffffffffffffffffffffffffffffffffffff167f8be0079c531659141344cd1fd0a4f28419497f9722a3daafe3b4186f6b6457e060405160405180910390a35050565b611dfe828261162d565b611e8d57611e238173ffffffffffffffffffffffffffffffffffffffff166014611e91565b611e318360001c6020611e91565b604051602001611e42929190613446565b6040516020818303038152906040526040517f08c379a0000000000000000000000000000000000000000000000000000000008152600401611e849190612354565b60405180910390fd5b5050565b606060006002836002611ea49190612c57565b611eae9190612cb1565b67ffffffffffffffff811115611ec757611ec6613480565b5b6040519080825280601f01601f191660200182016040528015611ef95781602001600182028036833780820191505090505b5090507f300000000000000000000000000000000000000000000000000000000000000081600081518110611f3157611f30612d07565b5b60200101907effffffffffffffffffffffffffffffffffffffffffffffffffffffffffffff1916908160001a9053507f780000000000000000000000000000000000000000000000000000000000000081600181518110611f9557611f94612d07565b5b60200101907effffffffffffffffffffffffffffffffffffffffffffffffffffffffffffff1916908160001a90535060006001846002611fd59190612c57565b611fdf9190612cb1565b90505b600181111561207f577f3031323334353637383961626364656600000000000000000000000000000000600f86166010811061202157612020612d07565b5b1a60f81b82828151811061203857612037612d07565b5b60200101907effffffffffffffffffffffffffffffffffffffffffffffffffffffffffffff1916908160001a905350600485901c945080612078906134af565b9050611fe2565b50600084146120c3576040517f08c379a00000000000000000000000000000000000000000000000000000000081526004016120ba90613524565b60405180910390fd5b8091505092915050565b8280546120d990612901565b90600052602060002090601f0160209004810192826120fb5760008555612142565b82601f1061211457803560ff1916838001178555612142565b82800160010185558215612142579182015b82811115612141578235825591602001919060010190612126565b5b50905061214f91906121d9565b5090565b82805461215f90612901565b90600052602060002090601f01602090048101928261218157600085556121c8565b82601f1061219a57805160ff19168380011785556121c8565b828001600101855582156121c8579182015b828111156121c75782518255916020019190600101906121ac565b5b5090506121d591906121d9565b5090565b5b808211156121f25760008160009055506001016121da565b5090565b600080fd5b600080fd5b60007fffffffff0000000000000000000000000000000000000000000000000000000082169050919050565b61223581612200565b811461224057600080fd5b50565b6000813590506122528161222c565b92915050565b60006020828403121561226e5761226d6121f6565b5b600061227c84828501612243565b91505092915050565b60008115159050919050565b61229a81612285565b82525050565b60006020820190506122b56000830184612291565b92915050565b600081519050919050565b600082825260208201905092915050565b60005b838110156122f55780820151818401526020810190506122da565b83811115612304576000848401525b50505050565b6000601f19601f8301169050919050565b6000612326826122bb565b61233081856122c6565b93506123408185602086016122d7565b6123498161230a565b840191505092915050565b6000602082019050818103600083015261236e818461231b565b905092915050565b6000819050919050565b61238981612376565b811461239457600080fd5b50565b6000813590506123a681612380565b92915050565b600080604083850312156123c3576123c26121f6565b5b60006123d185828601612397565b92505060206123e285828601612397565b9150509250929050565b6123f581612376565b82525050565b600060208201905061241060008301846123ec565b92915050565b60006020828403121561242c5761242b6121f6565b5b600061243a84828501612397565b91505092915050565b600060608201905061245860008301866123ec565b61246560208301856123ec565b8181036040830152612477818461231b565b9050949350505050565b6000819050919050565b61249481612481565b811461249f57600080fd5b50565b6000813590506124b18161248b565b92915050565b6000602082840312156124cd576124cc6121f6565b5b60006124db848285016124a2565b91505092915050565b6124ed81612481565b82525050565b600060208201905061250860008301846124e4565b92915050565b600073ffffffffffffffffffffffffffffffffffffffff82169050919050565b60006125398261250e565b9050919050565b6125498161252e565b811461255457600080fd5b50565b60008135905061256681612540565b92915050565b60008060408385031215612583576125826121f6565b5b6000612591858286016124a2565b92505060206125a285828601612557565b9150509250929050565b600080fd5b600080fd5b600080fd5b60008083601f8401126125d1576125d06125ac565b5b8235905067ffffffffffffffff8111156125ee576125ed6125b1565b5b60208301915083600182028301111561260a576126096125b6565b5b9250929050565b60008083601f840112612627576126266125ac565b5b8235905067ffffffffffffffff811115612644576126436125b1565b5b6020830191508360208202830111156126605761265f6125b6565b5b9250929050565b600080600080600060608688031215612683576126826121f6565b5b600086013567ffffffffffffffff8111156126a1576126a06121fb565b5b6126ad888289016125bb565b9550955050602086013567ffffffffffffffff8111156126d0576126cf6121fb565b5b6126dc88828901612611565b935093505060406126ef88828901612397565b9150509295509295909350565b7f4e487b7100000000000000000000000000000000000000000000000000000000600052602160045260246000fd5b6003811061273c5761273b6126fc565b5b50565b600081905061274d8261272b565b919050565b600061275d8261273f565b9050919050565b61276d81612752565b82525050565b60006020820190506127886000830184612764565b92915050565b600080604083850312156127a5576127a46121f6565b5b60006127b385828601612557565b92505060206127c485828601612397565b9150509250929050565b6000806000606084860312156127e7576127e66121f6565b5b60006127f586828701612397565b935050602061280686828701612397565b925050604061281786828701612397565b9150509250925092565b600060208284031215612837576128366121f6565b5b600061284584828501612557565b91505092915050565b6128578161252e565b82525050565b6000602082019050612872600083018461284e565b92915050565b600060a08201905061288d600083018861284e565b61289a6020830187612764565b81810360408301526128ac818661231b565b90506128bb60608301856123ec565b6128c860808301846123ec565b9695505050505050565b7f4e487b7100000000000000000000000000000000000000000000000000000000600052602260045260246000fd5b6000600282049050600182168061291957607f821691505b60208210810361292c5761292b6128d2565b5b50919050565b7f4e487b7100000000000000000000000000000000000000000000000000000000600052601160045260246000fd5b600061296c82612376565b91507fffffffffffffffffffffffffffffffffffffffffffffffffffffffffffffffff820361299e5761299d612932565b5b600182019050919050565b7f4e6f7420612076616c69642050726f706f73616c204964000000000000000000600082015250565b60006129df6017836122c6565b91506129ea826129a9565b602082019050919050565b60006020820190508181036000830152612a0e816129d2565b9050919050565b7f4f776e61626c653a2063616c6c6572206973206e6f7420746865206f776e6572600082015250565b6000612a4b6020836122c6565b9150612a5682612a15565b602082019050919050565b60006020820190508181036000830152612a7a81612a3e565b9050919050565b7f566f7465206973206e6f7420696e2070726f6772657373000000000000000000600082015250565b6000612ab76017836122c6565b9150612ac282612a81565b602082019050919050565b60006020820190508181036000830152612ae681612aaa565b9050919050565b7f766f74696e6720706572696f6420686173206e6f742065787069726564000000600082015250565b6000612b23601d836122c6565b9150612b2e82612aed565b602082019050919050565b60006020820190508181036000830152612b5281612b16565b9050919050565b7f416363657373436f6e74726f6c3a2063616e206f6e6c792072656e6f756e636560008201527f20726f6c657320666f722073656c660000000000000000000000000000000000602082015250565b6000612bb5602f836122c6565b9150612bc082612b59565b604082019050919050565b60006020820190508181036000830152612be481612ba8565b9050919050565b7f54686520766f74696e6720706572696f642063616e6e6f742062652030000000600082015250565b6000612c21601d836122c6565b9150612c2c82612beb565b602082019050919050565b60006020820190508181036000830152612c5081612c14565b9050919050565b6000612c6282612376565b9150612c6d83612376565b9250817fffffffffffffffffffffffffffffffffffffffffffffffffffffffffffffffff0483118215151615612ca657612ca5612932565b5b828202905092915050565b6000612cbc82612376565b9150612cc783612376565b9250827fffffffffffffffffffffffffffffffffffffffffffffffffffffffffffffffff03821115612cfc57612cfb612932565b5b828201905092915050565b7f4e487b7100000000000000000000000000000000000000000000000000000000600052603260045260246000fd5b600080fd5b600080fd5b600080fd5b60008083356001602003843603038112612d6257612d61612d36565b5b80840192508235915067ffffffffffffffff821115612d8457612d83612d3b565b5b602083019250600182023603831315612da057612d9f612d40565b5b509250929050565b82818337600083830152505050565b6000612dc383856122c6565b9350612dd0838584612da8565b612dd98361230a565b840190509392505050565b600082825260208201905092915050565b6000819050919050565b600082825260208201905092915050565b6000612e1c8385612dff565b9350612e29838584612da8565b612e328361230a565b840190509392505050565b6000612e4a848484612e10565b90509392505050565b600080fd5b600080fd5b600080fd5b60008083356001602003843603038112612e7f57612e7e612e5d565b5b83810192508235915060208301925067ffffffffffffffff821115612ea757612ea6612e53565b5b600182023603831315612ebd57612ebc612e58565b5b509250929050565b6000602082019050919050565b6000612ede8385612de4565b935083602084028501612ef084612df5565b8060005b87811015612f36578484038952612f0b8284612e62565b612f16868284612e3d565b9550612f2184612ec5565b935060208b019a505050600181019050612ef4565b50829750879450505050509392505050565b6000608082019050612f5d600083018961284e565b8181036020830152612f70818789612db7565b90508181036040830152612f85818587612ed2565b9050612f9460608301846123ec565b979650505050505050565b7f206d696e7420746f20746865207a65726f206164647265737300000000000000600082015250565b6000612fd56019836122c6565b9150612fe082612f9f565b602082019050919050565b6000602082019050818103600083015261300481612fc8565b9050919050565b7f50726f706f73616c2073686f756c6420626520696e2074616c6c790000000000600082015250565b6000613041601b836122c6565b915061304c8261300b565b602082019050919050565b6000602082019050818103600083015261307081613034565b9050919050565b7f70726f706f73616c2068617320657870697265642e0000000000000000000000600082015250565b60006130ad6015836122c6565b91506130b882613077565b602082019050919050565b600060208201905081810360008301526130dc816130a0565b9050919050565b7f7573657220616c726561647920766f746564206f6e20746869732070726f706f60008201527f73616c0000000000000000000000000000000000000000000000000000000000602082015250565b600061313f6023836122c6565b915061314a826130e3565b604082019050919050565b6000602082019050818103600083015261316e81613132565b9050919050565b7f666f7220746869732070726f706f73616c2c2074686520766f74696e6720746960008201527f6d65206578706972656400000000000000000000000000000000000000000000602082015250565b60006131d1602a836122c6565b91506131dc82613175565b604082019050919050565b60006020820190508181036000830152613200816131c4565b9050919050565b600060808201905061321c600083018761284e565b61322960208301866123ec565b61323660408301856123ec565b61324360608301846123ec565b95945050505050565b7f4f776e61626c653a206e6577206f776e657220697320746865207a65726f206160008201527f6464726573730000000000000000000000000000000000000000000000000000602082015250565b60006132a86026836122c6565b91506132b38261324c565b604082019050919050565b600060208201905081810360008301526132d78161329b565b9050919050565b60006132e982612376565b91506132f483612376565b92508282101561330757613306612932565b5b828203905092915050565b7f4e487b7100000000000000000000000000000000000000000000000000000000600052601260045260246000fd5b600061334c82612376565b915061335783612376565b92508261336757613366613312565b5b828204905092915050565b600081905092915050565b7f416363657373436f6e74726f6c3a206163636f756e7420000000000000000000600082015250565b60006133b3601783613372565b91506133be8261337d565b601782019050919050565b60006133d4826122bb565b6133de8185613372565b93506133ee8185602086016122d7565b80840191505092915050565b7f206973206d697373696e6720726f6c6520000000000000000000000000000000600082015250565b6000613430601183613372565b915061343b826133fa565b601182019050919050565b6000613451826133a6565b915061345d82856133c9565b915061346882613423565b915061347482846133c9565b91508190509392505050565b7f4e487b7100000000000000000000000000000000000000000000000000000000600052604160045260246000fd5b60006134ba82612376565b9150600082036134cd576134cc612932565b5b600182039050919050565b7f537472696e67733a20686578206c656e67746820696e73756666696369656e74600082015250565b600061350e6020836122c6565b9150613519826134d8565b602082019050919050565b6000602082019050818103600083015261353d81613501565b905091905056fea2646970667358221220843ab180d4e61aff58f7ffd8a50fdcd1dbcd5ebf58051bff1d9670961bb7fcd864736f6c634300080e0033",
  "immutableReferences": {},
  "source": "// SPDX-License-Identifier: MIT\r\npragma solidity ^0.8.0;\r\n\r\nimport \"@openzeppelin/contracts/utils/math/SafeMath.sol\";\r\nimport \"@openzeppelin/contracts/access/Ownable.sol\";\r\nimport \"@openzeppelin/contracts/access/AccessControl.sol\";\r\n\r\ncontract Voting is Ownable, AccessControl {\r\n    using SafeMath for uint256;\r\n    uint256 private _totalSupply;\r\n    string public symbol;\r\n    string public name;\r\n    mapping(address => uint256) private _balances;\r\n    uint256 public ProposalCount;\r\n\r\n    event VoteCasted(\r\n        address voter,\r\n        uint256 ProposalID,\r\n        uint256 weight,\r\n        uint256 optionNum\r\n    );\r\n\r\n    event ProposalCreated(\r\n        address creator,\r\n        string description,\r\n        string[] _options,\r\n        uint256 votingTimeInHours\r\n    );\r\n\r\n    struct Proposal {\r\n        address creator;\r\n        ProposalStatus status;\r\n        string description;\r\n        address[] voters;\r\n        uint256 expirationTime;\r\n        uint256 numOfOptions;\r\n        mapping(address => Voter) voterInfo;\r\n        mapping(uint256 => option) options;\r\n    }\r\n    enum ProposalStatus {\r\n        IN_PROGRESS,\r\n        TALLY,\r\n        ENDED\r\n    }\r\n    struct Voter {\r\n        bool hasVoted;\r\n        uint256 optionNum;\r\n        uint256 weight;\r\n    }\r\n\r\n    struct option {\r\n        string optionName;\r\n        uint256 totalWeight;\r\n    }\r\n    mapping(uint256 => Proposal) public Proposals;\r\n\r\n    address private Owner;\r\n\r\n    constructor() public {\r\n        symbol = \"V\";\r\n        name = \"Voting\";\r\n        Owner = msg.sender;\r\n    }\r\n\r\n    function checkAdmin() public view returns (bool) {\r\n        if (msg.sender == Owner) {\r\n            return true;\r\n        }\r\n        return false;\r\n    }\r\n\r\n    function createProposal(\r\n        string calldata _description,\r\n        string[] calldata _options,\r\n        uint256 _voteExpirationTime\r\n    ) external onlyOwner returns (uint256) {\r\n        require(_voteExpirationTime > 0, \"The voting period cannot be 0\");\r\n        ProposalCount++;\r\n        Proposal storage curProposal = Proposals[ProposalCount];\r\n        curProposal.creator = msg.sender;\r\n        curProposal.status = ProposalStatus.IN_PROGRESS;\r\n        curProposal.expirationTime =\r\n            block.timestamp +\r\n            60 *\r\n            _voteExpirationTime *\r\n            1 seconds;\r\n        curProposal.description = _description;\r\n        curProposal.numOfOptions = _options.length;\r\n        for (uint256 i = 0; i < _options.length; i++) {\r\n            curProposal.options[i + 1] = option({\r\n                optionName: _options[i],\r\n                totalWeight: 0\r\n            });\r\n        }\r\n\r\n        emit ProposalCreated(\r\n            msg.sender,\r\n            _description,\r\n            _options,\r\n            _voteExpirationTime\r\n        );\r\n        return ProposalCount;\r\n    }\r\n\r\n    function setProposalToTally(uint256 _ProposalID)\r\n        external\r\n        validProposal(_ProposalID)\r\n        onlyOwner\r\n    {\r\n        require(\r\n            Proposals[_ProposalID].status == ProposalStatus.IN_PROGRESS,\r\n            \"Vote is not in progress\"\r\n        );\r\n        require(\r\n            block.timestamp >= getProposalExpirationTime(_ProposalID),\r\n            \"voting period has not expired\"\r\n        );\r\n        Proposals[_ProposalID].status = ProposalStatus.TALLY;\r\n    }\r\n\r\n    function setProposalToEnded(uint256 _ProposalID)\r\n        external\r\n        validProposal(_ProposalID)\r\n        onlyOwner\r\n    {\r\n        require(\r\n            Proposals[_ProposalID].status == ProposalStatus.TALLY,\r\n            \"Proposal should be in tally\"\r\n        );\r\n        require(\r\n            block.timestamp >= getProposalExpirationTime(_ProposalID),\r\n            \"voting period has not expired\"\r\n        );\r\n        Proposals[_ProposalID].status = ProposalStatus.ENDED;\r\n    }\r\n\r\n    function getProposalStatus(uint256 _ProposalID)\r\n        public\r\n        view\r\n        validProposal(_ProposalID)\r\n        returns (ProposalStatus)\r\n    {\r\n        return Proposals[_ProposalID].status;\r\n    }\r\n\r\n    function getProposalExpirationTime(uint256 _ProposalID)\r\n        public\r\n        view\r\n        validProposal(_ProposalID)\r\n        returns (uint256)\r\n    {\r\n        return Proposals[_ProposalID].expirationTime;\r\n    }\r\n\r\n    modifier validProposal(uint256 _ProposalID) {\r\n        require(\r\n            _ProposalID > 0 && _ProposalID <= ProposalCount,\r\n            \"Not a valid Proposal Id\"\r\n        );\r\n        _;\r\n    }\r\n\r\n    function userHasVoted(uint256 _ProposalID, address _user)\r\n        internal\r\n        view\r\n        validProposal(_ProposalID)\r\n        returns (bool)\r\n    {\r\n        return (Proposals[_ProposalID].voterInfo[_user].hasVoted);\r\n    }\r\n\r\n    /**\r\n     * @dev to get winner of poll.\r\n     * @param _ProposalID the proposal id\r\n     * returns index of options, total weight of option and name of option\r\n     */\r\n\r\n    function countVotes(uint256 _ProposalID)\r\n        public\r\n        view\r\n        returns (\r\n            uint256,\r\n            uint256,\r\n            string memory\r\n        )\r\n    {\r\n        uint256 len = Proposals[_ProposalID].numOfOptions;\r\n        uint256 maxWeight;\r\n        uint256 index;\r\n        for (uint256 i = 1; i < len; i++) {\r\n            if (Proposals[_ProposalID].options[i].totalWeight >= maxWeight) {\r\n                maxWeight = Proposals[_ProposalID].options[i].totalWeight;\r\n                index = i;\r\n            }\r\n        }\r\n        string memory n = Proposals[_ProposalID].options[index].optionName;\r\n        return (index, maxWeight, n);\r\n    }\r\n\r\n    function getWeight(uint256 _ProposalID, uint256 optionNum)\r\n        public\r\n        view\r\n        returns (uint256)\r\n    {\r\n        return Proposals[_ProposalID].options[optionNum].totalWeight;\r\n    }\r\n\r\n    function castVote(\r\n        uint256 _ProposalID,\r\n        uint256 numTokens,\r\n        uint256 _optionNum\r\n    ) external validProposal(_ProposalID) {\r\n        require(\r\n            getProposalStatus(_ProposalID) == ProposalStatus.IN_PROGRESS,\r\n            \"proposal has expired.\"\r\n        );\r\n        require(\r\n            !userHasVoted(_ProposalID, msg.sender),\r\n            \"user already voted on this proposal\"\r\n        );\r\n        require(\r\n            getProposalExpirationTime(_ProposalID) > block.timestamp,\r\n            \"for this proposal, the voting time expired\"\r\n        );\r\n\r\n        _balances[msg.sender] = _balances[msg.sender].sub(numTokens);\r\n\r\n        uint256 weight = sqrt(numTokens); // QV Vote\r\n\r\n        Proposal storage curproposal = Proposals[_ProposalID];\r\n\r\n        curproposal.voterInfo[msg.sender] = Voter({\r\n            hasVoted: true,\r\n            optionNum: _optionNum,\r\n            weight: weight\r\n        });\r\n        curproposal.options[_optionNum].totalWeight += weight;\r\n\r\n        curproposal.voters.push(msg.sender);\r\n\r\n        emit VoteCasted(msg.sender, _ProposalID, weight, _optionNum);\r\n    }\r\n\r\n    function sqrt(uint256 x) internal pure returns (uint256 y) {\r\n        uint256 z = (x + 1) / 2;\r\n        y = x;\r\n        while (z < y) {\r\n            y = z;\r\n            z = (x / z + z) / 2;\r\n        }\r\n    }\r\n\r\n    /**\r\n     * @dev minting more tokens for an account\r\n     */\r\n    function mint(address account, uint256 amount) public onlyOwner {\r\n        require(account != address(0), \" mint to the zero address\");\r\n        _totalSupply = _totalSupply.add(amount);\r\n        _balances[account] = _balances[account].add(amount);\r\n    }\r\n\r\n    /**\r\n     * @dev returns the balance of an account\r\n     */\r\n    function balanceOf(address account) public view returns (uint256) {\r\n        return _balances[account];\r\n    }\r\n}\r\n",
  "sourcePath": "C:\\Users\\sande\\Desktop\\quadratic_voting\\frontend\\truffle\\contracts\\QVVoting.sol",
  "compiler": {
    "name": "solc",
    "version": "0.8.14+commit.80d49f37.Emscripten.clang"
  },
  "schemaVersion": "3.4.7",
  "updatedAt": "2022-06-27T12:13:39.822Z",
  "devdoc": {
    "kind": "dev",
    "methods": {
      "balanceOf(address)": {
        "details": "returns the balance of an account"
      },
      "countVotes(uint256)": {
        "details": "to get winner of poll.",
        "params": {
          "_ProposalID": "the proposal id returns index of options, total weight of option and name of option"
        }
      },
      "getRoleAdmin(bytes32)": {
        "details": "Returns the admin role that controls `role`. See {grantRole} and {revokeRole}. To change a role's admin, use {_setRoleAdmin}."
      },
      "grantRole(bytes32,address)": {
        "details": "Grants `role` to `account`. If `account` had not been already granted `role`, emits a {RoleGranted} event. Requirements: - the caller must have ``role``'s admin role."
      },
      "hasRole(bytes32,address)": {
        "details": "Returns `true` if `account` has been granted `role`."
      },
      "mint(address,uint256)": {
        "details": "minting more tokens for an account"
      },
      "owner()": {
        "details": "Returns the address of the current owner."
      },
      "renounceOwnership()": {
        "details": "Leaves the contract without owner. It will not be possible to call `onlyOwner` functions anymore. Can only be called by the current owner. NOTE: Renouncing ownership will leave the contract without an owner, thereby removing any functionality that is only available to the owner."
      },
      "renounceRole(bytes32,address)": {
        "details": "Revokes `role` from the calling account. Roles are often managed via {grantRole} and {revokeRole}: this function's purpose is to provide a mechanism for accounts to lose their privileges if they are compromised (such as when a trusted device is misplaced). If the calling account had been revoked `role`, emits a {RoleRevoked} event. Requirements: - the caller must be `account`."
      },
      "revokeRole(bytes32,address)": {
        "details": "Revokes `role` from `account`. If `account` had been granted `role`, emits a {RoleRevoked} event. Requirements: - the caller must have ``role``'s admin role."
      },
      "supportsInterface(bytes4)": {
        "details": "See {IERC165-supportsInterface}."
      },
      "transferOwnership(address)": {
        "details": "Transfers ownership of the contract to a new account (`newOwner`). Can only be called by the current owner."
      }
    },
    "version": 1
  },
  "userdoc": {
    "kind": "user",
    "methods": {},
    "version": 1
  }
}