{
  "contractName": "Voting",
  "abi": [
    {
      "inputs": [],
      "stateMutability": "nonpayable",
      "type": "constructor"
    },
    {
      "anonymous": false,
      "inputs": [
        {
          "indexed": true,
          "internalType": "address",
          "name": "previousOwner",
          "type": "address"
        },
        {
          "indexed": true,
          "internalType": "address",
          "name": "newOwner",
          "type": "address"
        }
      ],
      "name": "OwnershipTransferred",
      "type": "event"
    },
    {
      "anonymous": false,
      "inputs": [
        {
          "indexed": false,
          "internalType": "address",
          "name": "creator",
          "type": "address"
        },
        {
          "indexed": false,
          "internalType": "string",
          "name": "description",
          "type": "string"
        },
        {
          "indexed": false,
          "internalType": "string[]",
          "name": "_options",
          "type": "string[]"
        },
        {
          "indexed": false,
          "internalType": "uint256",
          "name": "votingTimeInHours",
          "type": "uint256"
        }
      ],
      "name": "ProposalCreated",
      "type": "event"
    },
    {
      "anonymous": false,
      "inputs": [
        {
          "indexed": true,
          "internalType": "bytes32",
          "name": "role",
          "type": "bytes32"
        },
        {
          "indexed": true,
          "internalType": "bytes32",
          "name": "previousAdminRole",
          "type": "bytes32"
        },
        {
          "indexed": true,
          "internalType": "bytes32",
          "name": "newAdminRole",
          "type": "bytes32"
        }
      ],
      "name": "RoleAdminChanged",
      "type": "event"
    },
    {
      "anonymous": false,
      "inputs": [
        {
          "indexed": true,
          "internalType": "bytes32",
          "name": "role",
          "type": "bytes32"
        },
        {
          "indexed": true,
          "internalType": "address",
          "name": "account",
          "type": "address"
        },
        {
          "indexed": true,
          "internalType": "address",
          "name": "sender",
          "type": "address"
        }
      ],
      "name": "RoleGranted",
      "type": "event"
    },
    {
      "anonymous": false,
      "inputs": [
        {
          "indexed": true,
          "internalType": "bytes32",
          "name": "role",
          "type": "bytes32"
        },
        {
          "indexed": true,
          "internalType": "address",
          "name": "account",
          "type": "address"
        },
        {
          "indexed": true,
          "internalType": "address",
          "name": "sender",
          "type": "address"
        }
      ],
      "name": "RoleRevoked",
      "type": "event"
    },
    {
      "anonymous": false,
      "inputs": [
        {
          "indexed": false,
          "internalType": "address",
          "name": "voter",
          "type": "address"
        },
        {
          "indexed": false,
          "internalType": "uint256",
          "name": "ProposalID",
          "type": "uint256"
        },
        {
          "indexed": false,
          "internalType": "uint256",
          "name": "weight",
          "type": "uint256"
        },
        {
          "indexed": false,
          "internalType": "uint256",
          "name": "optionNum",
          "type": "uint256"
        }
      ],
      "name": "VoteCasted",
      "type": "event"
    },
    {
      "inputs": [],
      "name": "DEFAULT_ADMIN_ROLE",
      "outputs": [
        {
          "internalType": "bytes32",
          "name": "",
          "type": "bytes32"
        }
      ],
      "stateMutability": "view",
      "type": "function"
    },
    {
      "inputs": [],
      "name": "ProposalCount",
      "outputs": [
        {
          "internalType": "uint256",
          "name": "",
          "type": "uint256"
        }
      ],
      "stateMutability": "view",
      "type": "function"
    },
    {
      "inputs": [
        {
          "internalType": "uint256",
          "name": "",
          "type": "uint256"
        }
      ],
      "name": "Proposals",
      "outputs": [
        {
          "internalType": "address",
          "name": "creator",
          "type": "address"
        },
        {
          "internalType": "enum Voting.ProposalStatus",
          "name": "status",
          "type": "uint8"
        },
        {
          "internalType": "string",
          "name": "description",
          "type": "string"
        },
        {
          "internalType": "uint256",
          "name": "expirationTime",
          "type": "uint256"
        },
        {
          "internalType": "uint256",
          "name": "numOfOptions",
          "type": "uint256"
        }
      ],
      "stateMutability": "view",
      "type": "function"
    },
    {
      "inputs": [
        {
          "internalType": "bytes32",
          "name": "role",
          "type": "bytes32"
        }
      ],
      "name": "getRoleAdmin",
      "outputs": [
        {
          "internalType": "bytes32",
          "name": "",
          "type": "bytes32"
        }
      ],
      "stateMutability": "view",
      "type": "function"
    },
    {
      "inputs": [
        {
          "internalType": "bytes32",
          "name": "role",
          "type": "bytes32"
        },
        {
          "internalType": "address",
          "name": "account",
          "type": "address"
        }
      ],
      "name": "grantRole",
      "outputs": [],
      "stateMutability": "nonpayable",
      "type": "function"
    },
    {
      "inputs": [
        {
          "internalType": "bytes32",
          "name": "role",
          "type": "bytes32"
        },
        {
          "internalType": "address",
          "name": "account",
          "type": "address"
        }
      ],
      "name": "hasRole",
      "outputs": [
        {
          "internalType": "bool",
          "name": "",
          "type": "bool"
        }
      ],
      "stateMutability": "view",
      "type": "function"
    },
    {
      "inputs": [],
      "name": "name",
      "outputs": [
        {
          "internalType": "string",
          "name": "",
          "type": "string"
        }
      ],
      "stateMutability": "view",
      "type": "function"
    },
    {
      "inputs": [],
      "name": "owner",
      "outputs": [
        {
          "internalType": "address",
          "name": "",
          "type": "address"
        }
      ],
      "stateMutability": "view",
      "type": "function"
    },
    {
      "inputs": [],
      "name": "renounceOwnership",
      "outputs": [],
      "stateMutability": "nonpayable",
      "type": "function"
    },
    {
      "inputs": [
        {
          "internalType": "bytes32",
          "name": "role",
          "type": "bytes32"
        },
        {
          "internalType": "address",
          "name": "account",
          "type": "address"
        }
      ],
      "name": "renounceRole",
      "outputs": [],
      "stateMutability": "nonpayable",
      "type": "function"
    },
    {
      "inputs": [
        {
          "internalType": "bytes32",
          "name": "role",
          "type": "bytes32"
        },
        {
          "internalType": "address",
          "name": "account",
          "type": "address"
        }
      ],
      "name": "revokeRole",
      "outputs": [],
      "stateMutability": "nonpayable",
      "type": "function"
    },
    {
      "inputs": [
        {
          "internalType": "bytes4",
          "name": "interfaceId",
          "type": "bytes4"
        }
      ],
      "name": "supportsInterface",
      "outputs": [
        {
          "internalType": "bool",
          "name": "",
          "type": "bool"
        }
      ],
      "stateMutability": "view",
      "type": "function"
    },
    {
      "inputs": [],
      "name": "symbol",
      "outputs": [
        {
          "internalType": "string",
          "name": "",
          "type": "string"
        }
      ],
      "stateMutability": "view",
      "type": "function"
    },
    {
      "inputs": [
        {
          "internalType": "address",
          "name": "newOwner",
          "type": "address"
        }
      ],
      "name": "transferOwnership",
      "outputs": [],
      "stateMutability": "nonpayable",
      "type": "function"
    },
    {
      "inputs": [],
      "name": "checkAdmin",
      "outputs": [
        {
          "internalType": "bool",
          "name": "",
          "type": "bool"
        }
      ],
      "stateMutability": "view",
      "type": "function"
    },
    {
      "inputs": [
        {
          "internalType": "string",
          "name": "_description",
          "type": "string"
        },
        {
          "internalType": "string[]",
          "name": "_options",
          "type": "string[]"
        },
        {
          "internalType": "uint256",
          "name": "_voteExpirationTime",
          "type": "uint256"
        }
      ],
      "name": "createProposal",
      "outputs": [
        {
          "internalType": "uint256",
          "name": "",
          "type": "uint256"
        }
      ],
      "stateMutability": "nonpayable",
      "type": "function"
    },
    {
      "inputs": [
        {
          "internalType": "uint256",
          "name": "_ProposalID",
          "type": "uint256"
        }
      ],
      "name": "setProposalToTally",
      "outputs": [],
      "stateMutability": "nonpayable",
      "type": "function"
    },
    {
      "inputs": [
        {
          "internalType": "uint256",
          "name": "_ProposalID",
          "type": "uint256"
        }
      ],
      "name": "setProposalToEnded",
      "outputs": [],
      "stateMutability": "nonpayable",
      "type": "function"
    },
    {
      "inputs": [
        {
          "internalType": "uint256",
          "name": "_ProposalID",
          "type": "uint256"
        }
      ],
      "name": "getProposalStatus",
      "outputs": [
        {
          "internalType": "enum Voting.ProposalStatus",
          "name": "",
          "type": "uint8"
        }
      ],
      "stateMutability": "view",
      "type": "function"
    },
    {
      "inputs": [
        {
          "internalType": "uint256",
          "name": "_ProposalID",
          "type": "uint256"
        }
      ],
      "name": "getDetails",
      "outputs": [
        {
          "internalType": "string",
          "name": "",
          "type": "string"
        },
        {
          "internalType": "string[]",
          "name": "",
          "type": "string[]"
        }
      ],
      "stateMutability": "view",
      "type": "function"
    },
    {
      "inputs": [
        {
          "internalType": "uint256",
          "name": "_ProposalID",
          "type": "uint256"
        }
      ],
      "name": "getProposalExpirationTime",
      "outputs": [
        {
          "internalType": "uint256",
          "name": "",
          "type": "uint256"
        }
      ],
      "stateMutability": "view",
      "type": "function"
    },
    {
      "inputs": [
        {
          "internalType": "uint256",
          "name": "_ProposalID",
          "type": "uint256"
        }
      ],
      "name": "countVotes",
      "outputs": [
        {
          "internalType": "uint256",
          "name": "",
          "type": "uint256"
        },
        {
          "internalType": "uint256",
          "name": "",
          "type": "uint256"
        },
        {
          "internalType": "string",
          "name": "",
          "type": "string"
        }
      ],
      "stateMutability": "view",
      "type": "function"
    },
    {
      "inputs": [
        {
          "internalType": "uint256",
          "name": "_ProposalID",
          "type": "uint256"
        },
        {
          "internalType": "uint256",
          "name": "optionNum",
          "type": "uint256"
        }
      ],
      "name": "getWeight",
      "outputs": [
        {
          "internalType": "uint256",
          "name": "",
          "type": "uint256"
        }
      ],
      "stateMutability": "view",
      "type": "function"
    },
    {
      "inputs": [
        {
          "internalType": "uint256",
          "name": "_ProposalID",
          "type": "uint256"
        },
        {
          "internalType": "uint256",
          "name": "numTokens",
          "type": "uint256"
        },
        {
          "internalType": "uint256",
          "name": "_optionNum",
          "type": "uint256"
        }
      ],
      "name": "castVote",
      "outputs": [],
      "stateMutability": "nonpayable",
      "type": "function"
    },
    {
      "inputs": [
        {
          "internalType": "address",
          "name": "account",
          "type": "address"
        },
        {
          "internalType": "uint256",
          "name": "amount",
          "type": "uint256"
        }
      ],
      "name": "mint",
      "outputs": [],
      "stateMutability": "nonpayable",
      "type": "function"
    },
    {
      "inputs": [
        {
          "internalType": "address",
          "name": "account",
          "type": "address"
        }
      ],
      "name": "balanceOf",
      "outputs": [
        {
          "internalType": "uint256",
          "name": "",
          "type": "uint256"
        }
      ],
      "stateMutability": "view",
      "type": "function"
    }
  ],
  "bytecode": "0x60806040523480156200001157600080fd5b5062000032620000266200011560201b60201c565b6200011d60201b60201c565b6040518060400160405280600181526020017f5600000000000000000000000000000000000000000000000000000000000000815250600390805190602001906200007f929190620001e1565b506040518060400160405280600681526020017f566f74696e67000000000000000000000000000000000000000000000000000081525060049080519060200190620000cd929190620001e1565b5033600860006101000a81548173ffffffffffffffffffffffffffffffffffffffff021916908373ffffffffffffffffffffffffffffffffffffffff160217905550620002f5565b600033905090565b60008060009054906101000a900473ffffffffffffffffffffffffffffffffffffffff169050816000806101000a81548173ffffffffffffffffffffffffffffffffffffffff021916908373ffffffffffffffffffffffffffffffffffffffff1602179055508173ffffffffffffffffffffffffffffffffffffffff168173ffffffffffffffffffffffffffffffffffffffff167f8be0079c531659141344cd1fd0a4f28419497f9722a3daafe3b4186f6b6457e060405160405180910390a35050565b828054620001ef90620002c0565b90600052602060002090601f0160209004810192826200021357600085556200025f565b82601f106200022e57805160ff19168380011785556200025f565b828001600101855582156200025f579182015b828111156200025e57825182559160200191906001019062000241565b5b5090506200026e919062000272565b5090565b5b808211156200028d57600081600090555060010162000273565b5090565b7f4e487b7100000000000000000000000000000000000000000000000000000000600052602260045260246000fd5b60006002820490506001821680620002d957607f821691505b602082108103620002ef57620002ee62000291565b5b50919050565b61391480620003056000396000f3fe608060405234801561001057600080fd5b506004361061018e5760003560e01c80635be5e3ec116100de578063a217fddf11610097578063be747c1c11610071578063be747c1c146104be578063d1dbe7d8146104dc578063d547741f14610510578063f2fde38b1461052c5761018e565b8063a217fddf14610451578063ab1502261461046f578063b93a89f71461048d5761018e565b80635be5e3ec1461038f57806370a08231146103ab578063715018a6146103db5780638da5cb5b146103e557806391d148541461040357806395d89b41146104335761018e565b80632f2ff15d1161014b578063401853b711610125578063401853b7146102f757806340c10f19146103275780634c3bd9d6146103435780634d5f9eba1461035f5761018e565b80632f2ff15d1461028f57806336568abe146102ab5780633989ae34146102c75761018e565b806301ffc9a71461019357806306fdde03146101c35780630f39ee72146101e15780631840f0ca14610211578063248a9ca3146102435780632d5e9d2914610273575b600080fd5b6101ad60048036038101906101a891906124d1565b610548565b6040516101ba9190612519565b60405180910390f35b6101cb6105c2565b6040516101d891906125cd565b60405180910390f35b6101fb60048036038101906101f69190612625565b610650565b6040516102089190612674565b60405180910390f35b61022b6004803603810190610226919061268f565b610685565b60405161023a939291906126bc565b60405180910390f35b61025d60048036038101906102589190612730565b6107f8565b60405161026a919061276c565b60405180910390f35b61028d6004803603810190610288919061268f565b610818565b005b6102a960048036038101906102a491906127e5565b6109fe565b005b6102c560048036038101906102c091906127e5565b610a1f565b005b6102e160048036038101906102dc91906128e0565b610aa2565b6040516102ee9190612674565b60405180910390f35b610311600480360381019061030c919061268f565b610d8a565b60405161031e91906129ec565b60405180910390f35b610341600480360381019061033c9190612a07565b610e0a565b005b61035d6004803603810190610358919061268f565b610fa9565b005b6103796004803603810190610374919061268f565b61118f565b6040516103869190612674565b60405180910390f35b6103a960048036038101906103a49190612a47565b611202565b005b6103c560048036038101906103c09190612a9a565b61157f565b6040516103d29190612674565b60405180910390f35b6103e36115c8565b005b6103ed611650565b6040516103fa9190612ad6565b60405180910390f35b61041d600480360381019061041891906127e5565b611679565b60405161042a9190612519565b60405180910390f35b61043b6116e4565b60405161044891906125cd565b60405180910390f35b610459611772565b604051610466919061276c565b60405180910390f35b610477611779565b6040516104849190612519565b60405180910390f35b6104a760048036038101906104a2919061268f565b6117e1565b6040516104b5929190612bfd565b60405180910390f35b6104c6611a0e565b6040516104d39190612674565b60405180910390f35b6104f660048036038101906104f1919061268f565b611a14565b604051610507959493929190612c34565b60405180910390f35b61052a600480360381019061052591906127e5565b611aff565b005b61054660048036038101906105419190612a9a565b611b20565b005b60007f7965db0b000000000000000000000000000000000000000000000000000000007bffffffffffffffffffffffffffffffffffffffffffffffffffffffff1916827bffffffffffffffffffffffffffffffffffffffffffffffffffffffff191614806105bb57506105ba82611c17565b5b9050919050565b600480546105cf90612cbd565b80601f01602080910402602001604051908101604052809291908181526020018280546105fb90612cbd565b80156106485780601f1061061d57610100808354040283529160200191610648565b820191906000526020600020905b81548152906001019060200180831161062b57829003601f168201915b505050505081565b600060076000848152602001908152602001600020600601600083815260200190815260200160002060010154905092915050565b60008060606000600760008681526020019081526020016000206004015490506000806000600190505b8381101561072c5782600760008a815260200190815260200160002060060160008381526020019081526020016000206001015410610719576007600089815260200190815260200160002060060160008281526020019081526020016000206001015492508091505b808061072490612d1d565b9150506106af565b506000600760008981526020019081526020016000206006016000838152602001908152602001600020600001805461076490612cbd565b80601f016020809104026020016040519081016040528092919081815260200182805461079090612cbd565b80156107dd5780601f106107b2576101008083540402835291602001916107dd565b820191906000526020600020905b8154815290600101906020018083116107c057829003601f168201915b50505050509050818382965096509650505050509193909250565b600060016000838152602001908152602001600020600101549050919050565b8060008111801561082b57506006548111155b61086a576040517f08c379a000000000000000000000000000000000000000000000000000000000815260040161086190612db1565b60405180910390fd5b610872611c81565b73ffffffffffffffffffffffffffffffffffffffff16610890611650565b73ffffffffffffffffffffffffffffffffffffffff16146108e6576040517f08c379a00000000000000000000000000000000000000000000000000000000081526004016108dd90612e1d565b60405180910390fd5b600060028111156108fa576108f9612975565b5b6007600084815260200190815260200160002060000160149054906101000a900460ff1660028111156109305761092f612975565b5b14610970576040517f08c379a000000000000000000000000000000000000000000000000000000000815260040161096790612e89565b60405180910390fd5b6109798261118f565b4210156109bb576040517f08c379a00000000000000000000000000000000000000000000000000000000081526004016109b290612ef5565b60405180910390fd5b60016007600084815260200190815260200160002060000160146101000a81548160ff021916908360028111156109f5576109f4612975565b5b02179055505050565b610a07826107f8565b610a1081611c89565b610a1a8383611c9d565b505050565b610a27611c81565b73ffffffffffffffffffffffffffffffffffffffff168173ffffffffffffffffffffffffffffffffffffffff1614610a94576040517f08c379a0000000000000000000000000000000000000000000000000000000008152600401610a8b90612f87565b60405180910390fd5b610a9e8282611d7d565b5050565b6000610aac611c81565b73ffffffffffffffffffffffffffffffffffffffff16610aca611650565b73ffffffffffffffffffffffffffffffffffffffff1614610b20576040517f08c379a0000000000000000000000000000000000000000000000000000000008152600401610b1790612e1d565b60405180910390fd5b60008211610b63576040517f08c379a0000000000000000000000000000000000000000000000000000000008152600401610b5a90612ff3565b60405180910390fd5b60066000815480929190610b7690612d1d565b919050555060006007600060065481526020019081526020016000209050338160000160006101000a81548173ffffffffffffffffffffffffffffffffffffffff021916908373ffffffffffffffffffffffffffffffffffffffff16021790555060008160000160146101000a81548160ff02191690836002811115610bff57610bfe612975565b5b0217905550600183603c610c139190613013565b610c1d9190613013565b42610c28919061306d565b81600301819055508686826001019190610c43929190612346565b5084849050816004018190555060005b85859050811015610d39576040518060400160405280878784818110610c7c57610c7b6130c3565b5b9050602002810190610c8e9190613101565b8080601f016020809104026020016040519081016040528093929190818152602001838380828437600081840152601f19601f8201169050808301925050505050505081526020016000815250826006016000600184610cee919061306d565b81526020019081526020016000206000820151816000019080519060200190610d189291906123cc565b50602082015181600101559050508080610d3190612d1d565b915050610c53565b507f812b79dc980087562a07c042555f014502c51aac180824c0546a12989f726b59338888888888604051610d73969594939291906132e2565b60405180910390a160065491505095945050505050565b600081600081118015610d9f57506006548111155b610dde576040517f08c379a0000000000000000000000000000000000000000000000000000000008152600401610dd590612db1565b60405180910390fd5b6007600084815260200190815260200160002060000160149054906101000a900460ff16915050919050565b610e12611c81565b73ffffffffffffffffffffffffffffffffffffffff16610e30611650565b73ffffffffffffffffffffffffffffffffffffffff1614610e86576040517f08c379a0000000000000000000000000000000000000000000000000000000008152600401610e7d90612e1d565b60405180910390fd5b600073ffffffffffffffffffffffffffffffffffffffff168273ffffffffffffffffffffffffffffffffffffffff1603610ef5576040517f08c379a0000000000000000000000000000000000000000000000000000000008152600401610eec90613385565b60405180910390fd5b610f0a81600254611e5f90919063ffffffff16565b600281905550610f6281600560008573ffffffffffffffffffffffffffffffffffffffff1673ffffffffffffffffffffffffffffffffffffffff16815260200190815260200160002054611e5f90919063ffffffff16565b600560008473ffffffffffffffffffffffffffffffffffffffff1673ffffffffffffffffffffffffffffffffffffffff168152602001908152602001600020819055505050565b80600081118015610fbc57506006548111155b610ffb576040517f08c379a0000000000000000000000000000000000000000000000000000000008152600401610ff290612db1565b60405180910390fd5b611003611c81565b73ffffffffffffffffffffffffffffffffffffffff16611021611650565b73ffffffffffffffffffffffffffffffffffffffff1614611077576040517f08c379a000000000000000000000000000000000000000000000000000000000815260040161106e90612e1d565b60405180910390fd5b6001600281111561108b5761108a612975565b5b6007600084815260200190815260200160002060000160149054906101000a900460ff1660028111156110c1576110c0612975565b5b14611101576040517f08c379a00000000000000000000000000000000000000000000000000000000081526004016110f8906133f1565b60405180910390fd5b61110a8261118f565b42101561114c576040517f08c379a000000000000000000000000000000000000000000000000000000000815260040161114390612ef5565b60405180910390fd5b60026007600084815260200190815260200160002060000160146101000a81548160ff0219169083600281111561118657611185612975565b5b02179055505050565b6000816000811180156111a457506006548111155b6111e3576040517f08c379a00000000000000000000000000000000000000000000000000000000081526004016111da90612db1565b60405180910390fd5b6007600084815260200190815260200160002060030154915050919050565b8260008111801561121557506006548111155b611254576040517f08c379a000000000000000000000000000000000000000000000000000000000815260040161124b90612db1565b60405180910390fd5b6000600281111561126857611267612975565b5b61127185610d8a565b600281111561128357611282612975565b5b146112c3576040517f08c379a00000000000000000000000000000000000000000000000000000000081526004016112ba9061345d565b60405180910390fd5b6112cd8433611e75565b1561130d576040517f08c379a0000000000000000000000000000000000000000000000000000000008152600401611304906134ef565b60405180910390fd5b426113178561118f565b11611357576040517f08c379a000000000000000000000000000000000000000000000000000000000815260040161134e90613581565b60405180910390fd5b6113a983600560003373ffffffffffffffffffffffffffffffffffffffff1673ffffffffffffffffffffffffffffffffffffffff16815260200190815260200160002054611f3690919063ffffffff16565b600560003373ffffffffffffffffffffffffffffffffffffffff1673ffffffffffffffffffffffffffffffffffffffff1681526020019081526020016000208190555060006113f784611f4c565b905060006007600087815260200190815260200160002090506040518060600160405280600115158152602001858152602001838152508160050160003373ffffffffffffffffffffffffffffffffffffffff1673ffffffffffffffffffffffffffffffffffffffff16815260200190815260200160002060008201518160000160006101000a81548160ff02191690831515021790555060208201518160010155604082015181600201559050508181600601600086815260200190815260200160002060010160008282546114ce919061306d565b9250508190555080600201339080600181540180825580915050600190039060005260206000200160009091909190916101000a81548173ffffffffffffffffffffffffffffffffffffffff021916908373ffffffffffffffffffffffffffffffffffffffff1602179055507fdeab8ee83eba63bd94fc0587073ddbf10ed10cffe1e93c8b63411b7fa3ec02143387848760405161156f94939291906135a1565b60405180910390a1505050505050565b6000600560008373ffffffffffffffffffffffffffffffffffffffff1673ffffffffffffffffffffffffffffffffffffffff168152602001908152602001600020549050919050565b6115d0611c81565b73ffffffffffffffffffffffffffffffffffffffff166115ee611650565b73ffffffffffffffffffffffffffffffffffffffff1614611644576040517f08c379a000000000000000000000000000000000000000000000000000000000815260040161163b90612e1d565b60405180910390fd5b61164e6000611fa9565b565b60008060009054906101000a900473ffffffffffffffffffffffffffffffffffffffff16905090565b60006001600084815260200190815260200160002060000160008373ffffffffffffffffffffffffffffffffffffffff1673ffffffffffffffffffffffffffffffffffffffff16815260200190815260200160002060009054906101000a900460ff16905092915050565b600380546116f190612cbd565b80601f016020809104026020016040519081016040528092919081815260200182805461171d90612cbd565b801561176a5780601f1061173f5761010080835404028352916020019161176a565b820191906000526020600020905b81548152906001019060200180831161174d57829003601f168201915b505050505081565b6000801b81565b6000600860009054906101000a900473ffffffffffffffffffffffffffffffffffffffff1673ffffffffffffffffffffffffffffffffffffffff163373ffffffffffffffffffffffffffffffffffffffff16036117d957600190506117de565b600090505b90565b6060806000600760008581526020019081526020016000206004015467ffffffffffffffff811115611816576118156135e6565b5b60405190808252806020026020018201604052801561184957816020015b60608152602001906001900390816118345790505b5090506000600190505b600760008681526020019081526020016000206004015481116119605760076000868152602001908152602001600020600601600082815260200190815260200160002060000180546118a590612cbd565b80601f01602080910402602001604051908101604052809291908181526020018280546118d190612cbd565b801561191e5780601f106118f35761010080835404028352916020019161191e565b820191906000526020600020905b81548152906001019060200180831161190157829003601f168201915b5050505050826001836119319190613615565b81518110611942576119416130c3565b5b6020026020010181905250808061195890612d1d565b915050611853565b50600760008581526020019081526020016000206001018181805461198490612cbd565b80601f01602080910402602001604051908101604052809291908181526020018280546119b090612cbd565b80156119fd5780601f106119d2576101008083540402835291602001916119fd565b820191906000526020600020905b8154815290600101906020018083116119e057829003601f168201915b505050505091509250925050915091565b60065481565b60076020528060005260406000206000915090508060000160009054906101000a900473ffffffffffffffffffffffffffffffffffffffff16908060000160149054906101000a900460ff1690806001018054611a7090612cbd565b80601f0160208091040260200160405190810160405280929190818152602001828054611a9c90612cbd565b8015611ae95780601f10611abe57610100808354040283529160200191611ae9565b820191906000526020600020905b815481529060010190602001808311611acc57829003601f168201915b5050505050908060030154908060040154905085565b611b08826107f8565b611b1181611c89565b611b1b8383611d7d565b505050565b611b28611c81565b73ffffffffffffffffffffffffffffffffffffffff16611b46611650565b73ffffffffffffffffffffffffffffffffffffffff1614611b9c576040517f08c379a0000000000000000000000000000000000000000000000000000000008152600401611b9390612e1d565b60405180910390fd5b600073ffffffffffffffffffffffffffffffffffffffff168173ffffffffffffffffffffffffffffffffffffffff1603611c0b576040517f08c379a0000000000000000000000000000000000000000000000000000000008152600401611c02906136bb565b60405180910390fd5b611c1481611fa9565b50565b60007f01ffc9a7000000000000000000000000000000000000000000000000000000007bffffffffffffffffffffffffffffffffffffffffffffffffffffffff1916827bffffffffffffffffffffffffffffffffffffffffffffffffffffffff1916149050919050565b600033905090565b611c9a81611c95611c81565b61206d565b50565b611ca78282611679565b611d7957600180600084815260200190815260200160002060000160008373ffffffffffffffffffffffffffffffffffffffff1673ffffffffffffffffffffffffffffffffffffffff16815260200190815260200160002060006101000a81548160ff021916908315150217905550611d1e611c81565b73ffffffffffffffffffffffffffffffffffffffff168173ffffffffffffffffffffffffffffffffffffffff16837f2f8788117e7eff1d82e926ec794901d17c78024a50270940304540a733656f0d60405160405180910390a45b5050565b611d878282611679565b15611e5b5760006001600084815260200190815260200160002060000160008373ffffffffffffffffffffffffffffffffffffffff1673ffffffffffffffffffffffffffffffffffffffff16815260200190815260200160002060006101000a81548160ff021916908315150217905550611e00611c81565b73ffffffffffffffffffffffffffffffffffffffff168173ffffffffffffffffffffffffffffffffffffffff16837ff6391f5c32d9c69d2a47ea670b442974b53935d1edc7fd64eb21e047a839171b60405160405180910390a45b5050565b60008183611e6d919061306d565b905092915050565b600082600081118015611e8a57506006548111155b611ec9576040517f08c379a0000000000000000000000000000000000000000000000000000000008152600401611ec090612db1565b60405180910390fd5b6007600085815260200190815260200160002060050160008473ffffffffffffffffffffffffffffffffffffffff1673ffffffffffffffffffffffffffffffffffffffff16815260200190815260200160002060000160009054906101000a900460ff1691505092915050565b60008183611f449190613615565b905092915050565b6000806002600184611f5e919061306d565b611f68919061370a565b90508291505b81811015611fa3578091506002818285611f88919061370a565b611f92919061306d565b611f9c919061370a565b9050611f6e565b50919050565b60008060009054906101000a900473ffffffffffffffffffffffffffffffffffffffff169050816000806101000a81548173ffffffffffffffffffffffffffffffffffffffff021916908373ffffffffffffffffffffffffffffffffffffffff1602179055508173ffffffffffffffffffffffffffffffffffffffff168173ffffffffffffffffffffffffffffffffffffffff167f8be0079c531659141344cd1fd0a4f28419497f9722a3daafe3b4186f6b6457e060405160405180910390a35050565b6120778282611679565b6121065761209c8173ffffffffffffffffffffffffffffffffffffffff16601461210a565b6120aa8360001c602061210a565b6040516020016120bb92919061380f565b6040516020818303038152906040526040517f08c379a00000000000000000000000000000000000000000000000000000000081526004016120fd91906125cd565b60405180910390fd5b5050565b60606000600283600261211d9190613013565b612127919061306d565b67ffffffffffffffff8111156121405761213f6135e6565b5b6040519080825280601f01601f1916602001820160405280156121725781602001600182028036833780820191505090505b5090507f3000000000000000000000000000000000000000000000000000000000000000816000815181106121aa576121a96130c3565b5b60200101907effffffffffffffffffffffffffffffffffffffffffffffffffffffffffffff1916908160001a9053507f78000000000000000000000000000000000000000000000000000000000000008160018151811061220e5761220d6130c3565b5b60200101907effffffffffffffffffffffffffffffffffffffffffffffffffffffffffffff1916908160001a9053506000600184600261224e9190613013565b612258919061306d565b90505b60018111156122f8577f3031323334353637383961626364656600000000000000000000000000000000600f86166010811061229a576122996130c3565b5b1a60f81b8282815181106122b1576122b06130c3565b5b60200101907effffffffffffffffffffffffffffffffffffffffffffffffffffffffffffff1916908160001a905350600485901c9450806122f190613849565b905061225b565b506000841461233c576040517f08c379a0000000000000000000000000000000000000000000000000000000008152600401612333906138be565b60405180910390fd5b8091505092915050565b82805461235290612cbd565b90600052602060002090601f01602090048101928261237457600085556123bb565b82601f1061238d57803560ff19168380011785556123bb565b828001600101855582156123bb579182015b828111156123ba57823582559160200191906001019061239f565b5b5090506123c89190612452565b5090565b8280546123d890612cbd565b90600052602060002090601f0160209004810192826123fa5760008555612441565b82601f1061241357805160ff1916838001178555612441565b82800160010185558215612441579182015b82811115612440578251825591602001919060010190612425565b5b50905061244e9190612452565b5090565b5b8082111561246b576000816000905550600101612453565b5090565b600080fd5b600080fd5b60007fffffffff0000000000000000000000000000000000000000000000000000000082169050919050565b6124ae81612479565b81146124b957600080fd5b50565b6000813590506124cb816124a5565b92915050565b6000602082840312156124e7576124e661246f565b5b60006124f5848285016124bc565b91505092915050565b60008115159050919050565b612513816124fe565b82525050565b600060208201905061252e600083018461250a565b92915050565b600081519050919050565b600082825260208201905092915050565b60005b8381101561256e578082015181840152602081019050612553565b8381111561257d576000848401525b50505050565b6000601f19601f8301169050919050565b600061259f82612534565b6125a9818561253f565b93506125b9818560208601612550565b6125c281612583565b840191505092915050565b600060208201905081810360008301526125e78184612594565b905092915050565b6000819050919050565b612602816125ef565b811461260d57600080fd5b50565b60008135905061261f816125f9565b92915050565b6000806040838503121561263c5761263b61246f565b5b600061264a85828601612610565b925050602061265b85828601612610565b9150509250929050565b61266e816125ef565b82525050565b60006020820190506126896000830184612665565b92915050565b6000602082840312156126a5576126a461246f565b5b60006126b384828501612610565b91505092915050565b60006060820190506126d16000830186612665565b6126de6020830185612665565b81810360408301526126f08184612594565b9050949350505050565b6000819050919050565b61270d816126fa565b811461271857600080fd5b50565b60008135905061272a81612704565b92915050565b6000602082840312156127465761274561246f565b5b60006127548482850161271b565b91505092915050565b612766816126fa565b82525050565b6000602082019050612781600083018461275d565b92915050565b600073ffffffffffffffffffffffffffffffffffffffff82169050919050565b60006127b282612787565b9050919050565b6127c2816127a7565b81146127cd57600080fd5b50565b6000813590506127df816127b9565b92915050565b600080604083850312156127fc576127fb61246f565b5b600061280a8582860161271b565b925050602061281b858286016127d0565b9150509250929050565b600080fd5b600080fd5b600080fd5b60008083601f84011261284a57612849612825565b5b8235905067ffffffffffffffff8111156128675761286661282a565b5b6020830191508360018202830111156128835761288261282f565b5b9250929050565b60008083601f8401126128a05761289f612825565b5b8235905067ffffffffffffffff8111156128bd576128bc61282a565b5b6020830191508360208202830111156128d9576128d861282f565b5b9250929050565b6000806000806000606086880312156128fc576128fb61246f565b5b600086013567ffffffffffffffff81111561291a57612919612474565b5b61292688828901612834565b9550955050602086013567ffffffffffffffff81111561294957612948612474565b5b6129558882890161288a565b9350935050604061296888828901612610565b9150509295509295909350565b7f4e487b7100000000000000000000000000000000000000000000000000000000600052602160045260246000fd5b600381106129b5576129b4612975565b5b50565b60008190506129c6826129a4565b919050565b60006129d6826129b8565b9050919050565b6129e6816129cb565b82525050565b6000602082019050612a0160008301846129dd565b92915050565b60008060408385031215612a1e57612a1d61246f565b5b6000612a2c858286016127d0565b9250506020612a3d85828601612610565b9150509250929050565b600080600060608486031215612a6057612a5f61246f565b5b6000612a6e86828701612610565b9350506020612a7f86828701612610565b9250506040612a9086828701612610565b9150509250925092565b600060208284031215612ab057612aaf61246f565b5b6000612abe848285016127d0565b91505092915050565b612ad0816127a7565b82525050565b6000602082019050612aeb6000830184612ac7565b92915050565b600081519050919050565b600082825260208201905092915050565b6000819050602082019050919050565b600082825260208201905092915050565b6000612b3982612534565b612b438185612b1d565b9350612b53818560208601612550565b612b5c81612583565b840191505092915050565b6000612b738383612b2e565b905092915050565b6000602082019050919050565b6000612b9382612af1565b612b9d8185612afc565b935083602082028501612baf85612b0d565b8060005b85811015612beb5784840389528151612bcc8582612b67565b9450612bd783612b7b565b925060208a01995050600181019050612bb3565b50829750879550505050505092915050565b60006040820190508181036000830152612c178185612594565b90508181036020830152612c2b8184612b88565b90509392505050565b600060a082019050612c496000830188612ac7565b612c5660208301876129dd565b8181036040830152612c688186612594565b9050612c776060830185612665565b612c846080830184612665565b9695505050505050565b7f4e487b7100000000000000000000000000000000000000000000000000000000600052602260045260246000fd5b60006002820490506001821680612cd557607f821691505b602082108103612ce857612ce7612c8e565b5b50919050565b7f4e487b7100000000000000000000000000000000000000000000000000000000600052601160045260246000fd5b6000612d28826125ef565b91507fffffffffffffffffffffffffffffffffffffffffffffffffffffffffffffffff8203612d5a57612d59612cee565b5b600182019050919050565b7f4e6f7420612076616c69642050726f706f73616c204964000000000000000000600082015250565b6000612d9b60178361253f565b9150612da682612d65565b602082019050919050565b60006020820190508181036000830152612dca81612d8e565b9050919050565b7f4f776e61626c653a2063616c6c6572206973206e6f7420746865206f776e6572600082015250565b6000612e0760208361253f565b9150612e1282612dd1565b602082019050919050565b60006020820190508181036000830152612e3681612dfa565b9050919050565b7f566f7465206973206e6f7420696e2070726f6772657373000000000000000000600082015250565b6000612e7360178361253f565b9150612e7e82612e3d565b602082019050919050565b60006020820190508181036000830152612ea281612e66565b9050919050565b7f766f74696e6720706572696f6420686173206e6f742065787069726564000000600082015250565b6000612edf601d8361253f565b9150612eea82612ea9565b602082019050919050565b60006020820190508181036000830152612f0e81612ed2565b9050919050565b7f416363657373436f6e74726f6c3a2063616e206f6e6c792072656e6f756e636560008201527f20726f6c657320666f722073656c660000000000000000000000000000000000602082015250565b6000612f71602f8361253f565b9150612f7c82612f15565b604082019050919050565b60006020820190508181036000830152612fa081612f64565b9050919050565b7f54686520766f74696e6720706572696f642063616e6e6f742062652030000000600082015250565b6000612fdd601d8361253f565b9150612fe882612fa7565b602082019050919050565b6000602082019050818103600083015261300c81612fd0565b9050919050565b600061301e826125ef565b9150613029836125ef565b9250817fffffffffffffffffffffffffffffffffffffffffffffffffffffffffffffffff048311821515161561306257613061612cee565b5b828202905092915050565b6000613078826125ef565b9150613083836125ef565b9250827fffffffffffffffffffffffffffffffffffffffffffffffffffffffffffffffff038211156130b8576130b7612cee565b5b828201905092915050565b7f4e487b7100000000000000000000000000000000000000000000000000000000600052603260045260246000fd5b600080fd5b600080fd5b600080fd5b6000808335600160200384360303811261311e5761311d6130f2565b5b80840192508235915067ffffffffffffffff8211156131405761313f6130f7565b5b60208301925060018202360383131561315c5761315b6130fc565b5b509250929050565b82818337600083830152505050565b600061317f838561253f565b935061318c838584613164565b61319583612583565b840190509392505050565b6000819050919050565b60006131b68385612b1d565b93506131c3838584613164565b6131cc83612583565b840190509392505050565b60006131e48484846131aa565b90509392505050565b600080fd5b600080fd5b600080fd5b60008083356001602003843603038112613219576132186131f7565b5b83810192508235915060208301925067ffffffffffffffff821115613241576132406131ed565b5b600182023603831315613257576132566131f2565b5b509250929050565b6000602082019050919050565b60006132788385612afc565b93508360208402850161328a846131a0565b8060005b878110156132d05784840389526132a582846131fc565b6132b08682846131d7565b95506132bb8461325f565b935060208b019a50505060018101905061328e565b50829750879450505050509392505050565b60006080820190506132f76000830189612ac7565b818103602083015261330a818789613173565b9050818103604083015261331f81858761326c565b905061332e6060830184612665565b979650505050505050565b7f206d696e7420746f20746865207a65726f206164647265737300000000000000600082015250565b600061336f60198361253f565b915061337a82613339565b602082019050919050565b6000602082019050818103600083015261339e81613362565b9050919050565b7f50726f706f73616c2073686f756c6420626520696e2074616c6c790000000000600082015250565b60006133db601b8361253f565b91506133e6826133a5565b602082019050919050565b6000602082019050818103600083015261340a816133ce565b9050919050565b7f70726f706f73616c2068617320657870697265642e0000000000000000000000600082015250565b600061344760158361253f565b915061345282613411565b602082019050919050565b600060208201905081810360008301526134768161343a565b9050919050565b7f7573657220616c726561647920766f746564206f6e20746869732070726f706f60008201527f73616c0000000000000000000000000000000000000000000000000000000000602082015250565b60006134d960238361253f565b91506134e48261347d565b604082019050919050565b60006020820190508181036000830152613508816134cc565b9050919050565b7f666f7220746869732070726f706f73616c2c2074686520766f74696e6720746960008201527f6d65206578706972656400000000000000000000000000000000000000000000602082015250565b600061356b602a8361253f565b91506135768261350f565b604082019050919050565b6000602082019050818103600083015261359a8161355e565b9050919050565b60006080820190506135b66000830187612ac7565b6135c36020830186612665565b6135d06040830185612665565b6135dd6060830184612665565b95945050505050565b7f4e487b7100000000000000000000000000000000000000000000000000000000600052604160045260246000fd5b6000613620826125ef565b915061362b836125ef565b92508282101561363e5761363d612cee565b5b828203905092915050565b7f4f776e61626c653a206e6577206f776e657220697320746865207a65726f206160008201527f6464726573730000000000000000000000000000000000000000000000000000602082015250565b60006136a560268361253f565b91506136b082613649565b604082019050919050565b600060208201905081810360008301526136d481613698565b9050919050565b7f4e487b7100000000000000000000000000000000000000000000000000000000600052601260045260246000fd5b6000613715826125ef565b9150613720836125ef565b9250826137305761372f6136db565b5b828204905092915050565b600081905092915050565b7f416363657373436f6e74726f6c3a206163636f756e7420000000000000000000600082015250565b600061377c60178361373b565b915061378782613746565b601782019050919050565b600061379d82612534565b6137a7818561373b565b93506137b7818560208601612550565b80840191505092915050565b7f206973206d697373696e6720726f6c6520000000000000000000000000000000600082015250565b60006137f960118361373b565b9150613804826137c3565b601182019050919050565b600061381a8261376f565b91506138268285613792565b9150613831826137ec565b915061383d8284613792565b91508190509392505050565b6000613854826125ef565b91506000820361386757613866612cee565b5b600182039050919050565b7f537472696e67733a20686578206c656e67746820696e73756666696369656e74600082015250565b60006138a860208361253f565b91506138b382613872565b602082019050919050565b600060208201905081810360008301526138d78161389b565b905091905056fea2646970667358221220ffe8a39fe3cb504e50e9bb37f6cf59f92d706f9374779b2a5ed83c7de5b1566064736f6c634300080e0033",
  "immutableReferences": {},
  "source": "// SPDX-License-Identifier: MIT\r\npragma solidity ^0.8.0;\r\n\r\nimport \"@openzeppelin/contracts/utils/math/SafeMath.sol\";\r\nimport \"@openzeppelin/contracts/access/Ownable.sol\";\r\nimport \"@openzeppelin/contracts/access/AccessControl.sol\";\r\n\r\ncontract Voting is Ownable, AccessControl {\r\n    using SafeMath for uint256;\r\n    uint256 private _totalSupply;\r\n    string public symbol;\r\n    string public name;\r\n    mapping(address => uint256) private _balances;\r\n    uint256 public ProposalCount;\r\n\r\n    event VoteCasted(\r\n        address voter,\r\n        uint256 ProposalID,\r\n        uint256 weight,\r\n        uint256 optionNum\r\n    );\r\n\r\n    event ProposalCreated(\r\n        address creator,\r\n        string description,\r\n        string[] _options,\r\n        uint256 votingTimeInHours\r\n    );\r\n\r\n    struct Proposal {\r\n        address creator;\r\n        ProposalStatus status;\r\n        string description;\r\n        address[] voters;\r\n        uint256 expirationTime;\r\n        uint256 numOfOptions;\r\n        mapping(address => Voter) voterInfo;\r\n        mapping(uint256 => option) options;\r\n    }\r\n    enum ProposalStatus {\r\n        IN_PROGRESS,\r\n        TALLY,\r\n        ENDED\r\n    }\r\n    struct Voter {\r\n        bool hasVoted;\r\n        uint256 optionNum;\r\n        uint256 weight;\r\n    }\r\n\r\n    struct option {\r\n        string optionName;\r\n        uint256 totalWeight;\r\n    }\r\n    mapping(uint256 => Proposal) public Proposals;\r\n\r\n    address private Owner;\r\n\r\n    constructor() public {\r\n        symbol = \"V\";\r\n        name = \"Voting\";\r\n        Owner = msg.sender;\r\n    }\r\n\r\n    function checkAdmin() public view returns (bool) {\r\n        if (msg.sender == Owner) {\r\n            return true;\r\n        }\r\n        return false;\r\n    }\r\n\r\n    function createProposal(\r\n        string calldata _description,\r\n        string[] calldata _options,\r\n        uint256 _voteExpirationTime\r\n    ) external onlyOwner returns (uint256) {\r\n        require(_voteExpirationTime > 0, \"The voting period cannot be 0\");\r\n        ProposalCount++;\r\n        Proposal storage curProposal = Proposals[ProposalCount];\r\n        curProposal.creator = msg.sender;\r\n        curProposal.status = ProposalStatus.IN_PROGRESS;\r\n        curProposal.expirationTime =\r\n            block.timestamp +\r\n            60 *\r\n            _voteExpirationTime *\r\n            1 seconds;\r\n        curProposal.description = _description;\r\n        curProposal.numOfOptions = _options.length;\r\n        for (uint256 i = 0; i < _options.length; i++) {\r\n            curProposal.options[i + 1] = option({\r\n                optionName: _options[i],\r\n                totalWeight: 0\r\n            });\r\n        }\r\n\r\n        emit ProposalCreated(\r\n            msg.sender,\r\n            _description,\r\n            _options,\r\n            _voteExpirationTime\r\n        );\r\n        return ProposalCount;\r\n    }\r\n\r\n    function setProposalToTally(uint256 _ProposalID)\r\n        external\r\n        validProposal(_ProposalID)\r\n        onlyOwner\r\n    {\r\n        require(\r\n            Proposals[_ProposalID].status == ProposalStatus.IN_PROGRESS,\r\n            \"Vote is not in progress\"\r\n        );\r\n        require(\r\n            block.timestamp >= getProposalExpirationTime(_ProposalID),\r\n            \"voting period has not expired\"\r\n        );\r\n        Proposals[_ProposalID].status = ProposalStatus.TALLY;\r\n    }\r\n\r\n    function setProposalToEnded(uint256 _ProposalID)\r\n        external\r\n        validProposal(_ProposalID)\r\n        onlyOwner\r\n    {\r\n        require(\r\n            Proposals[_ProposalID].status == ProposalStatus.TALLY,\r\n            \"Proposal should be in tally\"\r\n        );\r\n        require(\r\n            block.timestamp >= getProposalExpirationTime(_ProposalID),\r\n            \"voting period has not expired\"\r\n        );\r\n        Proposals[_ProposalID].status = ProposalStatus.ENDED;\r\n    }\r\n\r\n    function getProposalStatus(uint256 _ProposalID)\r\n        public\r\n        view\r\n        validProposal(_ProposalID)\r\n        returns (ProposalStatus)\r\n    {\r\n        return Proposals[_ProposalID].status;\r\n    }\r\n\r\n    function getDetails(uint256 _ProposalID)\r\n        external\r\n        view\r\n        returns (string memory, string[] memory)\r\n    {\r\n        string[] memory _options = new string[](\r\n            Proposals[_ProposalID].numOfOptions\r\n        );\r\n        for (uint256 i = 1; i <= Proposals[_ProposalID].numOfOptions; i++) {\r\n            _options[i - 1] = Proposals[_ProposalID].options[i].optionName;\r\n        }\r\n        return (Proposals[_ProposalID].description, _options);\r\n    }\r\n\r\n    function getProposalExpirationTime(uint256 _ProposalID)\r\n        public\r\n        view\r\n        validProposal(_ProposalID)\r\n        returns (uint256)\r\n    {\r\n        return Proposals[_ProposalID].expirationTime;\r\n    }\r\n\r\n    modifier validProposal(uint256 _ProposalID) {\r\n        require(\r\n            _ProposalID > 0 && _ProposalID <= ProposalCount,\r\n            \"Not a valid Proposal Id\"\r\n        );\r\n        _;\r\n    }\r\n\r\n    function userHasVoted(uint256 _ProposalID, address _user)\r\n        internal\r\n        view\r\n        validProposal(_ProposalID)\r\n        returns (bool)\r\n    {\r\n        return (Proposals[_ProposalID].voterInfo[_user].hasVoted);\r\n    }\r\n\r\n    /**\r\n     * @dev to get winner of poll.\r\n     * @param _ProposalID the proposal id\r\n     * returns index of options, total weight of option and name of option\r\n     */\r\n\r\n    function countVotes(uint256 _ProposalID)\r\n        public\r\n        view\r\n        returns (\r\n            uint256,\r\n            uint256,\r\n            string memory\r\n        )\r\n    {\r\n        uint256 len = Proposals[_ProposalID].numOfOptions;\r\n        uint256 maxWeight;\r\n        uint256 index;\r\n        for (uint256 i = 1; i < len; i++) {\r\n            if (Proposals[_ProposalID].options[i].totalWeight >= maxWeight) {\r\n                maxWeight = Proposals[_ProposalID].options[i].totalWeight;\r\n                index = i;\r\n            }\r\n        }\r\n        string memory n = Proposals[_ProposalID].options[index].optionName;\r\n        return (index, maxWeight, n);\r\n    }\r\n\r\n    function getWeight(uint256 _ProposalID, uint256 optionNum)\r\n        public\r\n        view\r\n        returns (uint256)\r\n    {\r\n        return Proposals[_ProposalID].options[optionNum].totalWeight;\r\n    }\r\n\r\n    function castVote(\r\n        uint256 _ProposalID,\r\n        uint256 numTokens,\r\n        uint256 _optionNum\r\n    ) external validProposal(_ProposalID) {\r\n        require(\r\n            getProposalStatus(_ProposalID) == ProposalStatus.IN_PROGRESS,\r\n            \"proposal has expired.\"\r\n        );\r\n        require(\r\n            !userHasVoted(_ProposalID, msg.sender),\r\n            \"user already voted on this proposal\"\r\n        );\r\n        require(\r\n            getProposalExpirationTime(_ProposalID) > block.timestamp,\r\n            \"for this proposal, the voting time expired\"\r\n        );\r\n\r\n        _balances[msg.sender] = _balances[msg.sender].sub(numTokens);\r\n\r\n        uint256 weight = sqrt(numTokens); // QV Vote\r\n\r\n        Proposal storage curproposal = Proposals[_ProposalID];\r\n\r\n        curproposal.voterInfo[msg.sender] = Voter({\r\n            hasVoted: true,\r\n            optionNum: _optionNum,\r\n            weight: weight\r\n        });\r\n        curproposal.options[_optionNum].totalWeight += weight;\r\n\r\n        curproposal.voters.push(msg.sender);\r\n\r\n        emit VoteCasted(msg.sender, _ProposalID, weight, _optionNum);\r\n    }\r\n\r\n    function sqrt(uint256 x) internal pure returns (uint256 y) {\r\n        uint256 z = (x + 1) / 2;\r\n        y = x;\r\n        while (z < y) {\r\n            y = z;\r\n            z = (x / z + z) / 2;\r\n        }\r\n    }\r\n\r\n    /**\r\n     * @dev minting more tokens for an account\r\n     */\r\n    function mint(address account, uint256 amount) public onlyOwner {\r\n        require(account != address(0), \" mint to the zero address\");\r\n        _totalSupply = _totalSupply.add(amount);\r\n        _balances[account] = _balances[account].add(amount);\r\n    }\r\n\r\n    /**\r\n     * @dev returns the balance of an account\r\n     */\r\n    function balanceOf(address account) public view returns (uint256) {\r\n        return _balances[account];\r\n    }\r\n}\r\n",
  "sourcePath": "C:\\Users\\sande\\Desktop\\quadratic_voting\\frontend\\truffle\\contracts\\QVVoting.sol",
  "compiler": {
    "name": "solc",
    "version": "0.8.14+commit.80d49f37.Emscripten.clang"
  },
  "schemaVersion": "3.4.7",
  "updatedAt": "2022-06-28T08:26:46.909Z",
  "devdoc": {
    "kind": "dev",
    "methods": {
      "balanceOf(address)": {
        "details": "returns the balance of an account"
      },
      "countVotes(uint256)": {
        "details": "to get winner of poll.",
        "params": {
          "_ProposalID": "the proposal id returns index of options, total weight of option and name of option"
        }
      },
      "getRoleAdmin(bytes32)": {
        "details": "Returns the admin role that controls `role`. See {grantRole} and {revokeRole}. To change a role's admin, use {_setRoleAdmin}."
      },
      "grantRole(bytes32,address)": {
        "details": "Grants `role` to `account`. If `account` had not been already granted `role`, emits a {RoleGranted} event. Requirements: - the caller must have ``role``'s admin role."
      },
      "hasRole(bytes32,address)": {
        "details": "Returns `true` if `account` has been granted `role`."
      },
      "mint(address,uint256)": {
        "details": "minting more tokens for an account"
      },
      "owner()": {
        "details": "Returns the address of the current owner."
      },
      "renounceOwnership()": {
        "details": "Leaves the contract without owner. It will not be possible to call `onlyOwner` functions anymore. Can only be called by the current owner. NOTE: Renouncing ownership will leave the contract without an owner, thereby removing any functionality that is only available to the owner."
      },
      "renounceRole(bytes32,address)": {
        "details": "Revokes `role` from the calling account. Roles are often managed via {grantRole} and {revokeRole}: this function's purpose is to provide a mechanism for accounts to lose their privileges if they are compromised (such as when a trusted device is misplaced). If the calling account had been revoked `role`, emits a {RoleRevoked} event. Requirements: - the caller must be `account`."
      },
      "revokeRole(bytes32,address)": {
        "details": "Revokes `role` from `account`. If `account` had been granted `role`, emits a {RoleRevoked} event. Requirements: - the caller must have ``role``'s admin role."
      },
      "supportsInterface(bytes4)": {
        "details": "See {IERC165-supportsInterface}."
      },
      "transferOwnership(address)": {
        "details": "Transfers ownership of the contract to a new account (`newOwner`). Can only be called by the current owner."
      }
    },
    "version": 1
  },
  "userdoc": {
    "kind": "user",
    "methods": {},
    "version": 1
  }
}